{
  "_format": "hh-sol-artifact-1",
  "contractName": "BonusReserveManager",
  "sourceName": "src/BonusReserveManager.sol",
  "abi": [
    {
      "inputs": [
        {
          "internalType": "address",
          "name": "initialOwner",
          "type": "address"
        }
      ],
      "stateMutability": "nonpayable",
      "type": "constructor"
    },
    {
      "inputs": [
        {
          "internalType": "address",
          "name": "owner",
          "type": "address"
        }
      ],
      "name": "OwnableInvalidOwner",
      "type": "error"
    },
    {
      "inputs": [
        {
          "internalType": "address",
          "name": "account",
          "type": "address"
        }
      ],
      "name": "OwnableUnauthorizedAccount",
      "type": "error"
    },
    {
      "anonymous": false,
      "inputs": [
        {
          "indexed": true,
          "internalType": "address",
          "name": "token",
          "type": "address"
        },
        {
          "indexed": false,
          "internalType": "uint256",
          "name": "amountPaid",
          "type": "uint256"
        },
        {
          "indexed": false,
          "internalType": "uint256",
          "name": "newTotalPaid",
          "type": "uint256"
        }
      ],
      "name": "BonusPaid",
      "type": "event"
    },
    {
      "anonymous": false,
      "inputs": [
        {
          "indexed": true,
          "internalType": "address",
          "name": "token",
          "type": "address"
        },
        {
          "indexed": false,
          "internalType": "uint256",
          "name": "amountAdded",
          "type": "uint256"
        },
        {
          "indexed": false,
          "internalType": "uint256",
          "name": "newTotalReserved",
          "type": "uint256"
        }
      ],
      "name": "BonusReserveIncreased",
      "type": "event"
    },
    {
      "anonymous": false,
      "inputs": [
        {
          "indexed": true,
          "internalType": "address",
          "name": "token",
          "type": "address"
        },
        {
          "indexed": false,
          "internalType": "uint256",
          "name": "totalReserved",
          "type": "uint256"
        }
      ],
      "name": "BonusReserveSet",
      "type": "event"
    },
    {
      "anonymous": false,
      "inputs": [
        {
          "indexed": true,
          "internalType": "address",
          "name": "previousOwner",
          "type": "address"
        },
        {
          "indexed": true,
          "internalType": "address",
          "name": "newOwner",
          "type": "address"
        }
      ],
      "name": "OwnershipTransferred",
      "type": "event"
    },
    {
      "inputs": [],
      "name": "getAllReserves",
      "outputs": [
        {
          "components": [
            {
              "internalType": "address",
              "name": "token",
              "type": "address"
            },
            {
              "internalType": "uint256",
              "name": "totalReserved",
              "type": "uint256"
            },
            {
              "internalType": "uint256",
              "name": "totalPaid",
              "type": "uint256"
            },
            {
              "internalType": "bool",
              "name": "exists",
              "type": "bool"
            }
          ],
          "internalType": "struct BonusReserveManager.BonusReserve[]",
          "name": "",
          "type": "tuple[]"
        }
      ],
      "stateMutability": "view",
      "type": "function"
    },
    {
      "inputs": [
        {
          "internalType": "address",
          "name": "token",
          "type": "address"
        }
      ],
      "name": "getRemainingReserve",
      "outputs": [
        {
          "internalType": "uint256",
          "name": "",
          "type": "uint256"
        }
      ],
      "stateMutability": "view",
      "type": "function"
    },
    {
      "inputs": [
        {
          "internalType": "address",
          "name": "token",
          "type": "address"
        }
      ],
      "name": "getReserve",
      "outputs": [
        {
          "components": [
            {
              "internalType": "address",
              "name": "token",
              "type": "address"
            },
            {
              "internalType": "uint256",
              "name": "totalReserved",
              "type": "uint256"
            },
            {
              "internalType": "uint256",
              "name": "totalPaid",
              "type": "uint256"
            },
            {
              "internalType": "bool",
              "name": "exists",
              "type": "bool"
            }
          ],
          "internalType": "struct BonusReserveManager.BonusReserve",
          "name": "",
          "type": "tuple"
        }
      ],
      "stateMutability": "view",
      "type": "function"
    },
    {
      "inputs": [
        {
          "internalType": "address",
          "name": "token",
          "type": "address"
        }
      ],
      "name": "hasReserve",
      "outputs": [
        {
          "internalType": "bool",
          "name": "",
          "type": "bool"
        }
      ],
      "stateMutability": "view",
      "type": "function"
    },
    {
      "inputs": [
        {
          "internalType": "address",
          "name": "token",
          "type": "address"
        },
        {
          "internalType": "uint256",
          "name": "amount",
          "type": "uint256"
        }
      ],
      "name": "increaseReserve",
      "outputs": [],
      "stateMutability": "nonpayable",
      "type": "function"
    },
    {
      "inputs": [],
      "name": "owner",
      "outputs": [
        {
          "internalType": "address",
          "name": "",
          "type": "address"
        }
      ],
      "stateMutability": "view",
      "type": "function"
    },
    {
      "inputs": [
        {
          "internalType": "address",
          "name": "token",
          "type": "address"
        },
        {
          "internalType": "uint256",
          "name": "amount",
          "type": "uint256"
        }
      ],
      "name": "payBonus",
      "outputs": [
        {
          "internalType": "uint256",
          "name": "paidAmount",
          "type": "uint256"
        }
      ],
      "stateMutability": "nonpayable",
      "type": "function"
    },
    {
      "inputs": [],
      "name": "renounceOwnership",
      "outputs": [],
      "stateMutability": "nonpayable",
      "type": "function"
    },
    {
      "inputs": [
        {
          "internalType": "address",
          "name": "token",
          "type": "address"
        },
        {
          "internalType": "uint256",
          "name": "amount",
          "type": "uint256"
        }
      ],
      "name": "setReserve",
      "outputs": [],
      "stateMutability": "nonpayable",
      "type": "function"
    },
    {
      "inputs": [],
      "name": "totalReserveTokens",
      "outputs": [
        {
          "internalType": "uint256",
          "name": "",
          "type": "uint256"
        }
      ],
      "stateMutability": "view",
      "type": "function"
    },
    {
      "inputs": [
        {
          "internalType": "address",
          "name": "newOwner",
          "type": "address"
        }
      ],
      "name": "transferOwnership",
      "outputs": [],
      "stateMutability": "nonpayable",
      "type": "function"
    }
  ],
  "bytecode": "0x6080346100bb57601f610acb38819003918201601f19168301916001600160401b038311848410176100c0578084926020946040528339810103126100bb57516001600160a01b0390818116908190036100bb5780156100a257600080546001600160a01b03198116831782556040519316907f8be0079c531659141344cd1fd0a4f28419497f9722a3daafe3b4186f6b6457e09080a36109f490816100d78239f35b604051631e4fbdf760e01b815260006004820152602490fd5b600080fd5b634e487b7160e01b600052604160045260246000fdfe604060808152600436101561001357600080fd5b600090813560e01c80631b302fc4146106905780633762e31b1461064f5780636aa701bf146104c6578063715018a61461046957806378250b631461030357806381405526146102d75780638da5cb5b146102b0578063c9a396e9146101f7578063cd06700b146101d9578063d14499d1146101205763f2fde38b1461009857600080fd5b3461011c57602036600319011261011c576100b1610763565b6100b9610992565b6001600160a01b03908116918215610105575082546001600160a01b0319811683178455167f8be0079c531659141344cd1fd0a4f28419497f9722a3daafe3b4186f6b6457e08380a380f35b51631e4fbdf760e01b815260048101849052602490fd5b5080fd5b503461011c578060031936011261011c577f9db2b92e54570a94b585933dcc2df5f5b2acd4376691a13e8549a222471f8a0061015a610763565b9160243592610167610992565b6001600160a01b03169261017c84151561077e565b6101878115156107ba565b83855260016020526101a160ff60038488200154166107fb565b83855260016020526001828620016101ba82825461083b565b905583855260016020526001828620015482519182526020820152a280f35b503461011c578160031936011261011c576020906002549051908152f35b503461011c57602036600319011261011c57906102ae8260ff600360809561021d610763565b956102266108ac565b506001600160a01b03968716808252600160205282822084015461024b9086166107fb565b815260016020522061025b61085e565b95815416865260018101546020870152600281015484870152015416151560608401525180926060809160018060a01b038151168452602081015160208501526040810151604085015201511515910152565bf35b503461011c578160031936011261011c57905490516001600160a01b039091168152602090f35b503461011c57602036600319011261011c576020906102fc6102f7610763565b610931565b9051908152f35b503461011c578060031936011261011c5761031c610763565b9060243590610329610992565b6001600160a01b039283169261034084151561077e565b83855260018060205282862060ff6003820154161560001461043a575061036561085e565b858152600360208201918683528581018981526060820193858552898b528560205286888c209351166bffffffffffffffffffffffff60a01b8454161783555185830155516002820155019051151560ff801983541691161790556002549068010000000000000000821015610426579161040a827f655b2dd6968df529922f0fbcc9b71c026eb845d3d501879a30c48ee2bd191850969460209694016002556108d0565b819291549060031b9188831b921b19161790555b51908152a280f35b634e487b7160e01b87526041600452602487fd5b01839055507f655b2dd6968df529922f0fbcc9b71c026eb845d3d501879a30c48ee2bd1918509160209161041e565b82346104c357806003193601126104c357610482610992565b80546001600160a01b03198116825581906001600160a01b03167f8be0079c531659141344cd1fd0a4f28419497f9722a3daafe3b4186f6b6457e08280a380f35b80fd5b5090346104c357806003193601126104c357600291601f6002546104e981610894565b9483519583199384910116860186811067ffffffffffffffff82111761063b5784939596945281845261051b82610894565b60209501865b81811061061c575050855b8281106105a4575050508051928080850192818652845180945285019301945b8281106105595784840385f35b909192826080826105956001948a516060809160018060a01b038151168452602081015160208501526040810151604085015201511515910152565b0196019101949291909461054c565b8060ff6105b760019399989697996108d0565b848060a09493941b03809354600392831b1c168a5284808952898b20906105dc61085e565b94825416855281015489850152868101548a85015201541615156060820152610605828a61091d565b52610610818961091d565b5001959392949561052c565b95809495979661062a6108ac565b82828b010152019694939596610521565b634e487b7160e01b86526041600452602486fd5b503461011c57602036600319011261011c5760209160ff9060039083906001600160a01b0361067c610763565b168152600186522001541690519015158152f35b503461011c578060031936011261011c57906020916106ad610763565b7f5c3f6e98f212f4c64ffd7bb715de204a3c246ee0169b69424a0295aa72304e2c826002816024356106dd610992565b6001600160a01b0386169561071b906106f788151561077e565b6107028315156107ba565b878a5260018b526102f760ff6003868d200154166107fb565b908181111561075b5750965b85815260018952828282200161073e89825461083b565b90558581526001895220015481519086825287820152a251908152f35b905096610727565b600435906001600160a01b038216820361077957565b600080fd5b1561078557565b60405162461bcd60e51b815260206004820152600d60248201526c24b73b30b634b2103a37b5b2b760991b6044820152606490fd5b156107c157565b60405162461bcd60e51b81526020600482015260126024820152710416d6f756e74206d757374206265203e20360741b6044820152606490fd5b1561080257565b60405162461bcd60e51b815260206004820152601160248201527014995cd95c9d99481b9bdd08199bdd5b99607a1b6044820152606490fd5b9190820180921161084857565b634e487b7160e01b600052601160045260246000fd5b604051906080820182811067ffffffffffffffff82111761087e57604052565b634e487b7160e01b600052604160045260246000fd5b67ffffffffffffffff811161087e5760051b60200190565b6108b461085e565b9060008252600060208301526000604083015260006060830152565b6002548110156109075760026000527f405787fa12a823e0f2b7631cc41b3ba8828b3321ca811111fa75cd3aa3bb5ace0190600090565b634e487b7160e01b600052603260045260246000fd5b80518210156109075760209160051b010190565b6001600160a01b031660008181526001602052604081206003015490919061095b9060ff166107fb565b81526001602052604081209060026001830154920154820391821161097e575090565b634e487b7160e01b81526011600452602490fd5b6000546001600160a01b031633036109a657565b60405163118cdaa760e01b8152336004820152602490fdfea2646970667358221220265a9ee6d1cc81e58fde8a147e1a39bf273573ef0dced7fa0aebfaf634e681d264736f6c63430008170033",
  "linkReferences": {},
  "deployedLinkReferences": {}
}