{"src/ReceiptVault.sol":{"ReceiptVault":{"abi":[{"inputs":[{"internalType":"address","name":"initialOwner","type":"address"},{"internalType":"address","name":"receiptTokenAddress","type":"address"},{"internalType":"address","name":"bonusReserveManagerAddress","type":"address"}],"stateMutability":"nonpayable","type":"constructor"},{"inputs":[{"internalType":"address","name":"owner","type":"address"}],"name":"OwnableInvalidOwner","type":"error"},{"inputs":[{"internalType":"address","name":"account","type":"address"}],"name":"OwnableUnauthorizedAccount","type":"error"},{"anonymous":false,"inputs":[{"indexed":true,"internalType":"address","name":"previousOwner","type":"address"},{"indexed":true,"internalType":"address","name":"newOwner","type":"address"}],"name":"OwnershipTransferred","type":"event"},{"anonymous":false,"inputs":[{"indexed":true,"internalType":"uint256","name":"positionId","type":"uint256"},{"indexed":true,"internalType":"address","name":"owner","type":"address"},{"indexed":true,"internalType":"address","name":"lpToken","type":"address"},{"indexed":false,"internalType":"uint256","name":"lpAmount","type":"uint256"},{"indexed":false,"internalType":"uint256","name":"receiptAmount","type":"uint256"},{"indexed":false,"internalType":"uint256","name":"unlockAt","type":"uint256"}],"name":"PositionCreated","type":"event"},{"anonymous":false,"inputs":[{"indexed":true,"internalType":"uint256","name":"positionId","type":"uint256"},{"indexed":true,"internalType":"address","name":"owner","type":"address"},{"indexed":true,"internalType":"address","name":"lpToken","type":"address"},{"indexed":false,"internalType":"uint256","name":"lpReturned","type":"uint256"},{"indexed":false,"internalType":"uint256","name":"bonusPaid","type":"uint256"}],"name":"PositionRedeemed","type":"event"},{"inputs":[],"name":"LOCK_PERIOD","outputs":[{"internalType":"uint256","name":"","type":"uint256"}],"stateMutability":"view","type":"function"},{"inputs":[],"name":"bonusReserveManager","outputs":[{"internalType":"address","name":"","type":"address"}],"stateMutability":"view","type":"function"},{"inputs":[{"internalType":"address","name":"lpToken","type":"address"},{"internalType":"uint256","name":"lpAmount","type":"uint256"},{"internalType":"uint256","name":"receiptAmount","type":"uint256"}],"name":"depositLP","outputs":[{"internalType":"uint256","name":"positionId","type":"uint256"}],"stateMutability":"nonpayable","type":"function"},{"inputs":[{"internalType":"uint256","name":"positionId","type":"uint256"}],"name":"getPosition","outputs":[{"components":[{"internalType":"uint256","name":"id","type":"uint256"},{"internalType":"address","name":"owner","type":"address"},{"internalType":"address","name":"lpToken","type":"address"},{"internalType":"uint256","name":"lpAmount","type":"uint256"},{"internalType":"uint256","name":"receiptAmount","type":"uint256"},{"internalType":"uint256","name":"lockedAt","type":"uint256"},{"internalType":"uint256","name":"unlockAt","type":"uint256"},{"internalType":"bool","name":"redeemed","type":"bool"},{"internalType":"bool","name":"exists","type":"bool"}],"internalType":"struct ReceiptVault.VaultPosition","name":"","type":"tuple"}],"stateMutability":"view","type":"function"},{"inputs":[{"internalType":"address","name":"user","type":"address"}],"name":"getUserPositionIds","outputs":[{"internalType":"uint256[]","name":"","type":"uint256[]"}],"stateMutability":"view","type":"function"},{"inputs":[{"internalType":"address","name":"user","type":"address"}],"name":"getUserPositions","outputs":[{"components":[{"internalType":"uint256","name":"id","type":"uint256"},{"internalType":"address","name":"owner","type":"address"},{"internalType":"address","name":"lpToken","type":"address"},{"internalType":"uint256","name":"lpAmount","type":"uint256"},{"internalType":"uint256","name":"receiptAmount","type":"uint256"},{"internalType":"uint256","name":"lockedAt","type":"uint256"},{"internalType":"uint256","name":"unlockAt","type":"uint256"},{"internalType":"bool","name":"redeemed","type":"bool"},{"internalType":"bool","name":"exists","type":"bool"}],"internalType":"struct ReceiptVault.VaultPosition[]","name":"","type":"tuple[]"}],"stateMutability":"view","type":"function"},{"inputs":[{"internalType":"uint256","name":"positionId","type":"uint256"}],"name":"isRedeemable","outputs":[{"internalType":"bool","name":"","type":"bool"}],"stateMutability":"view","type":"function"},{"inputs":[],"name":"nextPositionId","outputs":[{"internalType":"uint256","name":"","type":"uint256"}],"stateMutability":"view","type":"function"},{"inputs":[],"name":"owner","outputs":[{"internalType":"address","name":"","type":"address"}],"stateMutability":"view","type":"function"},{"inputs":[],"name":"receiptToken","outputs":[{"internalType":"address","name":"","type":"address"}],"stateMutability":"view","type":"function"},{"inputs":[{"internalType":"uint256","name":"positionId","type":"uint256"}],"name":"redeemPosition","outputs":[{"internalType":"uint256","name":"bonusPaid","type":"uint256"}],"stateMutability":"nonpayable","type":"function"},{"inputs":[],"name":"renounceOwnership","outputs":[],"stateMutability":"nonpayable","type":"function"},{"inputs":[{"internalType":"address","name":"newOwner","type":"address"}],"name":"transferOwnership","outputs":[],"stateMutability":"nonpayable","type":"function"}],"evm":{"bytecode":{"linkReferences":{},"object":"60c0346101a057601f6110d938819003918201601f191683019291906001600160401b038411838510176101a55781606092849260409687528339810103126101a05761004b816101bb565b906100638361005c602084016101bb565b92016101bb565b916001600160a01b03908116801561018857600080546001600160a01b031981168317825586519291908416907f8be0079c531659141344cd1fd0a4f28419497f9722a3daafe3b4186f6b6457e09080a3600180558183161561014657508216156101025760805260a05251610f0990816101d082396080518181816102cf015281816105430152610872015260a0518181816107cc01526108d30152f35b825162461bcd60e51b815260206004820152601d60248201527f496e76616c696420626f6e75732072657365727665206d616e616765720000006044820152606490fd5b62461bcd60e51b815260206004820152601560248201527f496e76616c6964207265636569707420746f6b656e00000000000000000000006044820152606490fd5b8451631e4fbdf760e01b815260006004820152602490fd5b600080fd5b634e487b7160e01b600052604160045260246000fd5b51906001600160a01b03821682036101a05756fe608080604052600436101561001357600080fd5b60009060e0823560e01c9182631820cabb14610cd9575081632a6bc2dd14610b23575080632fefd77f146107fb5780634baefee9146107b6578063715018a61461075c578063899346c71461073e5780638da5cb5b146107175780639126314d146103c9578063eb02c301146102fe578063ec78e832146102b9578063eddf757014610207578063f2fde38b146101775763f48cc326146100b357600080fd5b34610174576020366003190112610174576040602091600435815260028352206040516100df81610d76565b8154815260018060a01b03806001840154168483015260028301541660408201526003820154606082015260048201546080820152600582015460a0820152610154610100600760068501549460c0850195865201549260ff60e08201948181161515865260081c1615159182910152610e66565b51159081610168575b506040519015158152f35b9050514210153861015d565b80fd5b503461017457602036600319011261017457610191610cf6565b610199610ea7565b6001600160a01b039081169081156101ee57600054826bffffffffffffffffffffffff60a01b821617600055167f8be0079c531659141344cd1fd0a4f28419497f9722a3daafe3b4186f6b6457e0600080a380f35b604051631e4fbdf760e01b815260048101849052602490fd5b5034610174576020806003193601126102b5576001600160a01b0361022a610cf6565b168252600381526040822060405192838383549182815201908193835284832090835b8181106102a15750505084610263910385610dbd565b60405193838594850191818652518092526040850193925b82811061028a57505050500390f35b83518552869550938101939281019260010161027b565b82548452928601926001928301920161024d565b5080fd5b50346101745780600319360112610174576040517f00000000000000000000000000000000000000000000000000000000000000006001600160a01b03168152602090f35b503461017457602036600319011261017457604061012091600435610321610df7565b50808252600260205261033f60ff6007858520015460081c16610e66565b815260026020522060ff60076040519261035884610d76565b8054845260018060a01b0380600183015416602086015260028201541660408501526003810154606085015260048101546080850152600581015460a0850152600681015460c08501520154818116151560e084015260081c1615156101008201526103c76040518092610d11565bf35b5034610174576060366003190112610174576103e3610cf6565b6044356001600160a01b038216156106df57602435156106a257801561065d57600154916000198314610649576001830160015562278d0042014211610649578383600760405161043381610d76565b828152602081013381526040820160018060a01b0387168152606083016024358152608084019089825260a085019242845260c086019462278d0042018652604060e088019a808c5261010089019a60018c52815260026020522096518755600187019060018060a01b03905116906bffffffffffffffffffffffff60a01b9182825416179055600287019160018060a01b039051169082541617905551600385015551600484015551600583015551600682015501915115159060ff61ff0084549251151560081b1692169061ffff19161717905533845260036020526040842080549068010000000000000000821015610635576001820180825582101561062157855260208520018390557f00000000000000000000000000000000000000000000000000000000000000006001600160a01b0316803b1561061d576040516340c10f1960e01b8152336004820152602481018490529085908290604490829084905af18015610612576105fa575b50602093506040519160243583528483015262278d004201604083015260018060a01b031690827fff1fe5c3df343b3cf49ae44ff3f1e994389f4eea96f957f0eebf192190c8ac8f60603393a4604051908152f35b6106048591610da9565b61060e57836105a5565b8380fd5b6040513d87823e3d90fd5b8480fd5b634e487b7160e01b86526032600452602486fd5b634e487b7160e01b86526041600452602486fd5b634e487b7160e01b84526011600452602484fd5b60405162461bcd60e51b815260206004820152601a60248201527f5265636569707420616d6f756e74206d757374206265203e20300000000000006044820152606490fd5b60405162461bcd60e51b815260206004820152601560248201527404c5020616d6f756e74206d757374206265203e203605c1b6044820152606490fd5b60405162461bcd60e51b815260206004820152601060248201526f24b73b30b634b2102628103a37b5b2b760811b6044820152606490fd5b5034610174578060031936011261017457546040516001600160a01b039091168152602090f35b50346101745780600319360112610174576020600154604051908152f35b5034610174578060031936011261017457610775610ea7565b600080546001600160a01b0319811682556001600160a01b03167f8be0079c531659141344cd1fd0a4f28419497f9722a3daafe3b4186f6b6457e08280a380f35b50346101745780600319360112610174576040517f00000000000000000000000000000000000000000000000000000000000000006001600160a01b03168152602090f35b5034610174576020908160031936011261017457600435908091808252600284526040822091600783019081549161083860ff8460081c16610e66565b60018501546001600160a01b03939084163303610ae95760ff8116610ab15760068601544210610a745760ff1916600117905560048401547f0000000000000000000000000000000000000000000000000000000000000000831690813b15610a7057604051632770a7eb60e21b815233600482015260248101919091529082908290604490829084905af18015610a6557610a56575b50817f0000000000000000000000000000000000000000000000000000000000000000169060028501918383541690604051633762e31b60e01b81528260048201528981602481855afa908115610a4b57908a9392918591610a0f575b50610979575b505050509060039154169201549060405191825283858301527f94e2fe61e4d6ddf34ce06d7db9f2b0b814ea9400cbbb5b8542bc03d0b9b69a1760403393a4604051908152f35b60038801546040516306cc0bf160e21b81526001600160a01b0393909316600484015260649004602483015293975091928290604490829086905af1918215610a035780926109d2575b50909490506003863880610932565b9091508682813d83116109fc575b6109ea8183610dbd565b810103126101745750516003386109c3565b503d6109e0565b604051903d90823e3d90fd5b848193949592503d8311610a44575b610a288183610dbd565b8101031261060e5751801515810361060e57908992913861092c565b503d610a1e565b6040513d86823e3d90fd5b610a5f90610da9565b386108cf565b6040513d84823e3d90fd5b8280fd5b60405162461bcd60e51b8152600481018990526015602482015274141bdcda5d1a5bdb881cdd1a5b1b081b1bd8dad959605a1b6044820152606490fd5b60405162461bcd60e51b815260048101899052601060248201526f105b1c9958591e481c995919595b595960821b6044820152606490fd5b60405162461bcd60e51b81526004810189905260126024820152712737ba103837b9b4ba34b7b71037bbb732b960711b6044820152606490fd5b8234610174576020806003193601126102b5576001600160a01b039283610b48610cf6565b168352600392600383526040812093604051808686829854938481520190855286852092855b88828210610cc357505050610b8592500386610dbd565b845195610baa610b9488610ddf565b97610ba2604051998a610dbd565b808952610ddf565b601f190185845b828110610cad57505050825b8651811015610c635780610bd360019289610e3c565b51855260028088526007604087208560405193610bef85610d76565b825485528187840154168c86015282015416604084015286810154606084015260048101546080840152600581015460a0840152600681015460c0840152015460ff9081811615158984015260081c161515610100820152610c51828b610e3c565b52610c5c818a610e3c565b5001610bbd565b6040805187815289518189018190528a89019282019089885b828110610c895784840385f35b9091928261012082610c9e6001948a51610d11565b01960191019492919094610c7c565b610cb5610df7565b82828c010152018690610bb1565b855484526001958601958b955093019201610b6e565b8390346102b557816003193601126102b5578062278d0060209252f35b600435906001600160a01b0382168203610d0c57565b600080fd5b80518252602081015160018060a01b0380911660208401526040820151166040830152606081015160608301526080810151608083015260a081015160a083015260c081015160c083015260e0810151151560e0830152610100809101511515910152565b610120810190811067ffffffffffffffff821117610d9357604052565b634e487b7160e01b600052604160045260246000fd5b67ffffffffffffffff8111610d9357604052565b90601f8019910116810190811067ffffffffffffffff821117610d9357604052565b67ffffffffffffffff8111610d935760051b60200190565b60405190610e0482610d76565b816101006000918281528260208201528260408201528260608201528260808201528260a08201528260c08201528260e08201520152565b8051821015610e505760209160051b010190565b634e487b7160e01b600052603260045260246000fd5b15610e6d57565b60405162461bcd60e51b8152602060048201526012602482015271141bdcda5d1a5bdb881b9bdd08199bdd5b9960721b6044820152606490fd5b6000546001600160a01b03163303610ebb57565b60405163118cdaa760e01b8152336004820152602490fdfea2646970667358221220b3e83fe3b4d18dddab1085903f452482959a5e35f702f2cfe6d17f6328415d5464736f6c63430008170033","opcodes":"PUSH1 0xC0 CALLVALUE PUSH2 0x1A0 JUMPI PUSH1 0x1F PUSH2 0x10D9 CODESIZE DUP2 SWAP1 SUB SWAP2 DUP3 ADD PUSH1 0x1F NOT AND DUP4 ADD SWAP3 SWAP2 SWAP1 PUSH1 0x1 PUSH1 0x1 PUSH1 0x40 SHL SUB DUP5 GT DUP4 DUP6 LT OR PUSH2 0x1A5 JUMPI DUP2 PUSH1 0x60 SWAP3 DUP5 SWAP3 PUSH1 0x40 SWAP7 DUP8 MSTORE DUP4 CODECOPY DUP2 ADD SUB SLT PUSH2 0x1A0 JUMPI PUSH2 0x4B DUP2 PUSH2 0x1BB JUMP JUMPDEST SWAP1 PUSH2 0x63 DUP4 PUSH2 0x5C PUSH1 0x20 DUP5 ADD PUSH2 0x1BB JUMP JUMPDEST SWAP3 ADD PUSH2 0x1BB JUMP JUMPDEST SWAP2 PUSH1 0x1 PUSH1 0x1 PUSH1 0xA0 SHL SUB SWAP1 DUP2 AND DUP1 ISZERO PUSH2 0x188 JUMPI PUSH1 0x0 DUP1 SLOAD PUSH1 0x1 PUSH1 0x1 PUSH1 0xA0 SHL SUB NOT DUP2 AND DUP4 OR DUP3 SSTORE DUP7 MLOAD SWAP3 SWAP2 SWAP1 DUP5 AND SWAP1 PUSH32 0x8BE0079C531659141344CD1FD0A4F28419497F9722A3DAAFE3B4186F6B6457E0 SWAP1 DUP1 LOG3 PUSH1 0x1 DUP1 SSTORE DUP2 DUP4 AND ISZERO PUSH2 0x146 JUMPI POP DUP3 AND ISZERO PUSH2 0x102 JUMPI PUSH1 0x80 MSTORE PUSH1 0xA0 MSTORE MLOAD PUSH2 0xF09 SWAP1 DUP2 PUSH2 0x1D0 DUP3 CODECOPY PUSH1 0x80 MLOAD DUP2 DUP2 DUP2 PUSH2 0x2CF ADD MSTORE DUP2 DUP2 PUSH2 0x543 ADD MSTORE PUSH2 0x872 ADD MSTORE PUSH1 0xA0 MLOAD DUP2 DUP2 DUP2 PUSH2 0x7CC ADD MSTORE PUSH2 0x8D3 ADD MSTORE RETURN JUMPDEST DUP3 MLOAD PUSH3 0x461BCD PUSH1 0xE5 SHL DUP2 MSTORE PUSH1 0x20 PUSH1 0x4 DUP3 ADD MSTORE PUSH1 0x1D PUSH1 0x24 DUP3 ADD MSTORE PUSH32 0x496E76616C696420626F6E75732072657365727665206D616E61676572000000 PUSH1 0x44 DUP3 ADD MSTORE PUSH1 0x64 SWAP1 REVERT JUMPDEST PUSH3 0x461BCD PUSH1 0xE5 SHL DUP2 MSTORE PUSH1 0x20 PUSH1 0x4 DUP3 ADD MSTORE PUSH1 0x15 PUSH1 0x24 DUP3 ADD MSTORE PUSH32 0x496E76616C6964207265636569707420746F6B656E0000000000000000000000 PUSH1 0x44 DUP3 ADD MSTORE PUSH1 0x64 SWAP1 REVERT JUMPDEST DUP5 MLOAD PUSH4 0x1E4FBDF7 PUSH1 0xE0 SHL DUP2 MSTORE PUSH1 0x0 PUSH1 0x4 DUP3 ADD MSTORE PUSH1 0x24 SWAP1 REVERT JUMPDEST PUSH1 0x0 DUP1 REVERT JUMPDEST PUSH4 0x4E487B71 PUSH1 0xE0 SHL PUSH1 0x0 MSTORE PUSH1 0x41 PUSH1 0x4 MSTORE PUSH1 0x24 PUSH1 0x0 REVERT JUMPDEST MLOAD SWAP1 PUSH1 0x1 PUSH1 0x1 PUSH1 0xA0 SHL SUB DUP3 AND DUP3 SUB PUSH2 0x1A0 JUMPI JUMP INVALID PUSH1 0x80 DUP1 PUSH1 0x40 MSTORE PUSH1 0x4 CALLDATASIZE LT ISZERO PUSH2 0x13 JUMPI PUSH1 0x0 DUP1 REVERT JUMPDEST PUSH1 0x0 SWAP1 PUSH1 0xE0 DUP3 CALLDATALOAD PUSH1 0xE0 SHR SWAP2 DUP3 PUSH4 0x1820CABB EQ PUSH2 0xCD9 JUMPI POP DUP2 PUSH4 0x2A6BC2DD EQ PUSH2 0xB23 JUMPI POP DUP1 PUSH4 0x2FEFD77F EQ PUSH2 0x7FB JUMPI DUP1 PUSH4 0x4BAEFEE9 EQ PUSH2 0x7B6 JUMPI DUP1 PUSH4 0x715018A6 EQ PUSH2 0x75C JUMPI DUP1 PUSH4 0x899346C7 EQ PUSH2 0x73E JUMPI DUP1 PUSH4 0x8DA5CB5B EQ PUSH2 0x717 JUMPI DUP1 PUSH4 0x9126314D EQ PUSH2 0x3C9 JUMPI DUP1 PUSH4 0xEB02C301 EQ PUSH2 0x2FE JUMPI DUP1 PUSH4 0xEC78E832 EQ PUSH2 0x2B9 JUMPI DUP1 PUSH4 0xEDDF7570 EQ PUSH2 0x207 JUMPI DUP1 PUSH4 0xF2FDE38B EQ PUSH2 0x177 JUMPI PUSH4 0xF48CC326 EQ PUSH2 0xB3 JUMPI PUSH1 0x0 DUP1 REVERT JUMPDEST CALLVALUE PUSH2 0x174 JUMPI PUSH1 0x20 CALLDATASIZE PUSH1 0x3 NOT ADD SLT PUSH2 0x174 JUMPI PUSH1 0x40 PUSH1 0x20 SWAP2 PUSH1 0x4 CALLDATALOAD DUP2 MSTORE PUSH1 0x2 DUP4 MSTORE KECCAK256 PUSH1 0x40 MLOAD PUSH2 0xDF DUP2 PUSH2 0xD76 JUMP JUMPDEST DUP2 SLOAD DUP2 MSTORE PUSH1 0x1 DUP1 PUSH1 0xA0 SHL SUB DUP1 PUSH1 0x1 DUP5 ADD SLOAD AND DUP5 DUP4 ADD MSTORE PUSH1 0x2 DUP4 ADD SLOAD AND PUSH1 0x40 DUP3 ADD MSTORE PUSH1 0x3 DUP3 ADD SLOAD PUSH1 0x60 DUP3 ADD MSTORE PUSH1 0x4 DUP3 ADD SLOAD PUSH1 0x80 DUP3 ADD MSTORE PUSH1 0x5 DUP3 ADD SLOAD PUSH1 0xA0 DUP3 ADD MSTORE PUSH2 0x154 PUSH2 0x100 PUSH1 0x7 PUSH1 0x6 DUP6 ADD SLOAD SWAP5 PUSH1 0xC0 DUP6 ADD SWAP6 DUP7 MSTORE ADD SLOAD SWAP3 PUSH1 0xFF PUSH1 0xE0 DUP3 ADD SWAP5 DUP2 DUP2 AND ISZERO ISZERO DUP7 MSTORE PUSH1 0x8 SHR AND ISZERO ISZERO SWAP2 DUP3 SWAP2 ADD MSTORE PUSH2 0xE66 JUMP JUMPDEST MLOAD ISZERO SWAP1 DUP2 PUSH2 0x168 JUMPI JUMPDEST POP PUSH1 0x40 MLOAD SWAP1 ISZERO ISZERO DUP2 MSTORE RETURN JUMPDEST SWAP1 POP MLOAD TIMESTAMP LT ISZERO CODESIZE PUSH2 0x15D JUMP JUMPDEST DUP1 REVERT JUMPDEST POP CALLVALUE PUSH2 0x174 JUMPI PUSH1 0x20 CALLDATASIZE PUSH1 0x3 NOT ADD SLT PUSH2 0x174 JUMPI PUSH2 0x191 PUSH2 0xCF6 JUMP JUMPDEST PUSH2 0x199 PUSH2 0xEA7 JUMP JUMPDEST PUSH1 0x1 PUSH1 0x1 PUSH1 0xA0 SHL SUB SWAP1 DUP2 AND SWAP1 DUP2 ISZERO PUSH2 0x1EE JUMPI PUSH1 0x0 SLOAD DUP3 PUSH12 0xFFFFFFFFFFFFFFFFFFFFFFFF PUSH1 0xA0 SHL DUP3 AND OR PUSH1 0x0 SSTORE AND PUSH32 0x8BE0079C531659141344CD1FD0A4F28419497F9722A3DAAFE3B4186F6B6457E0 PUSH1 0x0 DUP1 LOG3 DUP1 RETURN JUMPDEST PUSH1 0x40 MLOAD PUSH4 0x1E4FBDF7 PUSH1 0xE0 SHL DUP2 MSTORE PUSH1 0x4 DUP2 ADD DUP5 SWAP1 MSTORE PUSH1 0x24 SWAP1 REVERT JUMPDEST POP CALLVALUE PUSH2 0x174 JUMPI PUSH1 0x20 DUP1 PUSH1 0x3 NOT CALLDATASIZE ADD SLT PUSH2 0x2B5 JUMPI PUSH1 0x1 PUSH1 0x1 PUSH1 0xA0 SHL SUB PUSH2 0x22A PUSH2 0xCF6 JUMP JUMPDEST AND DUP3 MSTORE PUSH1 0x3 DUP2 MSTORE PUSH1 0x40 DUP3 KECCAK256 PUSH1 0x40 MLOAD SWAP3 DUP4 DUP4 DUP4 SLOAD SWAP2 DUP3 DUP2 MSTORE ADD SWAP1 DUP2 SWAP4 DUP4 MSTORE DUP5 DUP4 KECCAK256 SWAP1 DUP4 JUMPDEST DUP2 DUP2 LT PUSH2 0x2A1 JUMPI POP POP POP DUP5 PUSH2 0x263 SWAP2 SUB DUP6 PUSH2 0xDBD JUMP JUMPDEST PUSH1 0x40 MLOAD SWAP4 DUP4 DUP6 SWAP5 DUP6 ADD SWAP2 DUP2 DUP7 MSTORE MLOAD DUP1 SWAP3 MSTORE PUSH1 0x40 DUP6 ADD SWAP4 SWAP3 JUMPDEST DUP3 DUP2 LT PUSH2 0x28A JUMPI POP POP POP POP SUB SWAP1 RETURN JUMPDEST DUP4 MLOAD DUP6 MSTORE DUP7 SWAP6 POP SWAP4 DUP2 ADD SWAP4 SWAP3 DUP2 ADD SWAP3 PUSH1 0x1 ADD PUSH2 0x27B JUMP JUMPDEST DUP3 SLOAD DUP5 MSTORE SWAP3 DUP7 ADD SWAP3 PUSH1 0x1 SWAP3 DUP4 ADD SWAP3 ADD PUSH2 0x24D JUMP JUMPDEST POP DUP1 REVERT JUMPDEST POP CALLVALUE PUSH2 0x174 JUMPI DUP1 PUSH1 0x3 NOT CALLDATASIZE ADD SLT PUSH2 0x174 JUMPI PUSH1 0x40 MLOAD PUSH32 0x0 PUSH1 0x1 PUSH1 0x1 PUSH1 0xA0 SHL SUB AND DUP2 MSTORE PUSH1 0x20 SWAP1 RETURN JUMPDEST POP CALLVALUE PUSH2 0x174 JUMPI PUSH1 0x20 CALLDATASIZE PUSH1 0x3 NOT ADD SLT PUSH2 0x174 JUMPI PUSH1 0x40 PUSH2 0x120 SWAP2 PUSH1 0x4 CALLDATALOAD PUSH2 0x321 PUSH2 0xDF7 JUMP JUMPDEST POP DUP1 DUP3 MSTORE PUSH1 0x2 PUSH1 0x20 MSTORE PUSH2 0x33F PUSH1 0xFF PUSH1 0x7 DUP6 DUP6 KECCAK256 ADD SLOAD PUSH1 0x8 SHR AND PUSH2 0xE66 JUMP JUMPDEST DUP2 MSTORE PUSH1 0x2 PUSH1 0x20 MSTORE KECCAK256 PUSH1 0xFF PUSH1 0x7 PUSH1 0x40 MLOAD SWAP3 PUSH2 0x358 DUP5 PUSH2 0xD76 JUMP JUMPDEST DUP1 SLOAD DUP5 MSTORE PUSH1 0x1 DUP1 PUSH1 0xA0 SHL SUB DUP1 PUSH1 0x1 DUP4 ADD SLOAD AND PUSH1 0x20 DUP7 ADD MSTORE PUSH1 0x2 DUP3 ADD SLOAD AND PUSH1 0x40 DUP6 ADD MSTORE PUSH1 0x3 DUP2 ADD SLOAD PUSH1 0x60 DUP6 ADD MSTORE PUSH1 0x4 DUP2 ADD SLOAD PUSH1 0x80 DUP6 ADD MSTORE PUSH1 0x5 DUP2 ADD SLOAD PUSH1 0xA0 DUP6 ADD MSTORE PUSH1 0x6 DUP2 ADD SLOAD PUSH1 0xC0 DUP6 ADD MSTORE ADD SLOAD DUP2 DUP2 AND ISZERO ISZERO PUSH1 0xE0 DUP5 ADD MSTORE PUSH1 0x8 SHR AND ISZERO ISZERO PUSH2 0x100 DUP3 ADD MSTORE PUSH2 0x3C7 PUSH1 0x40 MLOAD DUP1 SWAP3 PUSH2 0xD11 JUMP JUMPDEST RETURN JUMPDEST POP CALLVALUE PUSH2 0x174 JUMPI PUSH1 0x60 CALLDATASIZE PUSH1 0x3 NOT ADD SLT PUSH2 0x174 JUMPI PUSH2 0x3E3 PUSH2 0xCF6 JUMP JUMPDEST PUSH1 0x44 CALLDATALOAD PUSH1 0x1 PUSH1 0x1 PUSH1 0xA0 SHL SUB DUP3 AND ISZERO PUSH2 0x6DF JUMPI PUSH1 0x24 CALLDATALOAD ISZERO PUSH2 0x6A2 JUMPI DUP1 ISZERO PUSH2 0x65D JUMPI PUSH1 0x1 SLOAD SWAP2 PUSH1 0x0 NOT DUP4 EQ PUSH2 0x649 JUMPI PUSH1 0x1 DUP4 ADD PUSH1 0x1 SSTORE PUSH3 0x278D00 TIMESTAMP ADD TIMESTAMP GT PUSH2 0x649 JUMPI DUP4 DUP4 PUSH1 0x7 PUSH1 0x40 MLOAD PUSH2 0x433 DUP2 PUSH2 0xD76 JUMP JUMPDEST DUP3 DUP2 MSTORE PUSH1 0x20 DUP2 ADD CALLER DUP2 MSTORE PUSH1 0x40 DUP3 ADD PUSH1 0x1 DUP1 PUSH1 0xA0 SHL SUB DUP8 AND DUP2 MSTORE PUSH1 0x60 DUP4 ADD PUSH1 0x24 CALLDATALOAD DUP2 MSTORE PUSH1 0x80 DUP5 ADD SWAP1 DUP10 DUP3 MSTORE PUSH1 0xA0 DUP6 ADD SWAP3 TIMESTAMP DUP5 MSTORE PUSH1 0xC0 DUP7 ADD SWAP5 PUSH3 0x278D00 TIMESTAMP ADD DUP7 MSTORE PUSH1 0x40 PUSH1 0xE0 DUP9 ADD SWAP11 DUP1 DUP13 MSTORE PUSH2 0x100 DUP10 ADD SWAP11 PUSH1 0x1 DUP13 MSTORE DUP2 MSTORE PUSH1 0x2 PUSH1 0x20 MSTORE KECCAK256 SWAP7 MLOAD DUP8 SSTORE PUSH1 0x1 DUP8 ADD SWAP1 PUSH1 0x1 DUP1 PUSH1 0xA0 SHL SUB SWAP1 MLOAD AND SWAP1 PUSH12 0xFFFFFFFFFFFFFFFFFFFFFFFF PUSH1 0xA0 SHL SWAP2 DUP3 DUP3 SLOAD AND OR SWAP1 SSTORE PUSH1 0x2 DUP8 ADD SWAP2 PUSH1 0x1 DUP1 PUSH1 0xA0 SHL SUB SWAP1 MLOAD AND SWAP1 DUP3 SLOAD AND OR SWAP1 SSTORE MLOAD PUSH1 0x3 DUP6 ADD SSTORE MLOAD PUSH1 0x4 DUP5 ADD SSTORE MLOAD PUSH1 0x5 DUP4 ADD SSTORE MLOAD PUSH1 0x6 DUP3 ADD SSTORE ADD SWAP2 MLOAD ISZERO ISZERO SWAP1 PUSH1 0xFF PUSH2 0xFF00 DUP5 SLOAD SWAP3 MLOAD ISZERO ISZERO PUSH1 0x8 SHL AND SWAP3 AND SWAP1 PUSH2 0xFFFF NOT AND OR OR SWAP1 SSTORE CALLER DUP5 MSTORE PUSH1 0x3 PUSH1 0x20 MSTORE PUSH1 0x40 DUP5 KECCAK256 DUP1 SLOAD SWAP1 PUSH9 0x10000000000000000 DUP3 LT ISZERO PUSH2 0x635 JUMPI PUSH1 0x1 DUP3 ADD DUP1 DUP3 SSTORE DUP3 LT ISZERO PUSH2 0x621 JUMPI DUP6 MSTORE PUSH1 0x20 DUP6 KECCAK256 ADD DUP4 SWAP1 SSTORE PUSH32 0x0 PUSH1 0x1 PUSH1 0x1 PUSH1 0xA0 SHL SUB AND DUP1 EXTCODESIZE ISZERO PUSH2 0x61D JUMPI PUSH1 0x40 MLOAD PUSH4 0x40C10F19 PUSH1 0xE0 SHL DUP2 MSTORE CALLER PUSH1 0x4 DUP3 ADD MSTORE PUSH1 0x24 DUP2 ADD DUP5 SWAP1 MSTORE SWAP1 DUP6 SWAP1 DUP3 SWAP1 PUSH1 0x44 SWAP1 DUP3 SWAP1 DUP5 SWAP1 GAS CALL DUP1 ISZERO PUSH2 0x612 JUMPI PUSH2 0x5FA JUMPI JUMPDEST POP PUSH1 0x20 SWAP4 POP PUSH1 0x40 MLOAD SWAP2 PUSH1 0x24 CALLDATALOAD DUP4 MSTORE DUP5 DUP4 ADD MSTORE PUSH3 0x278D00 TIMESTAMP ADD PUSH1 0x40 DUP4 ADD MSTORE PUSH1 0x1 DUP1 PUSH1 0xA0 SHL SUB AND SWAP1 DUP3 PUSH32 0xFF1FE5C3DF343B3CF49AE44FF3F1E994389F4EEA96F957F0EEBF192190C8AC8F PUSH1 0x60 CALLER SWAP4 LOG4 PUSH1 0x40 MLOAD SWAP1 DUP2 MSTORE RETURN JUMPDEST PUSH2 0x604 DUP6 SWAP2 PUSH2 0xDA9 JUMP JUMPDEST PUSH2 0x60E JUMPI DUP4 PUSH2 0x5A5 JUMP JUMPDEST DUP4 DUP1 REVERT JUMPDEST PUSH1 0x40 MLOAD RETURNDATASIZE DUP8 DUP3 RETURNDATACOPY RETURNDATASIZE SWAP1 REVERT JUMPDEST DUP5 DUP1 REVERT JUMPDEST PUSH4 0x4E487B71 PUSH1 0xE0 SHL DUP7 MSTORE PUSH1 0x32 PUSH1 0x4 MSTORE PUSH1 0x24 DUP7 REVERT JUMPDEST PUSH4 0x4E487B71 PUSH1 0xE0 SHL DUP7 MSTORE PUSH1 0x41 PUSH1 0x4 MSTORE PUSH1 0x24 DUP7 REVERT JUMPDEST PUSH4 0x4E487B71 PUSH1 0xE0 SHL DUP5 MSTORE PUSH1 0x11 PUSH1 0x4 MSTORE PUSH1 0x24 DUP5 REVERT JUMPDEST PUSH1 0x40 MLOAD PUSH3 0x461BCD PUSH1 0xE5 SHL DUP2 MSTORE PUSH1 0x20 PUSH1 0x4 DUP3 ADD MSTORE PUSH1 0x1A PUSH1 0x24 DUP3 ADD MSTORE PUSH32 0x5265636569707420616D6F756E74206D757374206265203E2030000000000000 PUSH1 0x44 DUP3 ADD MSTORE PUSH1 0x64 SWAP1 REVERT JUMPDEST PUSH1 0x40 MLOAD PUSH3 0x461BCD PUSH1 0xE5 SHL DUP2 MSTORE PUSH1 0x20 PUSH1 0x4 DUP3 ADD MSTORE PUSH1 0x15 PUSH1 0x24 DUP3 ADD MSTORE PUSH21 0x4C5020616D6F756E74206D757374206265203E203 PUSH1 0x5C SHL PUSH1 0x44 DUP3 ADD MSTORE PUSH1 0x64 SWAP1 REVERT JUMPDEST PUSH1 0x40 MLOAD PUSH3 0x461BCD PUSH1 0xE5 SHL DUP2 MSTORE PUSH1 0x20 PUSH1 0x4 DUP3 ADD MSTORE PUSH1 0x10 PUSH1 0x24 DUP3 ADD MSTORE PUSH16 0x24B73B30B634B2102628103A37B5B2B7 PUSH1 0x81 SHL PUSH1 0x44 DUP3 ADD MSTORE PUSH1 0x64 SWAP1 REVERT JUMPDEST POP CALLVALUE PUSH2 0x174 JUMPI DUP1 PUSH1 0x3 NOT CALLDATASIZE ADD SLT PUSH2 0x174 JUMPI SLOAD PUSH1 0x40 MLOAD PUSH1 0x1 PUSH1 0x1 PUSH1 0xA0 SHL SUB SWAP1 SWAP2 AND DUP2 MSTORE PUSH1 0x20 SWAP1 RETURN JUMPDEST POP CALLVALUE PUSH2 0x174 JUMPI DUP1 PUSH1 0x3 NOT CALLDATASIZE ADD SLT PUSH2 0x174 JUMPI PUSH1 0x20 PUSH1 0x1 SLOAD PUSH1 0x40 MLOAD SWAP1 DUP2 MSTORE RETURN JUMPDEST POP CALLVALUE PUSH2 0x174 JUMPI DUP1 PUSH1 0x3 NOT CALLDATASIZE ADD SLT PUSH2 0x174 JUMPI PUSH2 0x775 PUSH2 0xEA7 JUMP JUMPDEST PUSH1 0x0 DUP1 SLOAD PUSH1 0x1 PUSH1 0x1 PUSH1 0xA0 SHL SUB NOT DUP2 AND DUP3 SSTORE PUSH1 0x1 PUSH1 0x1 PUSH1 0xA0 SHL SUB AND PUSH32 0x8BE0079C531659141344CD1FD0A4F28419497F9722A3DAAFE3B4186F6B6457E0 DUP3 DUP1 LOG3 DUP1 RETURN JUMPDEST POP CALLVALUE PUSH2 0x174 JUMPI DUP1 PUSH1 0x3 NOT CALLDATASIZE ADD SLT PUSH2 0x174 JUMPI PUSH1 0x40 MLOAD PUSH32 0x0 PUSH1 0x1 PUSH1 0x1 PUSH1 0xA0 SHL SUB AND DUP2 MSTORE PUSH1 0x20 SWAP1 RETURN JUMPDEST POP CALLVALUE PUSH2 0x174 JUMPI PUSH1 0x20 SWAP1 DUP2 PUSH1 0x3 NOT CALLDATASIZE ADD SLT PUSH2 0x174 JUMPI PUSH1 0x4 CALLDATALOAD SWAP1 DUP1 SWAP2 DUP1 DUP3 MSTORE PUSH1 0x2 DUP5 MSTORE PUSH1 0x40 DUP3 KECCAK256 SWAP2 PUSH1 0x7 DUP4 ADD SWAP1 DUP2 SLOAD SWAP2 PUSH2 0x838 PUSH1 0xFF DUP5 PUSH1 0x8 SHR AND PUSH2 0xE66 JUMP JUMPDEST PUSH1 0x1 DUP6 ADD SLOAD PUSH1 0x1 PUSH1 0x1 PUSH1 0xA0 SHL SUB SWAP4 SWAP1 DUP5 AND CALLER SUB PUSH2 0xAE9 JUMPI PUSH1 0xFF DUP2 AND PUSH2 0xAB1 JUMPI PUSH1 0x6 DUP7 ADD SLOAD TIMESTAMP LT PUSH2 0xA74 JUMPI PUSH1 0xFF NOT AND PUSH1 0x1 OR SWAP1 SSTORE PUSH1 0x4 DUP5 ADD SLOAD PUSH32 0x0 DUP4 AND SWAP1 DUP2 EXTCODESIZE ISZERO PUSH2 0xA70 JUMPI PUSH1 0x40 MLOAD PUSH4 0x2770A7EB PUSH1 0xE2 SHL DUP2 MSTORE CALLER PUSH1 0x4 DUP3 ADD MSTORE PUSH1 0x24 DUP2 ADD SWAP2 SWAP1 SWAP2 MSTORE SWAP1 DUP3 SWAP1 DUP3 SWAP1 PUSH1 0x44 SWAP1 DUP3 SWAP1 DUP5 SWAP1 GAS CALL DUP1 ISZERO PUSH2 0xA65 JUMPI PUSH2 0xA56 JUMPI JUMPDEST POP DUP2 PUSH32 0x0 AND SWAP1 PUSH1 0x2 DUP6 ADD SWAP2 DUP4 DUP4 SLOAD AND SWAP1 PUSH1 0x40 MLOAD PUSH4 0x3762E31B PUSH1 0xE0 SHL DUP2 MSTORE DUP3 PUSH1 0x4 DUP3 ADD MSTORE DUP10 DUP2 PUSH1 0x24 DUP2 DUP6 GAS STATICCALL SWAP1 DUP2 ISZERO PUSH2 0xA4B JUMPI SWAP1 DUP11 SWAP4 SWAP3 SWAP2 DUP6 SWAP2 PUSH2 0xA0F JUMPI JUMPDEST POP PUSH2 0x979 JUMPI JUMPDEST POP POP POP POP SWAP1 PUSH1 0x3 SWAP2 SLOAD AND SWAP3 ADD SLOAD SWAP1 PUSH1 0x40 MLOAD SWAP2 DUP3 MSTORE DUP4 DUP6 DUP4 ADD MSTORE PUSH32 0x94E2FE61E4D6DDF34CE06D7DB9F2B0B814EA9400CBBB5B8542BC03D0B9B69A17 PUSH1 0x40 CALLER SWAP4 LOG4 PUSH1 0x40 MLOAD SWAP1 DUP2 MSTORE RETURN JUMPDEST PUSH1 0x3 DUP9 ADD SLOAD PUSH1 0x40 MLOAD PUSH4 0x6CC0BF1 PUSH1 0xE2 SHL DUP2 MSTORE PUSH1 0x1 PUSH1 0x1 PUSH1 0xA0 SHL SUB SWAP4 SWAP1 SWAP4 AND PUSH1 0x4 DUP5 ADD MSTORE PUSH1 0x64 SWAP1 DIV PUSH1 0x24 DUP4 ADD MSTORE SWAP4 SWAP8 POP SWAP2 SWAP3 DUP3 SWAP1 PUSH1 0x44 SWAP1 DUP3 SWAP1 DUP7 SWAP1 GAS CALL SWAP2 DUP3 ISZERO PUSH2 0xA03 JUMPI DUP1 SWAP3 PUSH2 0x9D2 JUMPI JUMPDEST POP SWAP1 SWAP5 SWAP1 POP PUSH1 0x3 DUP7 CODESIZE DUP1 PUSH2 0x932 JUMP JUMPDEST SWAP1 SWAP2 POP DUP7 DUP3 DUP2 RETURNDATASIZE DUP4 GT PUSH2 0x9FC JUMPI JUMPDEST PUSH2 0x9EA DUP2 DUP4 PUSH2 0xDBD JUMP JUMPDEST DUP2 ADD SUB SLT PUSH2 0x174 JUMPI POP MLOAD PUSH1 0x3 CODESIZE PUSH2 0x9C3 JUMP JUMPDEST POP RETURNDATASIZE PUSH2 0x9E0 JUMP JUMPDEST PUSH1 0x40 MLOAD SWAP1 RETURNDATASIZE SWAP1 DUP3 RETURNDATACOPY RETURNDATASIZE SWAP1 REVERT JUMPDEST DUP5 DUP2 SWAP4 SWAP5 SWAP6 SWAP3 POP RETURNDATASIZE DUP4 GT PUSH2 0xA44 JUMPI JUMPDEST PUSH2 0xA28 DUP2 DUP4 PUSH2 0xDBD JUMP JUMPDEST DUP2 ADD SUB SLT PUSH2 0x60E JUMPI MLOAD DUP1 ISZERO ISZERO DUP2 SUB PUSH2 0x60E JUMPI SWAP1 DUP10 SWAP3 SWAP2 CODESIZE PUSH2 0x92C JUMP JUMPDEST POP RETURNDATASIZE PUSH2 0xA1E JUMP JUMPDEST PUSH1 0x40 MLOAD RETURNDATASIZE DUP7 DUP3 RETURNDATACOPY RETURNDATASIZE SWAP1 REVERT JUMPDEST PUSH2 0xA5F SWAP1 PUSH2 0xDA9 JUMP JUMPDEST CODESIZE PUSH2 0x8CF JUMP JUMPDEST PUSH1 0x40 MLOAD RETURNDATASIZE DUP5 DUP3 RETURNDATACOPY RETURNDATASIZE SWAP1 REVERT JUMPDEST DUP3 DUP1 REVERT JUMPDEST PUSH1 0x40 MLOAD PUSH3 0x461BCD PUSH1 0xE5 SHL DUP2 MSTORE PUSH1 0x4 DUP2 ADD DUP10 SWAP1 MSTORE PUSH1 0x15 PUSH1 0x24 DUP3 ADD MSTORE PUSH21 0x141BDCDA5D1A5BDB881CDD1A5B1B081B1BD8DAD959 PUSH1 0x5A SHL PUSH1 0x44 DUP3 ADD MSTORE PUSH1 0x64 SWAP1 REVERT JUMPDEST PUSH1 0x40 MLOAD PUSH3 0x461BCD PUSH1 0xE5 SHL DUP2 MSTORE PUSH1 0x4 DUP2 ADD DUP10 SWAP1 MSTORE PUSH1 0x10 PUSH1 0x24 DUP3 ADD MSTORE PUSH16 0x105B1C9958591E481C995919595B5959 PUSH1 0x82 SHL PUSH1 0x44 DUP3 ADD MSTORE PUSH1 0x64 SWAP1 REVERT JUMPDEST PUSH1 0x40 MLOAD PUSH3 0x461BCD PUSH1 0xE5 SHL DUP2 MSTORE PUSH1 0x4 DUP2 ADD DUP10 SWAP1 MSTORE PUSH1 0x12 PUSH1 0x24 DUP3 ADD MSTORE PUSH18 0x2737BA103837B9B4BA34B7B71037BBB732B9 PUSH1 0x71 SHL PUSH1 0x44 DUP3 ADD MSTORE PUSH1 0x64 SWAP1 REVERT JUMPDEST DUP3 CALLVALUE PUSH2 0x174 JUMPI PUSH1 0x20 DUP1 PUSH1 0x3 NOT CALLDATASIZE ADD SLT PUSH2 0x2B5 JUMPI PUSH1 0x1 PUSH1 0x1 PUSH1 0xA0 SHL SUB SWAP3 DUP4 PUSH2 0xB48 PUSH2 0xCF6 JUMP JUMPDEST AND DUP4 MSTORE PUSH1 0x3 SWAP3 PUSH1 0x3 DUP4 MSTORE PUSH1 0x40 DUP2 KECCAK256 SWAP4 PUSH1 0x40 MLOAD DUP1 DUP7 DUP7 DUP3 SWAP9 SLOAD SWAP4 DUP5 DUP2 MSTORE ADD SWAP1 DUP6 MSTORE DUP7 DUP6 KECCAK256 SWAP3 DUP6 JUMPDEST DUP9 DUP3 DUP3 LT PUSH2 0xCC3 JUMPI POP POP POP PUSH2 0xB85 SWAP3 POP SUB DUP7 PUSH2 0xDBD JUMP JUMPDEST DUP5 MLOAD SWAP6 PUSH2 0xBAA PUSH2 0xB94 DUP9 PUSH2 0xDDF JUMP JUMPDEST SWAP8 PUSH2 0xBA2 PUSH1 0x40 MLOAD SWAP10 DUP11 PUSH2 0xDBD JUMP JUMPDEST DUP1 DUP10 MSTORE PUSH2 0xDDF JUMP JUMPDEST PUSH1 0x1F NOT ADD DUP6 DUP5 JUMPDEST DUP3 DUP2 LT PUSH2 0xCAD JUMPI POP POP POP DUP3 JUMPDEST DUP7 MLOAD DUP2 LT ISZERO PUSH2 0xC63 JUMPI DUP1 PUSH2 0xBD3 PUSH1 0x1 SWAP3 DUP10 PUSH2 0xE3C JUMP JUMPDEST MLOAD DUP6 MSTORE PUSH1 0x2 DUP1 DUP9 MSTORE PUSH1 0x7 PUSH1 0x40 DUP8 KECCAK256 DUP6 PUSH1 0x40 MLOAD SWAP4 PUSH2 0xBEF DUP6 PUSH2 0xD76 JUMP JUMPDEST DUP3 SLOAD DUP6 MSTORE DUP2 DUP8 DUP5 ADD SLOAD AND DUP13 DUP7 ADD MSTORE DUP3 ADD SLOAD AND PUSH1 0x40 DUP5 ADD MSTORE DUP7 DUP2 ADD SLOAD PUSH1 0x60 DUP5 ADD MSTORE PUSH1 0x4 DUP2 ADD SLOAD PUSH1 0x80 DUP5 ADD MSTORE PUSH1 0x5 DUP2 ADD SLOAD PUSH1 0xA0 DUP5 ADD MSTORE PUSH1 0x6 DUP2 ADD SLOAD PUSH1 0xC0 DUP5 ADD MSTORE ADD SLOAD PUSH1 0xFF SWAP1 DUP2 DUP2 AND ISZERO ISZERO DUP10 DUP5 ADD MSTORE PUSH1 0x8 SHR AND ISZERO ISZERO PUSH2 0x100 DUP3 ADD MSTORE PUSH2 0xC51 DUP3 DUP12 PUSH2 0xE3C JUMP JUMPDEST MSTORE PUSH2 0xC5C DUP2 DUP11 PUSH2 0xE3C JUMP JUMPDEST POP ADD PUSH2 0xBBD JUMP JUMPDEST PUSH1 0x40 DUP1 MLOAD DUP8 DUP2 MSTORE DUP10 MLOAD DUP2 DUP10 ADD DUP2 SWAP1 MSTORE DUP11 DUP10 ADD SWAP3 DUP3 ADD SWAP1 DUP10 DUP9 JUMPDEST DUP3 DUP2 LT PUSH2 0xC89 JUMPI DUP5 DUP5 SUB DUP6 RETURN JUMPDEST SWAP1 SWAP2 SWAP3 DUP3 PUSH2 0x120 DUP3 PUSH2 0xC9E PUSH1 0x1 SWAP5 DUP11 MLOAD PUSH2 0xD11 JUMP JUMPDEST ADD SWAP7 ADD SWAP2 ADD SWAP5 SWAP3 SWAP2 SWAP1 SWAP5 PUSH2 0xC7C JUMP JUMPDEST PUSH2 0xCB5 PUSH2 0xDF7 JUMP JUMPDEST DUP3 DUP3 DUP13 ADD ADD MSTORE ADD DUP7 SWAP1 PUSH2 0xBB1 JUMP JUMPDEST DUP6 SLOAD DUP5 MSTORE PUSH1 0x1 SWAP6 DUP7 ADD SWAP6 DUP12 SWAP6 POP SWAP4 ADD SWAP3 ADD PUSH2 0xB6E JUMP JUMPDEST DUP4 SWAP1 CALLVALUE PUSH2 0x2B5 JUMPI DUP2 PUSH1 0x3 NOT CALLDATASIZE ADD SLT PUSH2 0x2B5 JUMPI DUP1 PUSH3 0x278D00 PUSH1 0x20 SWAP3 MSTORE RETURN JUMPDEST PUSH1 0x4 CALLDATALOAD SWAP1 PUSH1 0x1 PUSH1 0x1 PUSH1 0xA0 SHL SUB DUP3 AND DUP3 SUB PUSH2 0xD0C JUMPI JUMP JUMPDEST PUSH1 0x0 DUP1 REVERT JUMPDEST DUP1 MLOAD DUP3 MSTORE PUSH1 0x20 DUP2 ADD MLOAD PUSH1 0x1 DUP1 PUSH1 0xA0 SHL SUB DUP1 SWAP2 AND PUSH1 0x20 DUP5 ADD MSTORE PUSH1 0x40 DUP3 ADD MLOAD AND PUSH1 0x40 DUP4 ADD MSTORE PUSH1 0x60 DUP2 ADD MLOAD PUSH1 0x60 DUP4 ADD MSTORE PUSH1 0x80 DUP2 ADD MLOAD PUSH1 0x80 DUP4 ADD MSTORE PUSH1 0xA0 DUP2 ADD MLOAD PUSH1 0xA0 DUP4 ADD MSTORE PUSH1 0xC0 DUP2 ADD MLOAD PUSH1 0xC0 DUP4 ADD MSTORE PUSH1 0xE0 DUP2 ADD MLOAD ISZERO ISZERO PUSH1 0xE0 DUP4 ADD MSTORE PUSH2 0x100 DUP1 SWAP2 ADD MLOAD ISZERO ISZERO SWAP2 ADD MSTORE JUMP JUMPDEST PUSH2 0x120 DUP2 ADD SWAP1 DUP2 LT PUSH8 0xFFFFFFFFFFFFFFFF DUP3 GT OR PUSH2 0xD93 JUMPI PUSH1 0x40 MSTORE JUMP JUMPDEST PUSH4 0x4E487B71 PUSH1 0xE0 SHL PUSH1 0x0 MSTORE PUSH1 0x41 PUSH1 0x4 MSTORE PUSH1 0x24 PUSH1 0x0 REVERT JUMPDEST PUSH8 0xFFFFFFFFFFFFFFFF DUP2 GT PUSH2 0xD93 JUMPI PUSH1 0x40 MSTORE JUMP JUMPDEST SWAP1 PUSH1 0x1F DUP1 NOT SWAP2 ADD AND DUP2 ADD SWAP1 DUP2 LT PUSH8 0xFFFFFFFFFFFFFFFF DUP3 GT OR PUSH2 0xD93 JUMPI PUSH1 0x40 MSTORE JUMP JUMPDEST PUSH8 0xFFFFFFFFFFFFFFFF DUP2 GT PUSH2 0xD93 JUMPI PUSH1 0x5 SHL PUSH1 0x20 ADD SWAP1 JUMP JUMPDEST PUSH1 0x40 MLOAD SWAP1 PUSH2 0xE04 DUP3 PUSH2 0xD76 JUMP JUMPDEST DUP2 PUSH2 0x100 PUSH1 0x0 SWAP2 DUP3 DUP2 MSTORE DUP3 PUSH1 0x20 DUP3 ADD MSTORE DUP3 PUSH1 0x40 DUP3 ADD MSTORE DUP3 PUSH1 0x60 DUP3 ADD MSTORE DUP3 PUSH1 0x80 DUP3 ADD MSTORE DUP3 PUSH1 0xA0 DUP3 ADD MSTORE DUP3 PUSH1 0xC0 DUP3 ADD MSTORE DUP3 PUSH1 0xE0 DUP3 ADD MSTORE ADD MSTORE JUMP JUMPDEST DUP1 MLOAD DUP3 LT ISZERO PUSH2 0xE50 JUMPI PUSH1 0x20 SWAP2 PUSH1 0x5 SHL ADD ADD SWAP1 JUMP JUMPDEST PUSH4 0x4E487B71 PUSH1 0xE0 SHL PUSH1 0x0 MSTORE PUSH1 0x32 PUSH1 0x4 MSTORE PUSH1 0x24 PUSH1 0x0 REVERT JUMPDEST ISZERO PUSH2 0xE6D JUMPI JUMP JUMPDEST PUSH1 0x40 MLOAD PUSH3 0x461BCD PUSH1 0xE5 SHL DUP2 MSTORE PUSH1 0x20 PUSH1 0x4 DUP3 ADD MSTORE PUSH1 0x12 PUSH1 0x24 DUP3 ADD MSTORE PUSH18 0x141BDCDA5D1A5BDB881B9BDD08199BDD5B99 PUSH1 0x72 SHL PUSH1 0x44 DUP3 ADD MSTORE PUSH1 0x64 SWAP1 REVERT JUMPDEST PUSH1 0x0 SLOAD PUSH1 0x1 PUSH1 0x1 PUSH1 0xA0 SHL SUB AND CALLER SUB PUSH2 0xEBB JUMPI JUMP JUMPDEST PUSH1 0x40 MLOAD PUSH4 0x118CDAA7 PUSH1 0xE0 SHL DUP2 MSTORE CALLER PUSH1 0x4 DUP3 ADD MSTORE PUSH1 0x24 SWAP1 REVERT INVALID LOG2 PUSH5 0x6970667358 0x22 SLT KECCAK256 0xB3 0xE8 EXTCODEHASH 0xE3 0xB4 0xD1 DUP14 0xDD 0xAB LT DUP6 SWAP1 EXTCODEHASH GASLIMIT 0x24 DUP3 SWAP6 SWAP11 0x5E CALLDATALOAD 0xF7 MUL CALLCODE 0xCF 0xE6 0xD1 PUSH32 0x6328415D5464736F6C6343000817003300000000000000000000000000000000 "},"methodIdentifiers":{"LOCK_PERIOD()":"1820cabb","bonusReserveManager()":"4baefee9","depositLP(address,uint256,uint256)":"9126314d","getPosition(uint256)":"eb02c301","getUserPositionIds(address)":"eddf7570","getUserPositions(address)":"2a6bc2dd","isRedeemable(uint256)":"f48cc326","nextPositionId()":"899346c7","owner()":"8da5cb5b","receiptToken()":"ec78e832","redeemPosition(uint256)":"2fefd77f","renounceOwnership()":"715018a6","transferOwnership(address)":"f2fde38b"}}}}}