{"src/PairLauncher.sol":{"PairLauncher":{"abi":[{"inputs":[{"internalType":"address","name":"initialOwner","type":"address"},{"internalType":"address","name":"factoryAddress","type":"address"},{"internalType":"address","name":"registryAddress","type":"address"},{"internalType":"address","name":"allowedBaseTokensAddress","type":"address"}],"stateMutability":"nonpayable","type":"constructor"},{"inputs":[{"internalType":"address","name":"owner","type":"address"}],"name":"OwnableInvalidOwner","type":"error"},{"inputs":[{"internalType":"address","name":"account","type":"address"}],"name":"OwnableUnauthorizedAccount","type":"error"},{"anonymous":false,"inputs":[{"indexed":true,"internalType":"address","name":"previousOwner","type":"address"},{"indexed":true,"internalType":"address","name":"newOwner","type":"address"}],"name":"OwnershipTransferred","type":"event"},{"anonymous":false,"inputs":[{"indexed":true,"internalType":"address","name":"token","type":"address"},{"indexed":true,"internalType":"address","name":"baseToken","type":"address"},{"indexed":true,"internalType":"address","name":"pair","type":"address"},{"indexed":false,"internalType":"address","name":"creator","type":"address"}],"name":"PairCreated","type":"event"},{"inputs":[],"name":"allowedBaseTokens","outputs":[{"internalType":"address","name":"","type":"address"}],"stateMutability":"view","type":"function"},{"inputs":[],"name":"factory","outputs":[{"internalType":"address","name":"","type":"address"}],"stateMutability":"view","type":"function"},{"inputs":[],"name":"getAllPairRecords","outputs":[{"components":[{"internalType":"address","name":"token","type":"address"},{"internalType":"address","name":"baseToken","type":"address"},{"internalType":"address","name":"pair","type":"address"},{"internalType":"address","name":"creator","type":"address"},{"internalType":"uint256","name":"createdAt","type":"uint256"},{"internalType":"bool","name":"exists","type":"bool"}],"internalType":"struct PairLauncher.PairRecord[]","name":"","type":"tuple[]"}],"stateMutability":"view","type":"function"},{"inputs":[{"internalType":"address","name":"token","type":"address"},{"internalType":"address","name":"baseToken","type":"address"}],"name":"getExistingPair","outputs":[{"internalType":"address","name":"","type":"address"}],"stateMutability":"view","type":"function"},{"inputs":[{"internalType":"address","name":"token","type":"address"},{"internalType":"address","name":"baseToken","type":"address"}],"name":"getPairKey","outputs":[{"internalType":"bytes32","name":"","type":"bytes32"}],"stateMutability":"pure","type":"function"},{"inputs":[{"internalType":"address","name":"token","type":"address"},{"internalType":"address","name":"baseToken","type":"address"}],"name":"getPairRecord","outputs":[{"components":[{"internalType":"address","name":"token","type":"address"},{"internalType":"address","name":"baseToken","type":"address"},{"internalType":"address","name":"pair","type":"address"},{"internalType":"address","name":"creator","type":"address"},{"internalType":"uint256","name":"createdAt","type":"uint256"},{"internalType":"bool","name":"exists","type":"bool"}],"internalType":"struct PairLauncher.PairRecord","name":"","type":"tuple"}],"stateMutability":"view","type":"function"},{"inputs":[{"internalType":"address","name":"token","type":"address"},{"internalType":"address","name":"baseToken","type":"address"}],"name":"launchPair","outputs":[{"internalType":"address","name":"pair","type":"address"}],"stateMutability":"nonpayable","type":"function"},{"inputs":[],"name":"owner","outputs":[{"internalType":"address","name":"","type":"address"}],"stateMutability":"view","type":"function"},{"inputs":[{"internalType":"address","name":"token","type":"address"},{"internalType":"address","name":"baseToken","type":"address"}],"name":"pairExists","outputs":[{"internalType":"bool","name":"","type":"bool"}],"stateMutability":"view","type":"function"},{"inputs":[],"name":"registry","outputs":[{"internalType":"address","name":"","type":"address"}],"stateMutability":"view","type":"function"},{"inputs":[],"name":"renounceOwnership","outputs":[],"stateMutability":"nonpayable","type":"function"},{"inputs":[],"name":"totalPairs","outputs":[{"internalType":"uint256","name":"","type":"uint256"}],"stateMutability":"view","type":"function"},{"inputs":[{"internalType":"address","name":"newOwner","type":"address"}],"name":"transferOwnership","outputs":[],"stateMutability":"nonpayable","type":"function"}],"evm":{"bytecode":{"linkReferences":{},"object":"60e0346101f557601f620010df38819003918201601f191683019291906001600160401b038411838510176101fa5781608092849260409687528339810103126101f55761004c81610210565b9061005960208201610210565b6100706060610069868501610210565b9301610210565b926001600160a01b0390811680156101dd57600080546001600160a01b031981168317825587519291908416907f8be0079c531659141344cd1fd0a4f28419497f9722a3daafe3b4186f6b6457e09080a3818316156101a95750808316156101725783161561012e5760805260a05260c05251610eba9081620002258239608051818181610150015281816102a3015281816105e20152610bb3015260a0518181816101c00152610509015260c0518181816105770152610b2c0152f35b835162461bcd60e51b815260206004820152601b60248201527f496e76616c696420616c6c6f776564206261736520746f6b656e7300000000006044820152606490fd5b845162461bcd60e51b815260206004820152601060248201526f496e76616c696420726567697374727960801b6044820152606490fd5b62461bcd60e51b815260206004820152600f60248201526e496e76616c696420666163746f727960881b6044820152606490fd5b8551631e4fbdf760e01b815260006004820152602490fd5b600080fd5b634e487b7160e01b600052604160045260246000fd5b51906001600160a01b03821682036101f55756fe6080604081815260048036101561001557600080fd5b600092833560e01c9081630eda70fc14610b5b5750806326c4944f14610b17578063324eb99814610a225780633bb24c9b146104be5780635d8c32a91461049f5780636335737e1461034d57806363a830601461031857806366a7bc4b1461024c578063715018a6146101ef5780637b103999146101ab5780638da5cb5b14610183578063c45a01551461013b5763f2fde38b146100b257600080fd5b34610137576020366003190112610137576100cb610c10565b906100d4610e58565b6001600160a01b0391821692831561012157505082546001600160a01b0319811683178455167f8be0079c531659141344cd1fd0a4f28419497f9722a3daafe3b4186f6b6457e08380a380f35b51631e4fbdf760e01b8152908101849052602490fd5b8280fd5b50503461017f578160031936011261017f57517f00000000000000000000000000000000000000000000000000000000000000006001600160a01b03168152602090f35b5080fd5b50503461017f578160031936011261017f57905490516001600160a01b039091168152602090f35b50503461017f578160031936011261017f57517f00000000000000000000000000000000000000000000000000000000000000006001600160a01b03168152602090f35b8334610249578060031936011261024957610208610e58565b80546001600160a01b03198116825581906001600160a01b03167f8be0079c531659141344cd1fd0a4f28419497f9722a3daafe3b4186f6b6457e08280a380f35b80fd5b5034610137578160031936011261013757610265610c10565b916020610270610c2b565b825163e6a4390560e01b81526001600160a01b0395861694810194855290851660208501529392849081906040010381857f0000000000000000000000000000000000000000000000000000000000000000165afa92831561030e57602094936102df575b5051911615158152f35b610300919350843d8611610307575b6102f88183610cb9565b810190610cdb565b91386102d5565b503d6102ee565b81513d86823e3d90fd5b50503461017f578060031936011261017f57602090610346610338610c10565b610340610c2b565b90610dbd565b9051908152f35b5091903461017f578160031936011261017f57829060029060025461037181610d91565b9261037e83519485610cb9565b81845261038a82610d91565b60209590601f1901875b818110610480575050865b8381106103f057505050508051928080850192818652845180945285019301945b8281106103cd5784840385f35b9091928260c0826103e16001948a51610c41565b019601910194929190946103c0565b806104016001929998969799610d44565b9054600391821b1c895260ff600584808a528a8c20908b519461042386610c87565b878060a01b038092818554168852840154168c870152818a840154168d870152820154166060850152868101546080850152015416151560a0820152610469828b610da9565b52610474818a610da9565b5001969493959661039f565b96809596989761048e610cfa565b82828c010152019795949697610394565b50503461017f578160031936011261017f576020906002549051908152f35b5091903461017f578060031936011261017f576104d9610c10565b916104e2610c2b565b6001600160a01b03948486169182156109ef578681169384156109b75784841461097e57877f0000000000000000000000000000000000000000000000000000000000000000169786519263c3c5a54760e01b808552868686015260209a6024958c818881855afa90811561091e578691610961575b501561092857895163babcc53960e01b81528781018a9052918c8388817f000000000000000000000000000000000000000000000000000000000000000089165afa92831561091e57908d9187946108ff575b5083156108a7575b5050501561086c57875163e6a4390560e01b81526001600160a01b03808b1687830190815290831660208201527f0000000000000000000000000000000000000000000000000000000000000000841691908c90829081906040010381855afa908115610862579084918691610845575b501661080d5788516364e329cb60e11b81526001600160a01b03808c16828901908152908416602082015290918c9183919082908890829060400103925af19081156108035790839185916107e6575b50169889156107ad576005959493929161068d91610dbd565b9485918b8a8c81519361069f85610c87565b8b8552838501918d83528386019081528160608701943386526001608089019742895260a08a019b828d528d52528a20965116926bffffffffffffffffffffffff60a01b938488541617875582600188019151168482541617905581600287019151168382541617905560038501925116908254161790555186820155019051151560ff80198354169116179055600254926801000000000000000084101561079d57505050906107598260018896959401600255610d44565b819291549060031b91821b91600019901b19161790557f528a7392e6fd550c4de9e894c55879cd7a03e87f1ac9ddafe8677a2ac1d8cf9f868551338152a451908152f35b634e487b7160e01b825260419052fd5b885162461bcd60e51b81528087018c90526014818701527314185a5c8818dc99585d1a5bdb8819985a5b195960621b6044820152606490fd5b6107fd91508c8d3d10610307576102f88183610cb9565b38610674565b89513d86823e3d90fd5b885162461bcd60e51b81528087018c9052601381870152725061697220616c72656164792065786973747360681b6044820152606490fd5b61085c91508d803d10610307576102f88183610cb9565b38610624565b8a513d87823e3d90fd5b875162461bcd60e51b81528086018b90526016818601527510985cd9481d1bdad95b881b9bdd08185b1b1bddd95960521b6044820152606490fd5b90919250868b518094819382528c8b8301525afa9081156108035784916108d2575b50388b816105b3565b6108f291508b3d8d116108f8575b6108ea8183610cb9565b810190610d2c565b386108c9565b503d6108e0565b610917919450823d84116108f8576108ea8183610cb9565b92386105ab565b8b513d88823e3d90fd5b895162461bcd60e51b81528088018d905260148188015273151bdad95b881b9bdd081c9959da5cdd195c995960621b6044820152606490fd5b61097891508d803d106108f8576108ea8183610cb9565b38610558565b855162461bcd60e51b815260208185015260136024820152724964656e746963616c2061646472657373657360681b6044820152606490fd5b855162461bcd60e51b8152602081850152601260248201527124b73b30b634b2103130b9b2903a37b5b2b760711b6044820152606490fd5b845162461bcd60e51b8152602081840152600d60248201526c24b73b30b634b2103a37b5b2b760991b6044820152606490fd5b508234610249578260031936011261024957610a56610a3f610c10565b610a47610c2b565b90610a50610cfa565b50610dbd565b808252600160205260ff600585842001541615610adc579260ff6005828460c097610ada9652600160205220835195610a8e87610c87565b81546001600160a01b039081168852600183015481166020890152600283015481168689015260038301541660608801528101546080870152015416151560a084015251918290610c41565bf35b835162461bcd60e51b8152602081850152601560248201527414185a5c881c9958dbdc99081b9bdd08199bdd5b99605a1b6044820152606490fd5b50503461017f578160031936011261017f57517f00000000000000000000000000000000000000000000000000000000000000006001600160a01b03168152602090f35b92905034610c0c5780600319360112610c0c5760208380610bae610b7d610c10565b610b85610c2b565b63e6a4390560e01b84526001600160a01b03918216978401978852811660208801529560400190565b0381857f0000000000000000000000000000000000000000000000000000000000000000165afa92831561030e5760209493610bed575b505191168152f35b610c05919350843d8611610307576102f88183610cb9565b9138610be5565b8380fd5b600435906001600160a01b0382168203610c2657565b600080fd5b602435906001600160a01b0382168203610c2657565b60a08091600180831b0380825116855280602083015116602086015280604083015116604086015260608201511660608501526080810151608085015201511515910152565b60c0810190811067ffffffffffffffff821117610ca357604052565b634e487b7160e01b600052604160045260246000fd5b90601f8019910116810190811067ffffffffffffffff821117610ca357604052565b90816020910312610c2657516001600160a01b0381168103610c265790565b60405190610d0782610c87565b8160a06000918281528260208201528260408201528260608201528260808201520152565b90816020910312610c2657518015158103610c265790565b600254811015610d7b5760026000527f405787fa12a823e0f2b7631cc41b3ba8828b3321ca811111fa75cd3aa3bb5ace0190600090565b634e487b7160e01b600052603260045260246000fd5b67ffffffffffffffff8111610ca35760051b60200190565b8051821015610d7b5760209160051b010190565b906001600160a01b038082169083161015610e2057610e1a610e0c91604051928391602083019586906028926bffffffffffffffffffffffff19809260601b16835260601b1660148201520190565b03601f198101835282610cb9565b51902090565b6040516bffffffffffffffffffffffff19606092831b8116602083019081529390921b9091166034820152610e1a8160488101610e0c565b6000546001600160a01b03163303610e6c57565b60405163118cdaa760e01b8152336004820152602490fdfea264697066735822122017e5ceddc58de222d240a448ee72f834cb8356f735f0ff48fc290260810eb33564736f6c63430008170033","opcodes":"PUSH1 0xE0 CALLVALUE PUSH2 0x1F5 JUMPI PUSH1 0x1F PUSH3 0x10DF CODESIZE DUP2 SWAP1 SUB SWAP2 DUP3 ADD PUSH1 0x1F NOT AND DUP4 ADD SWAP3 SWAP2 SWAP1 PUSH1 0x1 PUSH1 0x1 PUSH1 0x40 SHL SUB DUP5 GT DUP4 DUP6 LT OR PUSH2 0x1FA JUMPI DUP2 PUSH1 0x80 SWAP3 DUP5 SWAP3 PUSH1 0x40 SWAP7 DUP8 MSTORE DUP4 CODECOPY DUP2 ADD SUB SLT PUSH2 0x1F5 JUMPI PUSH2 0x4C DUP2 PUSH2 0x210 JUMP JUMPDEST SWAP1 PUSH2 0x59 PUSH1 0x20 DUP3 ADD PUSH2 0x210 JUMP JUMPDEST PUSH2 0x70 PUSH1 0x60 PUSH2 0x69 DUP7 DUP6 ADD PUSH2 0x210 JUMP JUMPDEST SWAP4 ADD PUSH2 0x210 JUMP JUMPDEST SWAP3 PUSH1 0x1 PUSH1 0x1 PUSH1 0xA0 SHL SUB SWAP1 DUP2 AND DUP1 ISZERO PUSH2 0x1DD JUMPI PUSH1 0x0 DUP1 SLOAD PUSH1 0x1 PUSH1 0x1 PUSH1 0xA0 SHL SUB NOT DUP2 AND DUP4 OR DUP3 SSTORE DUP8 MLOAD SWAP3 SWAP2 SWAP1 DUP5 AND SWAP1 PUSH32 0x8BE0079C531659141344CD1FD0A4F28419497F9722A3DAAFE3B4186F6B6457E0 SWAP1 DUP1 LOG3 DUP2 DUP4 AND ISZERO PUSH2 0x1A9 JUMPI POP DUP1 DUP4 AND ISZERO PUSH2 0x172 JUMPI DUP4 AND ISZERO PUSH2 0x12E JUMPI PUSH1 0x80 MSTORE PUSH1 0xA0 MSTORE PUSH1 0xC0 MSTORE MLOAD PUSH2 0xEBA SWAP1 DUP2 PUSH3 0x225 DUP3 CODECOPY PUSH1 0x80 MLOAD DUP2 DUP2 DUP2 PUSH2 0x150 ADD MSTORE DUP2 DUP2 PUSH2 0x2A3 ADD MSTORE DUP2 DUP2 PUSH2 0x5E2 ADD MSTORE PUSH2 0xBB3 ADD MSTORE PUSH1 0xA0 MLOAD DUP2 DUP2 DUP2 PUSH2 0x1C0 ADD MSTORE PUSH2 0x509 ADD MSTORE PUSH1 0xC0 MLOAD DUP2 DUP2 DUP2 PUSH2 0x577 ADD MSTORE PUSH2 0xB2C ADD MSTORE RETURN JUMPDEST DUP4 MLOAD PUSH3 0x461BCD PUSH1 0xE5 SHL DUP2 MSTORE PUSH1 0x20 PUSH1 0x4 DUP3 ADD MSTORE PUSH1 0x1B PUSH1 0x24 DUP3 ADD MSTORE PUSH32 0x496E76616C696420616C6C6F776564206261736520746F6B656E730000000000 PUSH1 0x44 DUP3 ADD MSTORE PUSH1 0x64 SWAP1 REVERT JUMPDEST DUP5 MLOAD PUSH3 0x461BCD PUSH1 0xE5 SHL DUP2 MSTORE PUSH1 0x20 PUSH1 0x4 DUP3 ADD MSTORE PUSH1 0x10 PUSH1 0x24 DUP3 ADD MSTORE PUSH16 0x496E76616C6964207265676973747279 PUSH1 0x80 SHL PUSH1 0x44 DUP3 ADD MSTORE PUSH1 0x64 SWAP1 REVERT JUMPDEST PUSH3 0x461BCD PUSH1 0xE5 SHL DUP2 MSTORE PUSH1 0x20 PUSH1 0x4 DUP3 ADD MSTORE PUSH1 0xF PUSH1 0x24 DUP3 ADD MSTORE PUSH15 0x496E76616C696420666163746F7279 PUSH1 0x88 SHL PUSH1 0x44 DUP3 ADD MSTORE PUSH1 0x64 SWAP1 REVERT JUMPDEST DUP6 MLOAD PUSH4 0x1E4FBDF7 PUSH1 0xE0 SHL DUP2 MSTORE PUSH1 0x0 PUSH1 0x4 DUP3 ADD MSTORE PUSH1 0x24 SWAP1 REVERT JUMPDEST PUSH1 0x0 DUP1 REVERT JUMPDEST PUSH4 0x4E487B71 PUSH1 0xE0 SHL PUSH1 0x0 MSTORE PUSH1 0x41 PUSH1 0x4 MSTORE PUSH1 0x24 PUSH1 0x0 REVERT JUMPDEST MLOAD SWAP1 PUSH1 0x1 PUSH1 0x1 PUSH1 0xA0 SHL SUB DUP3 AND DUP3 SUB PUSH2 0x1F5 JUMPI JUMP INVALID PUSH1 0x80 PUSH1 0x40 DUP2 DUP2 MSTORE PUSH1 0x4 DUP1 CALLDATASIZE LT ISZERO PUSH2 0x15 JUMPI PUSH1 0x0 DUP1 REVERT JUMPDEST PUSH1 0x0 SWAP3 DUP4 CALLDATALOAD PUSH1 0xE0 SHR SWAP1 DUP2 PUSH4 0xEDA70FC EQ PUSH2 0xB5B JUMPI POP DUP1 PUSH4 0x26C4944F EQ PUSH2 0xB17 JUMPI DUP1 PUSH4 0x324EB998 EQ PUSH2 0xA22 JUMPI DUP1 PUSH4 0x3BB24C9B EQ PUSH2 0x4BE JUMPI DUP1 PUSH4 0x5D8C32A9 EQ PUSH2 0x49F JUMPI DUP1 PUSH4 0x6335737E EQ PUSH2 0x34D JUMPI DUP1 PUSH4 0x63A83060 EQ PUSH2 0x318 JUMPI DUP1 PUSH4 0x66A7BC4B EQ PUSH2 0x24C JUMPI DUP1 PUSH4 0x715018A6 EQ PUSH2 0x1EF JUMPI DUP1 PUSH4 0x7B103999 EQ PUSH2 0x1AB JUMPI DUP1 PUSH4 0x8DA5CB5B EQ PUSH2 0x183 JUMPI DUP1 PUSH4 0xC45A0155 EQ PUSH2 0x13B JUMPI PUSH4 0xF2FDE38B EQ PUSH2 0xB2 JUMPI PUSH1 0x0 DUP1 REVERT JUMPDEST CALLVALUE PUSH2 0x137 JUMPI PUSH1 0x20 CALLDATASIZE PUSH1 0x3 NOT ADD SLT PUSH2 0x137 JUMPI PUSH2 0xCB PUSH2 0xC10 JUMP JUMPDEST SWAP1 PUSH2 0xD4 PUSH2 0xE58 JUMP JUMPDEST PUSH1 0x1 PUSH1 0x1 PUSH1 0xA0 SHL SUB SWAP2 DUP3 AND SWAP3 DUP4 ISZERO PUSH2 0x121 JUMPI POP POP DUP3 SLOAD PUSH1 0x1 PUSH1 0x1 PUSH1 0xA0 SHL SUB NOT DUP2 AND DUP4 OR DUP5 SSTORE AND PUSH32 0x8BE0079C531659141344CD1FD0A4F28419497F9722A3DAAFE3B4186F6B6457E0 DUP4 DUP1 LOG3 DUP1 RETURN JUMPDEST MLOAD PUSH4 0x1E4FBDF7 PUSH1 0xE0 SHL DUP2 MSTORE SWAP1 DUP2 ADD DUP5 SWAP1 MSTORE PUSH1 0x24 SWAP1 REVERT JUMPDEST DUP3 DUP1 REVERT JUMPDEST POP POP CALLVALUE PUSH2 0x17F JUMPI DUP2 PUSH1 0x3 NOT CALLDATASIZE ADD SLT PUSH2 0x17F JUMPI MLOAD PUSH32 0x0 PUSH1 0x1 PUSH1 0x1 PUSH1 0xA0 SHL SUB AND DUP2 MSTORE PUSH1 0x20 SWAP1 RETURN JUMPDEST POP DUP1 REVERT JUMPDEST POP POP CALLVALUE PUSH2 0x17F JUMPI DUP2 PUSH1 0x3 NOT CALLDATASIZE ADD SLT PUSH2 0x17F JUMPI SWAP1 SLOAD SWAP1 MLOAD PUSH1 0x1 PUSH1 0x1 PUSH1 0xA0 SHL SUB SWAP1 SWAP2 AND DUP2 MSTORE PUSH1 0x20 SWAP1 RETURN JUMPDEST POP POP CALLVALUE PUSH2 0x17F JUMPI DUP2 PUSH1 0x3 NOT CALLDATASIZE ADD SLT PUSH2 0x17F JUMPI MLOAD PUSH32 0x0 PUSH1 0x1 PUSH1 0x1 PUSH1 0xA0 SHL SUB AND DUP2 MSTORE PUSH1 0x20 SWAP1 RETURN JUMPDEST DUP4 CALLVALUE PUSH2 0x249 JUMPI DUP1 PUSH1 0x3 NOT CALLDATASIZE ADD SLT PUSH2 0x249 JUMPI PUSH2 0x208 PUSH2 0xE58 JUMP JUMPDEST DUP1 SLOAD PUSH1 0x1 PUSH1 0x1 PUSH1 0xA0 SHL SUB NOT DUP2 AND DUP3 SSTORE DUP2 SWAP1 PUSH1 0x1 PUSH1 0x1 PUSH1 0xA0 SHL SUB AND PUSH32 0x8BE0079C531659141344CD1FD0A4F28419497F9722A3DAAFE3B4186F6B6457E0 DUP3 DUP1 LOG3 DUP1 RETURN JUMPDEST DUP1 REVERT JUMPDEST POP CALLVALUE PUSH2 0x137 JUMPI DUP2 PUSH1 0x3 NOT CALLDATASIZE ADD SLT PUSH2 0x137 JUMPI PUSH2 0x265 PUSH2 0xC10 JUMP JUMPDEST SWAP2 PUSH1 0x20 PUSH2 0x270 PUSH2 0xC2B JUMP JUMPDEST DUP3 MLOAD PUSH4 0xE6A43905 PUSH1 0xE0 SHL DUP2 MSTORE PUSH1 0x1 PUSH1 0x1 PUSH1 0xA0 SHL SUB SWAP6 DUP7 AND SWAP5 DUP2 ADD SWAP5 DUP6 MSTORE SWAP1 DUP6 AND PUSH1 0x20 DUP6 ADD MSTORE SWAP4 SWAP3 DUP5 SWAP1 DUP2 SWAP1 PUSH1 0x40 ADD SUB DUP2 DUP6 PUSH32 0x0 AND GAS STATICCALL SWAP3 DUP4 ISZERO PUSH2 0x30E JUMPI PUSH1 0x20 SWAP5 SWAP4 PUSH2 0x2DF JUMPI JUMPDEST POP MLOAD SWAP2 AND ISZERO ISZERO DUP2 MSTORE RETURN JUMPDEST PUSH2 0x300 SWAP2 SWAP4 POP DUP5 RETURNDATASIZE DUP7 GT PUSH2 0x307 JUMPI JUMPDEST PUSH2 0x2F8 DUP2 DUP4 PUSH2 0xCB9 JUMP JUMPDEST DUP2 ADD SWAP1 PUSH2 0xCDB JUMP JUMPDEST SWAP2 CODESIZE PUSH2 0x2D5 JUMP JUMPDEST POP RETURNDATASIZE PUSH2 0x2EE JUMP JUMPDEST DUP2 MLOAD RETURNDATASIZE DUP7 DUP3 RETURNDATACOPY RETURNDATASIZE SWAP1 REVERT JUMPDEST POP POP CALLVALUE PUSH2 0x17F JUMPI DUP1 PUSH1 0x3 NOT CALLDATASIZE ADD SLT PUSH2 0x17F JUMPI PUSH1 0x20 SWAP1 PUSH2 0x346 PUSH2 0x338 PUSH2 0xC10 JUMP JUMPDEST PUSH2 0x340 PUSH2 0xC2B JUMP JUMPDEST SWAP1 PUSH2 0xDBD JUMP JUMPDEST SWAP1 MLOAD SWAP1 DUP2 MSTORE RETURN JUMPDEST POP SWAP2 SWAP1 CALLVALUE PUSH2 0x17F JUMPI DUP2 PUSH1 0x3 NOT CALLDATASIZE ADD SLT PUSH2 0x17F JUMPI DUP3 SWAP1 PUSH1 0x2 SWAP1 PUSH1 0x2 SLOAD PUSH2 0x371 DUP2 PUSH2 0xD91 JUMP JUMPDEST SWAP3 PUSH2 0x37E DUP4 MLOAD SWAP5 DUP6 PUSH2 0xCB9 JUMP JUMPDEST DUP2 DUP5 MSTORE PUSH2 0x38A DUP3 PUSH2 0xD91 JUMP JUMPDEST PUSH1 0x20 SWAP6 SWAP1 PUSH1 0x1F NOT ADD DUP8 JUMPDEST DUP2 DUP2 LT PUSH2 0x480 JUMPI POP POP DUP7 JUMPDEST DUP4 DUP2 LT PUSH2 0x3F0 JUMPI POP POP POP POP DUP1 MLOAD SWAP3 DUP1 DUP1 DUP6 ADD SWAP3 DUP2 DUP7 MSTORE DUP5 MLOAD DUP1 SWAP5 MSTORE DUP6 ADD SWAP4 ADD SWAP5 JUMPDEST DUP3 DUP2 LT PUSH2 0x3CD JUMPI DUP5 DUP5 SUB DUP6 RETURN JUMPDEST SWAP1 SWAP2 SWAP3 DUP3 PUSH1 0xC0 DUP3 PUSH2 0x3E1 PUSH1 0x1 SWAP5 DUP11 MLOAD PUSH2 0xC41 JUMP JUMPDEST ADD SWAP7 ADD SWAP2 ADD SWAP5 SWAP3 SWAP2 SWAP1 SWAP5 PUSH2 0x3C0 JUMP JUMPDEST DUP1 PUSH2 0x401 PUSH1 0x1 SWAP3 SWAP10 SWAP9 SWAP7 SWAP8 SWAP10 PUSH2 0xD44 JUMP JUMPDEST SWAP1 SLOAD PUSH1 0x3 SWAP2 DUP3 SHL SHR DUP10 MSTORE PUSH1 0xFF PUSH1 0x5 DUP5 DUP1 DUP11 MSTORE DUP11 DUP13 KECCAK256 SWAP1 DUP12 MLOAD SWAP5 PUSH2 0x423 DUP7 PUSH2 0xC87 JUMP JUMPDEST DUP8 DUP1 PUSH1 0xA0 SHL SUB DUP1 SWAP3 DUP2 DUP6 SLOAD AND DUP9 MSTORE DUP5 ADD SLOAD AND DUP13 DUP8 ADD MSTORE DUP2 DUP11 DUP5 ADD SLOAD AND DUP14 DUP8 ADD MSTORE DUP3 ADD SLOAD AND PUSH1 0x60 DUP6 ADD MSTORE DUP7 DUP2 ADD SLOAD PUSH1 0x80 DUP6 ADD MSTORE ADD SLOAD AND ISZERO ISZERO PUSH1 0xA0 DUP3 ADD MSTORE PUSH2 0x469 DUP3 DUP12 PUSH2 0xDA9 JUMP JUMPDEST MSTORE PUSH2 0x474 DUP2 DUP11 PUSH2 0xDA9 JUMP JUMPDEST POP ADD SWAP7 SWAP5 SWAP4 SWAP6 SWAP7 PUSH2 0x39F JUMP JUMPDEST SWAP7 DUP1 SWAP6 SWAP7 SWAP9 SWAP8 PUSH2 0x48E PUSH2 0xCFA JUMP JUMPDEST DUP3 DUP3 DUP13 ADD ADD MSTORE ADD SWAP8 SWAP6 SWAP5 SWAP7 SWAP8 PUSH2 0x394 JUMP JUMPDEST POP POP CALLVALUE PUSH2 0x17F JUMPI DUP2 PUSH1 0x3 NOT CALLDATASIZE ADD SLT PUSH2 0x17F JUMPI PUSH1 0x20 SWAP1 PUSH1 0x2 SLOAD SWAP1 MLOAD SWAP1 DUP2 MSTORE RETURN JUMPDEST POP SWAP2 SWAP1 CALLVALUE PUSH2 0x17F JUMPI DUP1 PUSH1 0x3 NOT CALLDATASIZE ADD SLT PUSH2 0x17F JUMPI PUSH2 0x4D9 PUSH2 0xC10 JUMP JUMPDEST SWAP2 PUSH2 0x4E2 PUSH2 0xC2B JUMP JUMPDEST PUSH1 0x1 PUSH1 0x1 PUSH1 0xA0 SHL SUB SWAP5 DUP5 DUP7 AND SWAP2 DUP3 ISZERO PUSH2 0x9EF JUMPI DUP7 DUP2 AND SWAP4 DUP5 ISZERO PUSH2 0x9B7 JUMPI DUP5 DUP5 EQ PUSH2 0x97E JUMPI DUP8 PUSH32 0x0 AND SWAP8 DUP7 MLOAD SWAP3 PUSH4 0xC3C5A547 PUSH1 0xE0 SHL DUP1 DUP6 MSTORE DUP7 DUP7 DUP7 ADD MSTORE PUSH1 0x20 SWAP11 PUSH1 0x24 SWAP6 DUP13 DUP2 DUP9 DUP2 DUP6 GAS STATICCALL SWAP1 DUP2 ISZERO PUSH2 0x91E JUMPI DUP7 SWAP2 PUSH2 0x961 JUMPI JUMPDEST POP ISZERO PUSH2 0x928 JUMPI DUP10 MLOAD PUSH4 0xBABCC539 PUSH1 0xE0 SHL DUP2 MSTORE DUP8 DUP2 ADD DUP11 SWAP1 MSTORE SWAP2 DUP13 DUP4 DUP9 DUP2 PUSH32 0x0 DUP10 AND GAS STATICCALL SWAP3 DUP4 ISZERO PUSH2 0x91E JUMPI SWAP1 DUP14 SWAP2 DUP8 SWAP5 PUSH2 0x8FF JUMPI JUMPDEST POP DUP4 ISZERO PUSH2 0x8A7 JUMPI JUMPDEST POP POP POP ISZERO PUSH2 0x86C JUMPI DUP8 MLOAD PUSH4 0xE6A43905 PUSH1 0xE0 SHL DUP2 MSTORE PUSH1 0x1 PUSH1 0x1 PUSH1 0xA0 SHL SUB DUP1 DUP12 AND DUP8 DUP4 ADD SWAP1 DUP2 MSTORE SWAP1 DUP4 AND PUSH1 0x20 DUP3 ADD MSTORE PUSH32 0x0 DUP5 AND SWAP2 SWAP1 DUP13 SWAP1 DUP3 SWAP1 DUP2 SWAP1 PUSH1 0x40 ADD SUB DUP2 DUP6 GAS STATICCALL SWAP1 DUP2 ISZERO PUSH2 0x862 JUMPI SWAP1 DUP5 SWAP2 DUP7 SWAP2 PUSH2 0x845 JUMPI JUMPDEST POP AND PUSH2 0x80D JUMPI DUP9 MLOAD PUSH4 0x64E329CB PUSH1 0xE1 SHL DUP2 MSTORE PUSH1 0x1 PUSH1 0x1 PUSH1 0xA0 SHL SUB DUP1 DUP13 AND DUP3 DUP10 ADD SWAP1 DUP2 MSTORE SWAP1 DUP5 AND PUSH1 0x20 DUP3 ADD MSTORE SWAP1 SWAP2 DUP13 SWAP2 DUP4 SWAP2 SWAP1 DUP3 SWAP1 DUP9 SWAP1 DUP3 SWAP1 PUSH1 0x40 ADD SUB SWAP3 GAS CALL SWAP1 DUP2 ISZERO PUSH2 0x803 JUMPI SWAP1 DUP4 SWAP2 DUP6 SWAP2 PUSH2 0x7E6 JUMPI JUMPDEST POP AND SWAP9 DUP10 ISZERO PUSH2 0x7AD JUMPI PUSH1 0x5 SWAP6 SWAP5 SWAP4 SWAP3 SWAP2 PUSH2 0x68D SWAP2 PUSH2 0xDBD JUMP JUMPDEST SWAP5 DUP6 SWAP2 DUP12 DUP11 DUP13 DUP2 MLOAD SWAP4 PUSH2 0x69F DUP6 PUSH2 0xC87 JUMP JUMPDEST DUP12 DUP6 MSTORE DUP4 DUP6 ADD SWAP2 DUP14 DUP4 MSTORE DUP4 DUP7 ADD SWAP1 DUP2 MSTORE DUP2 PUSH1 0x60 DUP8 ADD SWAP5 CALLER DUP7 MSTORE PUSH1 0x1 PUSH1 0x80 DUP10 ADD SWAP8 TIMESTAMP DUP10 MSTORE PUSH1 0xA0 DUP11 ADD SWAP12 DUP3 DUP14 MSTORE DUP14 MSTORE MSTORE DUP11 KECCAK256 SWAP7 MLOAD AND SWAP3 PUSH12 0xFFFFFFFFFFFFFFFFFFFFFFFF PUSH1 0xA0 SHL SWAP4 DUP5 DUP9 SLOAD AND OR DUP8 SSTORE DUP3 PUSH1 0x1 DUP9 ADD SWAP2 MLOAD AND DUP5 DUP3 SLOAD AND OR SWAP1 SSTORE DUP2 PUSH1 0x2 DUP8 ADD SWAP2 MLOAD AND DUP4 DUP3 SLOAD AND OR SWAP1 SSTORE PUSH1 0x3 DUP6 ADD SWAP3 MLOAD AND SWAP1 DUP3 SLOAD AND OR SWAP1 SSTORE MLOAD DUP7 DUP3 ADD SSTORE ADD SWAP1 MLOAD ISZERO ISZERO PUSH1 0xFF DUP1 NOT DUP4 SLOAD AND SWAP2 AND OR SWAP1 SSTORE PUSH1 0x2 SLOAD SWAP3 PUSH9 0x10000000000000000 DUP5 LT ISZERO PUSH2 0x79D JUMPI POP POP POP SWAP1 PUSH2 0x759 DUP3 PUSH1 0x1 DUP9 SWAP7 SWAP6 SWAP5 ADD PUSH1 0x2 SSTORE PUSH2 0xD44 JUMP JUMPDEST DUP2 SWAP3 SWAP2 SLOAD SWAP1 PUSH1 0x3 SHL SWAP2 DUP3 SHL SWAP2 PUSH1 0x0 NOT SWAP1 SHL NOT AND OR SWAP1 SSTORE PUSH32 0x528A7392E6FD550C4DE9E894C55879CD7A03E87F1AC9DDAFE8677A2AC1D8CF9F DUP7 DUP6 MLOAD CALLER DUP2 MSTORE LOG4 MLOAD SWAP1 DUP2 MSTORE RETURN JUMPDEST PUSH4 0x4E487B71 PUSH1 0xE0 SHL DUP3 MSTORE PUSH1 0x41 SWAP1 MSTORE REVERT JUMPDEST DUP9 MLOAD PUSH3 0x461BCD PUSH1 0xE5 SHL DUP2 MSTORE DUP1 DUP8 ADD DUP13 SWAP1 MSTORE PUSH1 0x14 DUP2 DUP8 ADD MSTORE PUSH20 0x14185A5C8818DC99585D1A5BDB8819985A5B1959 PUSH1 0x62 SHL PUSH1 0x44 DUP3 ADD MSTORE PUSH1 0x64 SWAP1 REVERT JUMPDEST PUSH2 0x7FD SWAP2 POP DUP13 DUP14 RETURNDATASIZE LT PUSH2 0x307 JUMPI PUSH2 0x2F8 DUP2 DUP4 PUSH2 0xCB9 JUMP JUMPDEST CODESIZE PUSH2 0x674 JUMP JUMPDEST DUP10 MLOAD RETURNDATASIZE DUP7 DUP3 RETURNDATACOPY RETURNDATASIZE SWAP1 REVERT JUMPDEST DUP9 MLOAD PUSH3 0x461BCD PUSH1 0xE5 SHL DUP2 MSTORE DUP1 DUP8 ADD DUP13 SWAP1 MSTORE PUSH1 0x13 DUP2 DUP8 ADD MSTORE PUSH19 0x5061697220616C726561647920657869737473 PUSH1 0x68 SHL PUSH1 0x44 DUP3 ADD MSTORE PUSH1 0x64 SWAP1 REVERT JUMPDEST PUSH2 0x85C SWAP2 POP DUP14 DUP1 RETURNDATASIZE LT PUSH2 0x307 JUMPI PUSH2 0x2F8 DUP2 DUP4 PUSH2 0xCB9 JUMP JUMPDEST CODESIZE PUSH2 0x624 JUMP JUMPDEST DUP11 MLOAD RETURNDATASIZE DUP8 DUP3 RETURNDATACOPY RETURNDATASIZE SWAP1 REVERT JUMPDEST DUP8 MLOAD PUSH3 0x461BCD PUSH1 0xE5 SHL DUP2 MSTORE DUP1 DUP7 ADD DUP12 SWAP1 MSTORE PUSH1 0x16 DUP2 DUP7 ADD MSTORE PUSH22 0x10985CD9481D1BDAD95B881B9BDD08185B1B1BDDD959 PUSH1 0x52 SHL PUSH1 0x44 DUP3 ADD MSTORE PUSH1 0x64 SWAP1 REVERT JUMPDEST SWAP1 SWAP2 SWAP3 POP DUP7 DUP12 MLOAD DUP1 SWAP5 DUP2 SWAP4 DUP3 MSTORE DUP13 DUP12 DUP4 ADD MSTORE GAS STATICCALL SWAP1 DUP2 ISZERO PUSH2 0x803 JUMPI DUP5 SWAP2 PUSH2 0x8D2 JUMPI JUMPDEST POP CODESIZE DUP12 DUP2 PUSH2 0x5B3 JUMP JUMPDEST PUSH2 0x8F2 SWAP2 POP DUP12 RETURNDATASIZE DUP14 GT PUSH2 0x8F8 JUMPI JUMPDEST PUSH2 0x8EA DUP2 DUP4 PUSH2 0xCB9 JUMP JUMPDEST DUP2 ADD SWAP1 PUSH2 0xD2C JUMP JUMPDEST CODESIZE PUSH2 0x8C9 JUMP JUMPDEST POP RETURNDATASIZE PUSH2 0x8E0 JUMP JUMPDEST PUSH2 0x917 SWAP2 SWAP5 POP DUP3 RETURNDATASIZE DUP5 GT PUSH2 0x8F8 JUMPI PUSH2 0x8EA DUP2 DUP4 PUSH2 0xCB9 JUMP JUMPDEST SWAP3 CODESIZE PUSH2 0x5AB JUMP JUMPDEST DUP12 MLOAD RETURNDATASIZE DUP9 DUP3 RETURNDATACOPY RETURNDATASIZE SWAP1 REVERT JUMPDEST DUP10 MLOAD PUSH3 0x461BCD PUSH1 0xE5 SHL DUP2 MSTORE DUP1 DUP9 ADD DUP14 SWAP1 MSTORE PUSH1 0x14 DUP2 DUP9 ADD MSTORE PUSH20 0x151BDAD95B881B9BDD081C9959DA5CDD195C9959 PUSH1 0x62 SHL PUSH1 0x44 DUP3 ADD MSTORE PUSH1 0x64 SWAP1 REVERT JUMPDEST PUSH2 0x978 SWAP2 POP DUP14 DUP1 RETURNDATASIZE LT PUSH2 0x8F8 JUMPI PUSH2 0x8EA DUP2 DUP4 PUSH2 0xCB9 JUMP JUMPDEST CODESIZE PUSH2 0x558 JUMP JUMPDEST DUP6 MLOAD PUSH3 0x461BCD PUSH1 0xE5 SHL DUP2 MSTORE PUSH1 0x20 DUP2 DUP6 ADD MSTORE PUSH1 0x13 PUSH1 0x24 DUP3 ADD MSTORE PUSH19 0x4964656E746963616C20616464726573736573 PUSH1 0x68 SHL PUSH1 0x44 DUP3 ADD MSTORE PUSH1 0x64 SWAP1 REVERT JUMPDEST DUP6 MLOAD PUSH3 0x461BCD PUSH1 0xE5 SHL DUP2 MSTORE PUSH1 0x20 DUP2 DUP6 ADD MSTORE PUSH1 0x12 PUSH1 0x24 DUP3 ADD MSTORE PUSH18 0x24B73B30B634B2103130B9B2903A37B5B2B7 PUSH1 0x71 SHL PUSH1 0x44 DUP3 ADD MSTORE PUSH1 0x64 SWAP1 REVERT JUMPDEST DUP5 MLOAD PUSH3 0x461BCD PUSH1 0xE5 SHL DUP2 MSTORE PUSH1 0x20 DUP2 DUP5 ADD MSTORE PUSH1 0xD PUSH1 0x24 DUP3 ADD MSTORE PUSH13 0x24B73B30B634B2103A37B5B2B7 PUSH1 0x99 SHL PUSH1 0x44 DUP3 ADD MSTORE PUSH1 0x64 SWAP1 REVERT JUMPDEST POP DUP3 CALLVALUE PUSH2 0x249 JUMPI DUP3 PUSH1 0x3 NOT CALLDATASIZE ADD SLT PUSH2 0x249 JUMPI PUSH2 0xA56 PUSH2 0xA3F PUSH2 0xC10 JUMP JUMPDEST PUSH2 0xA47 PUSH2 0xC2B JUMP JUMPDEST SWAP1 PUSH2 0xA50 PUSH2 0xCFA JUMP JUMPDEST POP PUSH2 0xDBD JUMP JUMPDEST DUP1 DUP3 MSTORE PUSH1 0x1 PUSH1 0x20 MSTORE PUSH1 0xFF PUSH1 0x5 DUP6 DUP5 KECCAK256 ADD SLOAD AND ISZERO PUSH2 0xADC JUMPI SWAP3 PUSH1 0xFF PUSH1 0x5 DUP3 DUP5 PUSH1 0xC0 SWAP8 PUSH2 0xADA SWAP7 MSTORE PUSH1 0x1 PUSH1 0x20 MSTORE KECCAK256 DUP4 MLOAD SWAP6 PUSH2 0xA8E DUP8 PUSH2 0xC87 JUMP JUMPDEST DUP2 SLOAD PUSH1 0x1 PUSH1 0x1 PUSH1 0xA0 SHL SUB SWAP1 DUP2 AND DUP9 MSTORE PUSH1 0x1 DUP4 ADD SLOAD DUP2 AND PUSH1 0x20 DUP10 ADD MSTORE PUSH1 0x2 DUP4 ADD SLOAD DUP2 AND DUP7 DUP10 ADD MSTORE PUSH1 0x3 DUP4 ADD SLOAD AND PUSH1 0x60 DUP9 ADD MSTORE DUP2 ADD SLOAD PUSH1 0x80 DUP8 ADD MSTORE ADD SLOAD AND ISZERO ISZERO PUSH1 0xA0 DUP5 ADD MSTORE MLOAD SWAP2 DUP3 SWAP1 PUSH2 0xC41 JUMP JUMPDEST RETURN JUMPDEST DUP4 MLOAD PUSH3 0x461BCD PUSH1 0xE5 SHL DUP2 MSTORE PUSH1 0x20 DUP2 DUP6 ADD MSTORE PUSH1 0x15 PUSH1 0x24 DUP3 ADD MSTORE PUSH21 0x14185A5C881C9958DBDC99081B9BDD08199BDD5B99 PUSH1 0x5A SHL PUSH1 0x44 DUP3 ADD MSTORE PUSH1 0x64 SWAP1 REVERT JUMPDEST POP POP CALLVALUE PUSH2 0x17F JUMPI DUP2 PUSH1 0x3 NOT CALLDATASIZE ADD SLT PUSH2 0x17F JUMPI MLOAD PUSH32 0x0 PUSH1 0x1 PUSH1 0x1 PUSH1 0xA0 SHL SUB AND DUP2 MSTORE PUSH1 0x20 SWAP1 RETURN JUMPDEST SWAP3 SWAP1 POP CALLVALUE PUSH2 0xC0C JUMPI DUP1 PUSH1 0x3 NOT CALLDATASIZE ADD SLT PUSH2 0xC0C JUMPI PUSH1 0x20 DUP4 DUP1 PUSH2 0xBAE PUSH2 0xB7D PUSH2 0xC10 JUMP JUMPDEST PUSH2 0xB85 PUSH2 0xC2B JUMP JUMPDEST PUSH4 0xE6A43905 PUSH1 0xE0 SHL DUP5 MSTORE PUSH1 0x1 PUSH1 0x1 PUSH1 0xA0 SHL SUB SWAP2 DUP3 AND SWAP8 DUP5 ADD SWAP8 DUP9 MSTORE DUP2 AND PUSH1 0x20 DUP9 ADD MSTORE SWAP6 PUSH1 0x40 ADD SWAP1 JUMP JUMPDEST SUB DUP2 DUP6 PUSH32 0x0 AND GAS STATICCALL SWAP3 DUP4 ISZERO PUSH2 0x30E JUMPI PUSH1 0x20 SWAP5 SWAP4 PUSH2 0xBED JUMPI JUMPDEST POP MLOAD SWAP2 AND DUP2 MSTORE RETURN JUMPDEST PUSH2 0xC05 SWAP2 SWAP4 POP DUP5 RETURNDATASIZE DUP7 GT PUSH2 0x307 JUMPI PUSH2 0x2F8 DUP2 DUP4 PUSH2 0xCB9 JUMP JUMPDEST SWAP2 CODESIZE PUSH2 0xBE5 JUMP JUMPDEST DUP4 DUP1 REVERT JUMPDEST PUSH1 0x4 CALLDATALOAD SWAP1 PUSH1 0x1 PUSH1 0x1 PUSH1 0xA0 SHL SUB DUP3 AND DUP3 SUB PUSH2 0xC26 JUMPI JUMP JUMPDEST PUSH1 0x0 DUP1 REVERT JUMPDEST PUSH1 0x24 CALLDATALOAD SWAP1 PUSH1 0x1 PUSH1 0x1 PUSH1 0xA0 SHL SUB DUP3 AND DUP3 SUB PUSH2 0xC26 JUMPI JUMP JUMPDEST PUSH1 0xA0 DUP1 SWAP2 PUSH1 0x1 DUP1 DUP4 SHL SUB DUP1 DUP3 MLOAD AND DUP6 MSTORE DUP1 PUSH1 0x20 DUP4 ADD MLOAD AND PUSH1 0x20 DUP7 ADD MSTORE DUP1 PUSH1 0x40 DUP4 ADD MLOAD AND PUSH1 0x40 DUP7 ADD MSTORE PUSH1 0x60 DUP3 ADD MLOAD AND PUSH1 0x60 DUP6 ADD MSTORE PUSH1 0x80 DUP2 ADD MLOAD PUSH1 0x80 DUP6 ADD MSTORE ADD MLOAD ISZERO ISZERO SWAP2 ADD MSTORE JUMP JUMPDEST PUSH1 0xC0 DUP2 ADD SWAP1 DUP2 LT PUSH8 0xFFFFFFFFFFFFFFFF DUP3 GT OR PUSH2 0xCA3 JUMPI PUSH1 0x40 MSTORE JUMP JUMPDEST PUSH4 0x4E487B71 PUSH1 0xE0 SHL PUSH1 0x0 MSTORE PUSH1 0x41 PUSH1 0x4 MSTORE PUSH1 0x24 PUSH1 0x0 REVERT JUMPDEST SWAP1 PUSH1 0x1F DUP1 NOT SWAP2 ADD AND DUP2 ADD SWAP1 DUP2 LT PUSH8 0xFFFFFFFFFFFFFFFF DUP3 GT OR PUSH2 0xCA3 JUMPI PUSH1 0x40 MSTORE JUMP JUMPDEST SWAP1 DUP2 PUSH1 0x20 SWAP2 SUB SLT PUSH2 0xC26 JUMPI MLOAD PUSH1 0x1 PUSH1 0x1 PUSH1 0xA0 SHL SUB DUP2 AND DUP2 SUB PUSH2 0xC26 JUMPI SWAP1 JUMP JUMPDEST PUSH1 0x40 MLOAD SWAP1 PUSH2 0xD07 DUP3 PUSH2 0xC87 JUMP JUMPDEST DUP2 PUSH1 0xA0 PUSH1 0x0 SWAP2 DUP3 DUP2 MSTORE DUP3 PUSH1 0x20 DUP3 ADD MSTORE DUP3 PUSH1 0x40 DUP3 ADD MSTORE DUP3 PUSH1 0x60 DUP3 ADD MSTORE DUP3 PUSH1 0x80 DUP3 ADD MSTORE ADD MSTORE JUMP JUMPDEST SWAP1 DUP2 PUSH1 0x20 SWAP2 SUB SLT PUSH2 0xC26 JUMPI MLOAD DUP1 ISZERO ISZERO DUP2 SUB PUSH2 0xC26 JUMPI SWAP1 JUMP JUMPDEST PUSH1 0x2 SLOAD DUP2 LT ISZERO PUSH2 0xD7B JUMPI PUSH1 0x2 PUSH1 0x0 MSTORE PUSH32 0x405787FA12A823E0F2B7631CC41B3BA8828B3321CA811111FA75CD3AA3BB5ACE ADD SWAP1 PUSH1 0x0 SWAP1 JUMP JUMPDEST PUSH4 0x4E487B71 PUSH1 0xE0 SHL PUSH1 0x0 MSTORE PUSH1 0x32 PUSH1 0x4 MSTORE PUSH1 0x24 PUSH1 0x0 REVERT JUMPDEST PUSH8 0xFFFFFFFFFFFFFFFF DUP2 GT PUSH2 0xCA3 JUMPI PUSH1 0x5 SHL PUSH1 0x20 ADD SWAP1 JUMP JUMPDEST DUP1 MLOAD DUP3 LT ISZERO PUSH2 0xD7B JUMPI PUSH1 0x20 SWAP2 PUSH1 0x5 SHL ADD ADD SWAP1 JUMP JUMPDEST SWAP1 PUSH1 0x1 PUSH1 0x1 PUSH1 0xA0 SHL SUB DUP1 DUP3 AND SWAP1 DUP4 AND LT ISZERO PUSH2 0xE20 JUMPI PUSH2 0xE1A PUSH2 0xE0C SWAP2 PUSH1 0x40 MLOAD SWAP3 DUP4 SWAP2 PUSH1 0x20 DUP4 ADD SWAP6 DUP7 SWAP1 PUSH1 0x28 SWAP3 PUSH12 0xFFFFFFFFFFFFFFFFFFFFFFFF NOT DUP1 SWAP3 PUSH1 0x60 SHL AND DUP4 MSTORE PUSH1 0x60 SHL AND PUSH1 0x14 DUP3 ADD MSTORE ADD SWAP1 JUMP JUMPDEST SUB PUSH1 0x1F NOT DUP2 ADD DUP4 MSTORE DUP3 PUSH2 0xCB9 JUMP JUMPDEST MLOAD SWAP1 KECCAK256 SWAP1 JUMP JUMPDEST PUSH1 0x40 MLOAD PUSH12 0xFFFFFFFFFFFFFFFFFFFFFFFF NOT PUSH1 0x60 SWAP3 DUP4 SHL DUP2 AND PUSH1 0x20 DUP4 ADD SWAP1 DUP2 MSTORE SWAP4 SWAP1 SWAP3 SHL SWAP1 SWAP2 AND PUSH1 0x34 DUP3 ADD MSTORE PUSH2 0xE1A DUP2 PUSH1 0x48 DUP2 ADD PUSH2 0xE0C JUMP JUMPDEST PUSH1 0x0 SLOAD PUSH1 0x1 PUSH1 0x1 PUSH1 0xA0 SHL SUB AND CALLER SUB PUSH2 0xE6C JUMPI JUMP JUMPDEST PUSH1 0x40 MLOAD PUSH4 0x118CDAA7 PUSH1 0xE0 SHL DUP2 MSTORE CALLER PUSH1 0x4 DUP3 ADD MSTORE PUSH1 0x24 SWAP1 REVERT INVALID LOG2 PUSH5 0x6970667358 0x22 SLT KECCAK256 OR 0xE5 0xCE 0xDD 0xC5 DUP14 0xE2 0x22 0xD2 BLOCKHASH LOG4 BASEFEE 0xEE PUSH19 0xF834CB8356F735F0FF48FC290260810EB33564 PUSH20 0x6F6C634300081700330000000000000000000000 "},"methodIdentifiers":{"allowedBaseTokens()":"26c4944f","factory()":"c45a0155","getAllPairRecords()":"6335737e","getExistingPair(address,address)":"0eda70fc","getPairKey(address,address)":"63a83060","getPairRecord(address,address)":"324eb998","launchPair(address,address)":"3bb24c9b","owner()":"8da5cb5b","pairExists(address,address)":"66a7bc4b","registry()":"7b103999","renounceOwnership()":"715018a6","totalPairs()":"5d8c32a9","transferOwnership(address)":"f2fde38b"}}}}}