{"src/StudentTokenRegistry.sol":{"StudentTokenRegistry":{"abi":[{"inputs":[{"internalType":"address","name":"initialOwner","type":"address"}],"stateMutability":"nonpayable","type":"constructor"},{"inputs":[{"internalType":"address","name":"owner","type":"address"}],"name":"OwnableInvalidOwner","type":"error"},{"inputs":[{"internalType":"address","name":"account","type":"address"}],"name":"OwnableUnauthorizedAccount","type":"error"},{"anonymous":false,"inputs":[{"indexed":true,"internalType":"address","name":"token","type":"address"},{"indexed":false,"internalType":"uint256","name":"newBonusReserve","type":"uint256"}],"name":"BonusReserveUpdated","type":"event"},{"anonymous":false,"inputs":[{"indexed":true,"internalType":"address","name":"token","type":"address"},{"indexed":false,"internalType":"string","name":"newDescription","type":"string"}],"name":"DescriptionUpdated","type":"event"},{"anonymous":false,"inputs":[{"indexed":true,"internalType":"address","name":"token","type":"address"},{"indexed":false,"internalType":"string","name":"newLogoUrl","type":"string"}],"name":"LogoUpdated","type":"event"},{"anonymous":false,"inputs":[{"indexed":true,"internalType":"address","name":"previousOwner","type":"address"},{"indexed":true,"internalType":"address","name":"newOwner","type":"address"}],"name":"OwnershipTransferred","type":"event"},{"anonymous":false,"inputs":[{"indexed":true,"internalType":"address","name":"token","type":"address"},{"indexed":true,"internalType":"address","name":"creator","type":"address"},{"indexed":false,"internalType":"string","name":"title","type":"string"},{"indexed":false,"internalType":"string","name":"symbol","type":"string"},{"indexed":true,"internalType":"address","name":"baseToken","type":"address"},{"indexed":false,"internalType":"bool","name":"bonusEnabled","type":"bool"},{"indexed":false,"internalType":"address","name":"rewardAsset","type":"address"},{"indexed":false,"internalType":"uint256","name":"bonusReserve","type":"uint256"}],"name":"TokenRegistered","type":"event"},{"anonymous":false,"inputs":[{"indexed":true,"internalType":"address","name":"token","type":"address"},{"indexed":false,"internalType":"enum StudentTokenRegistry.TokenStatus","name":"newStatus","type":"uint8"}],"name":"TokenStatusUpdated","type":"event"},{"inputs":[],"name":"getAllTokens","outputs":[{"components":[{"internalType":"address","name":"token","type":"address"},{"internalType":"address","name":"creator","type":"address"},{"internalType":"string","name":"title","type":"string"},{"internalType":"string","name":"symbol","type":"string"},{"internalType":"string","name":"description","type":"string"},{"internalType":"string","name":"category","type":"string"},{"internalType":"string","name":"logoUrl","type":"string"},{"internalType":"address","name":"baseToken","type":"address"},{"internalType":"bool","name":"bonusEnabled","type":"bool"},{"internalType":"address","name":"rewardAsset","type":"address"},{"internalType":"uint256","name":"bonusReserve","type":"uint256"},{"internalType":"uint256","name":"createdAt","type":"uint256"},{"internalType":"enum StudentTokenRegistry.TokenStatus","name":"status","type":"uint8"},{"internalType":"bool","name":"exists","type":"bool"}],"internalType":"struct StudentTokenRegistry.TokenRecord[]","name":"","type":"tuple[]"}],"stateMutability":"view","type":"function"},{"inputs":[{"internalType":"address","name":"token","type":"address"}],"name":"getToken","outputs":[{"components":[{"internalType":"address","name":"token","type":"address"},{"internalType":"address","name":"creator","type":"address"},{"internalType":"string","name":"title","type":"string"},{"internalType":"string","name":"symbol","type":"string"},{"internalType":"string","name":"description","type":"string"},{"internalType":"string","name":"category","type":"string"},{"internalType":"string","name":"logoUrl","type":"string"},{"internalType":"address","name":"baseToken","type":"address"},{"internalType":"bool","name":"bonusEnabled","type":"bool"},{"internalType":"address","name":"rewardAsset","type":"address"},{"internalType":"uint256","name":"bonusReserve","type":"uint256"},{"internalType":"uint256","name":"createdAt","type":"uint256"},{"internalType":"enum StudentTokenRegistry.TokenStatus","name":"status","type":"uint8"},{"internalType":"bool","name":"exists","type":"bool"}],"internalType":"struct StudentTokenRegistry.TokenRecord","name":"","type":"tuple"}],"stateMutability":"view","type":"function"},{"inputs":[],"name":"getTokenAddresses","outputs":[{"internalType":"address[]","name":"","type":"address[]"}],"stateMutability":"view","type":"function"},{"inputs":[{"internalType":"address","name":"token","type":"address"}],"name":"isRegistered","outputs":[{"internalType":"bool","name":"","type":"bool"}],"stateMutability":"view","type":"function"},{"inputs":[],"name":"owner","outputs":[{"internalType":"address","name":"","type":"address"}],"stateMutability":"view","type":"function"},{"inputs":[{"internalType":"address","name":"token","type":"address"},{"internalType":"string","name":"title","type":"string"},{"internalType":"string","name":"symbol","type":"string"},{"internalType":"string","name":"description","type":"string"},{"internalType":"string","name":"category","type":"string"},{"internalType":"string","name":"logoUrl","type":"string"},{"internalType":"address","name":"baseToken","type":"address"},{"internalType":"bool","name":"bonusEnabled","type":"bool"},{"internalType":"address","name":"rewardAsset","type":"address"},{"internalType":"uint256","name":"bonusReserve","type":"uint256"}],"name":"registerToken","outputs":[],"stateMutability":"nonpayable","type":"function"},{"inputs":[],"name":"renounceOwnership","outputs":[],"stateMutability":"nonpayable","type":"function"},{"inputs":[],"name":"totalTokens","outputs":[{"internalType":"uint256","name":"","type":"uint256"}],"stateMutability":"view","type":"function"},{"inputs":[{"internalType":"address","name":"newOwner","type":"address"}],"name":"transferOwnership","outputs":[],"stateMutability":"nonpayable","type":"function"},{"inputs":[{"internalType":"address","name":"token","type":"address"},{"internalType":"uint256","name":"newBonusReserve","type":"uint256"}],"name":"updateBonusReserve","outputs":[],"stateMutability":"nonpayable","type":"function"},{"inputs":[{"internalType":"address","name":"token","type":"address"},{"internalType":"string","name":"newDescription","type":"string"}],"name":"updateDescription","outputs":[],"stateMutability":"nonpayable","type":"function"},{"inputs":[{"internalType":"address","name":"token","type":"address"},{"internalType":"string","name":"newLogoUrl","type":"string"}],"name":"updateLogo","outputs":[],"stateMutability":"nonpayable","type":"function"},{"inputs":[{"internalType":"address","name":"token","type":"address"},{"internalType":"enum StudentTokenRegistry.TokenStatus","name":"newStatus","type":"uint8"}],"name":"updateStatus","outputs":[],"stateMutability":"nonpayable","type":"function"}],"evm":{"bytecode":{"linkReferences":{},"object":"6080346100bb57601f611a7238819003918201601f19168301916001600160401b038311848410176100c0578084926020946040528339810103126100bb57516001600160a01b0390818116908190036100bb5780156100a257600080546001600160a01b03198116831782556040519316907f8be0079c531659141344cd1fd0a4f28419497f9722a3daafe3b4186f6b6457e09080a361199b90816100d78239f35b604051631e4fbdf760e01b815260006004820152602490fd5b600080fd5b634e487b7160e01b600052604160045260246000fdfe6080604052600436101561001257600080fd5b60e060003560e01c9081632a5c792a146112435750806333497b631461111457806344c5bbf81461106c5780635977043814610f28578063714207e814610e3c578063715018a614610de35780637e1c0c0914610dc55780638bbb2cf214610c2b5780638da5cb5b14610c02578063c3c5a54714610bbd578063ee8c24b814610af5578063f2fde38b14610a675763fdc8ac67146100af57600080fd5b34610a6257610140366003190112610a62576100c961155b565b6024356001600160401b038111610a62576100e8903690600401611571565b91906044356001600160401b038111610a6257610109903690600401611571565b6064356001600160401b038111610a6257610128903690600401611571565b6084356001600160401b038111610a6257610147903690600401611571565b929060a4356001600160401b038111610a6257610168903690600401611571565b909390929060c4356001600160a01b0381169003610a625760e435151560e43503610a6257610104356001600160a01b0381169003610a62576001600160a01b038a1615610a255760c4356001600160a01b0316156109eb578a156109b557861561097e576001600160a01b038a166000908152600160205260409020600b015460081c60ff1661093957888b8b60e4356108d7575b9361026c979695936102386102209a9461025494610260986040519d8e6115e1565b6001600160a01b03168d523360208e015236916118f3565b60408b0152610248368c8e6118f3565b60608b015236916118f3565b608088015236916118f3565b60a085015236916118f3565b60c08201526001600160a01b0360c435811660e083015260e43515156101008301526101043581166101208301526101243561014083015242610160830152600161018083018190526101a0830181905286821660009081526020828152604091829020855181549086166001600160a01b0319918216178255918601519381018054949095169390911692909217909255908201518051906001600160401b0382116106655761032d8261032460028601546116fe565b60028601611864565b602090601f83116001146108655761035e929160009183610691575b50508160011b916000199060031b1c19161790565b60028201555b60608201518051906001600160401b038211610665576103948261038b60038601546116fe565b60038601611864565b602090601f83116001146107f3576103c49291600091836106915750508160011b916000199060031b1c19161790565b60038201555b60808201518051906001600160401b038211610665576103fa826103f160048601546116fe565b60048601611864565b602090601f83116001146107815761042a9291600091836106915750508160011b916000199060031b1c19161790565b60048201555b60a08201518051906001600160401b038211610665576104608261045760058601546116fe565b60058601611864565b602090601f831160011461070f576104909291600091836106915750508160011b916000199060031b1c19161790565b60058201555b60c08201518051906001600160401b038211610665576104c6826104bd60068601546116fe565b60068601611864565b602090601f831160011461069c5791806104fa92600b95946000926106915750508160011b916000199060031b1c19161790565b60068201555b60e08301516007820180546101008601516001600160a81b03199091166001600160a01b039384161790151560a01b60ff60a01b161790556101208401516008830180546001600160a01b031916919092161790556101408301516009820155610160830151600a820155610180830151910191600682101561067b5761058a6101a092846118db565b0151815461ff00191690151560081b61ff00161790556002546801000000000000000081101561066557610609936105cb8260016105fb940160025561169d565b81546001600160a01b0389811660039390931b92831b921b191617905560405160a08082529097908801916118ba565b9185830360208701526118ba565b60e435151560408401526001600160a01b03610104358116606085015261012435608085015260c4358116933393909116917fe703057de4b0ff863354c4beb4f73278b5870e70753abdae8fa12e7bc8a0d5a1919081900390a4005b634e487b7160e01b600052604160045260246000fd5b634e487b7160e01b600052602160045260246000fd5b015190503880610349565b906006840160005260206000209160005b601f19851681106106f75750918391600193600b9695601f198116106106de575b505050811b016006820155610500565b015160001960f88460031b161c191690553880806106ce565b919260206001819286850151815501940192016106ad565b9190600584016000526020600020906000935b601f1984168510610766576001945083601f1981161061074d575b505050811b016005820155610496565b015160001960f88460031b161c1916905538808061073d565b81810151835560209485019460019093019290910190610722565b9190600484016000526020600020906000935b601f19841685106107d8576001945083601f198116106107bf575b505050811b016004820155610430565b015160001960f88460031b161c191690553880806107af565b81810151835560209485019460019093019290910190610794565b9190600384016000526020600020906000935b601f198416851061084a576001945083601f19811610610831575b505050811b0160038201556103ca565b015160001960f88460031b161c19169055388080610821565b81810151835560209485019460019093019290910190610806565b9190600284016000526020600020906000935b601f19841685106108bc576001945083601f198116106108a3575b505050811b016002820155610364565b015160001960f88460031b161c19169055388080610893565b81810151835560209485019460019093019290910190610878565b5091959493915050610104356001600160a01b0316156108fc57919293888b8b6101fe565b60405162461bcd60e51b815260206004820152601560248201527414995dd85c9908185cdcd95d081c995c5d5a5c9959605a1b6044820152606490fd5b60405162461bcd60e51b815260206004820152601860248201527f546f6b656e20616c7265616479207265676973746572656400000000000000006044820152606490fd5b60405162461bcd60e51b815260206004820152600f60248201526e14de5b589bdb081c995c5d5a5c9959608a1b6044820152606490fd5b60405162461bcd60e51b815260206004820152600e60248201526d151a5d1b19481c995c5d5a5c995960921b6044820152606490fd5b60405162461bcd60e51b815260206004820152601260248201527124b73b30b634b2103130b9b2903a37b5b2b760711b6044820152606490fd5b60405162461bcd60e51b8152602060048201526015602482015274496e76616c696420746f6b656e206164647265737360581b6044820152606490fd5b600080fd5b34610a62576020366003190112610a6257610a8061155b565b610a88611939565b6001600160a01b03908116908115610adc57600054826bffffffffffffffffffffffff60a01b821617600055167f8be0079c531659141344cd1fd0a4f28419497f9722a3daafe3b4186f6b6457e0600080a3005b604051631e4fbdf760e01b815260006004820152602490fd5b34610a62576000366003190112610a6257604051806002548083526020809301809160026000527f405787fa12a823e0f2b7631cc41b3ba8828b3321ca811111fa75cd3aa3bb5ace9060005b86828210610ba0578686610b57828803836115fd565b604051928392818401908285525180915260408401929160005b828110610b8057505050500390f35b83516001600160a01b031685528695509381019392810192600101610b71565b83546001600160a01b031685529093019260019283019201610b41565b34610a62576020366003190112610a62576001600160a01b03610bde61155b565b166000526001602052602060ff600b6040600020015460081c166040519015158152f35b34610a62576000366003190112610a62576000546040516001600160a01b039091168152602090f35b34610a6257610c393661159e565b909160018060a01b0380911692836000526001600460209360018552610c88604060002091610c7160ff600b85015460081c166117e9565b806001840154163314908115610db7575b50611827565b01906001600160401b03851161066557610cac85610ca684546116fe565b84611864565b600090601f8611600114610d29575091610d1991610d0586807f37cc8c6ced0cbc4d440fcfa810a2f09f40b8f0127c3656103edf26b3d93e0ec1989796600091610d1e575b508160011b916000199060031b1c19161790565b90555b6040519383859485528401916118ba565b0390a2005b90508401358a610cf1565b90601f1986168360005285600020926000905b828210610da057505091610d199391877f37cc8c6ced0cbc4d440fcfa810a2f09f40b8f0127c3656103edf26b3d93e0ec19897969410610d86575b5050600185811b019055610d08565b830135600019600388901b60f8161c191690558780610d77565b868401358555938401939287019290870190610d3c565b905060005416331489610c82565b34610a62576000366003190112610a62576020600254604051908152f35b34610a62576000366003190112610a6257610dfc611939565b600080546001600160a01b0319811682556001600160a01b03167f8be0079c531659141344cd1fd0a4f28419497f9722a3daafe3b4186f6b6457e08280a3005b34610a62576040366003190112610a6257610e5561155b565b60243560018060a01b0380921691826000526001602052610e9e604060002091610e8860ff600b85015460081c166117e9565b806001840154163314908115610f1a5750611827565b60ff600782015460a01c1615610ee157817fd8ef46fa244d0c48b2409630dcd45fa8f002199bcd9795191b52af70ac0c1d1b9260096020930155604051908152a2005b60405162461bcd60e51b8152602060048201526011602482015270109bdb9d5cc81b9bdd08195b98589b1959607a1b6044820152606490fd5b905060005416331485610c82565b34610a6257602080600319360112610a6257610f4261155b565b90610f4b611635565b506001600160a01b0391821660008181526001835260409020600b0154610f779060081c60ff166117e9565b6000526001815260ff600b604060002060405194610f94866115e1565b8082541686528060018301541685870152610fb160028301611738565b6040870152610fc260038301611738565b6060870152610fd360048301611738565b6080870152610fe460058301611738565b60a0870152610ff560068301611738565b60c087015283600783015482811660e089015260a01c1615156101008701526008820154166101208601526009810154610140860152600a810154610160860152015461104882821661018086016117dd565b60081c1615156101a0830152611068604051928284938452830190611472565b0390f35b34610a62576040366003190112610a625761108561155b565b6024356006811015610a62576020816111047f8287b6779f9278a99c229571605874e0846f1540e272ae4c7dd16c8fa93aef079360018060a01b038096169586600052600185526110ff604060002091806001600b8501946110ed60ff875460081c166117e9565b0154163314908115610db75750611827565b6118db565b6111116040518092611465565ba2005b34610a62576111223661159e565b909160018060a01b038091169283600052600160066020936001855261115a604060002091610c7160ff600b85015460081c166117e9565b01906001600160401b0385116106655761117885610ca684546116fe565b600090601f86116001146111d0575091610d1991610d0586807f8ff1f86b995433493d3085a56c19de185e427577a205e6f1626fc92c4c33cbbf989796600091610d1e57508160011b916000199060031b1c19161790565b90601f1986168360005285600020926000905b82821061122c57505091610d199391877f8ff1f86b995433493d3085a56c19de185e427577a205e6f1626fc92c4c33cbbf9897969410610d86575050600185811b019055610d08565b8684013585559384019392870192908701906111e3565b34610a62576000366003190112610a6257600280546112618161161e565b9161126f60405193846115fd565b81835261127b8261161e565b60209490601f19018560005b82811061140f5750505060005b8381106112f957604080518781528651818901819052600092600582901b8301810191898b01918b9085015b8287106112cd5785850386f35b9091929382806112e9600193603f198a82030186528851611472565b96019201960195929190926112c0565b8061130560019261169d565b838060a01b03809254600392831b1c166000528391828a526113596040600020928260405195611334876115e1565b818654168752850154168c86015261134d898501611738565b60408601528301611738565b606084015261136a60048301611738565b6080840152600b61137d60058401611738565b9260a0938486015261139160068201611738565b60c08601526007810154938385168987015260ff9485911c16151561010086015260089283820154166101208601526009810154610140860152600a8101546101608601520154906113e983831661018086016117dd565b1c1615156101a08201526113fd82886116ea565b5261140881876116ea565b5001611294565b611417611635565b828289010152018690611287565b919082519283825260005b848110611451575050826000602080949584010152601f8019910116010190565b602081830181015184830182015201611430565b90600682101561067b5752565b906101c0916114fc6114ea6114d86114c66114b460018060a01b03978887511688528860208801511660208901526040870151908060408a0152880190611425565b60608601518782036060890152611425565b60808501518682036080880152611425565b60a084015185820360a0870152611425565b60c083015184820360c0860152611425565b928060e08301511660e084015261010080830151151590840152610120908183015116908301526101408082015190830152610160808201519083015261154c6101808083015190840190611465565b6101a080910151151591015290565b600435906001600160a01b0382168203610a6257565b9181601f84011215610a62578235916001600160401b038311610a625760208381860195010111610a6257565b906040600319830112610a62576004356001600160a01b0381168103610a625791602435906001600160401b038211610a62576115dd91600401611571565b9091565b6101c081019081106001600160401b0382111761066557604052565b90601f801991011681019081106001600160401b0382111761066557604052565b6001600160401b0381116106655760051b60200190565b60405190611642826115e1565b816101a0600091828152826020820152606080604083015280808301528060808301528060a083015260c08201528260e082015282610100820152826101208201528261014082015282610160820152826101808201520152565b6002548110156116d45760026000527f405787fa12a823e0f2b7631cc41b3ba8828b3321ca811111fa75cd3aa3bb5ace0190600090565b634e487b7160e01b600052603260045260246000fd5b80518210156116d45760209160051b010190565b90600182811c9216801561172e575b602083101461171857565b634e487b7160e01b600052602260045260246000fd5b91607f169161170d565b9060405191826000825461174b816116fe565b908184526020946001916001811690816000146117bb575060011461177c575b50505061177a925003836115fd565b565b600090815285812095935091905b8183106117a357505061177a935082010138808061176b565b8554888401850152948501948794509183019161178a565b9250505061177a94925060ff191682840152151560051b82010138808061176b565b600682101561067b5752565b156117f057565b60405162461bcd60e51b815260206004820152600f60248201526e151bdad95b881b9bdd08199bdd5b99608a1b6044820152606490fd5b1561182e57565b60405162461bcd60e51b815260206004820152600e60248201526d139bdd08185d5d1a1bdc9a5e995960921b6044820152606490fd5b90601f811161187257505050565b6000916000526020600020906020601f850160051c830194106118b0575b601f0160051c01915b8281106118a557505050565b818155600101611899565b9092508290611890565b908060209392818452848401376000828201840152601f01601f1916010190565b90600681101561067b5760ff80198354169116179055565b9291926001600160401b038211610665576040519161191c601f8201601f1916602001846115fd565b829481845281830111610a62578281602093846000960137010152565b6000546001600160a01b0316330361194d57565b60405163118cdaa760e01b8152336004820152602490fdfea26469706673582212204acdac10e466a619ae2d2adbc83a822d8b39b5bcbf08390e4963f2342e26d51964736f6c63430008170033","opcodes":"PUSH1 0x80 CALLVALUE PUSH2 0xBB JUMPI PUSH1 0x1F PUSH2 0x1A72 CODESIZE DUP2 SWAP1 SUB SWAP2 DUP3 ADD PUSH1 0x1F NOT AND DUP4 ADD SWAP2 PUSH1 0x1 PUSH1 0x1 PUSH1 0x40 SHL SUB DUP4 GT DUP5 DUP5 LT OR PUSH2 0xC0 JUMPI DUP1 DUP5 SWAP3 PUSH1 0x20 SWAP5 PUSH1 0x40 MSTORE DUP4 CODECOPY DUP2 ADD SUB SLT PUSH2 0xBB JUMPI MLOAD PUSH1 0x1 PUSH1 0x1 PUSH1 0xA0 SHL SUB SWAP1 DUP2 DUP2 AND SWAP1 DUP2 SWAP1 SUB PUSH2 0xBB JUMPI DUP1 ISZERO PUSH2 0xA2 JUMPI PUSH1 0x0 DUP1 SLOAD PUSH1 0x1 PUSH1 0x1 PUSH1 0xA0 SHL SUB NOT DUP2 AND DUP4 OR DUP3 SSTORE PUSH1 0x40 MLOAD SWAP4 AND SWAP1 PUSH32 0x8BE0079C531659141344CD1FD0A4F28419497F9722A3DAAFE3B4186F6B6457E0 SWAP1 DUP1 LOG3 PUSH2 0x199B SWAP1 DUP2 PUSH2 0xD7 DUP3 CODECOPY RETURN JUMPDEST PUSH1 0x40 MLOAD PUSH4 0x1E4FBDF7 PUSH1 0xE0 SHL DUP2 MSTORE PUSH1 0x0 PUSH1 0x4 DUP3 ADD MSTORE PUSH1 0x24 SWAP1 REVERT JUMPDEST PUSH1 0x0 DUP1 REVERT JUMPDEST PUSH4 0x4E487B71 PUSH1 0xE0 SHL PUSH1 0x0 MSTORE PUSH1 0x41 PUSH1 0x4 MSTORE PUSH1 0x24 PUSH1 0x0 REVERT INVALID PUSH1 0x80 PUSH1 0x40 MSTORE PUSH1 0x4 CALLDATASIZE LT ISZERO PUSH2 0x12 JUMPI PUSH1 0x0 DUP1 REVERT JUMPDEST PUSH1 0xE0 PUSH1 0x0 CALLDATALOAD PUSH1 0xE0 SHR SWAP1 DUP2 PUSH4 0x2A5C792A EQ PUSH2 0x1243 JUMPI POP DUP1 PUSH4 0x33497B63 EQ PUSH2 0x1114 JUMPI DUP1 PUSH4 0x44C5BBF8 EQ PUSH2 0x106C JUMPI DUP1 PUSH4 0x59770438 EQ PUSH2 0xF28 JUMPI DUP1 PUSH4 0x714207E8 EQ PUSH2 0xE3C JUMPI DUP1 PUSH4 0x715018A6 EQ PUSH2 0xDE3 JUMPI DUP1 PUSH4 0x7E1C0C09 EQ PUSH2 0xDC5 JUMPI DUP1 PUSH4 0x8BBB2CF2 EQ PUSH2 0xC2B JUMPI DUP1 PUSH4 0x8DA5CB5B EQ PUSH2 0xC02 JUMPI DUP1 PUSH4 0xC3C5A547 EQ PUSH2 0xBBD JUMPI DUP1 PUSH4 0xEE8C24B8 EQ PUSH2 0xAF5 JUMPI DUP1 PUSH4 0xF2FDE38B EQ PUSH2 0xA67 JUMPI PUSH4 0xFDC8AC67 EQ PUSH2 0xAF JUMPI PUSH1 0x0 DUP1 REVERT JUMPDEST CALLVALUE PUSH2 0xA62 JUMPI PUSH2 0x140 CALLDATASIZE PUSH1 0x3 NOT ADD SLT PUSH2 0xA62 JUMPI PUSH2 0xC9 PUSH2 0x155B JUMP JUMPDEST PUSH1 0x24 CALLDATALOAD PUSH1 0x1 PUSH1 0x1 PUSH1 0x40 SHL SUB DUP2 GT PUSH2 0xA62 JUMPI PUSH2 0xE8 SWAP1 CALLDATASIZE SWAP1 PUSH1 0x4 ADD PUSH2 0x1571 JUMP JUMPDEST SWAP2 SWAP1 PUSH1 0x44 CALLDATALOAD PUSH1 0x1 PUSH1 0x1 PUSH1 0x40 SHL SUB DUP2 GT PUSH2 0xA62 JUMPI PUSH2 0x109 SWAP1 CALLDATASIZE SWAP1 PUSH1 0x4 ADD PUSH2 0x1571 JUMP JUMPDEST PUSH1 0x64 CALLDATALOAD PUSH1 0x1 PUSH1 0x1 PUSH1 0x40 SHL SUB DUP2 GT PUSH2 0xA62 JUMPI PUSH2 0x128 SWAP1 CALLDATASIZE SWAP1 PUSH1 0x4 ADD PUSH2 0x1571 JUMP JUMPDEST PUSH1 0x84 CALLDATALOAD PUSH1 0x1 PUSH1 0x1 PUSH1 0x40 SHL SUB DUP2 GT PUSH2 0xA62 JUMPI PUSH2 0x147 SWAP1 CALLDATASIZE SWAP1 PUSH1 0x4 ADD PUSH2 0x1571 JUMP JUMPDEST SWAP3 SWAP1 PUSH1 0xA4 CALLDATALOAD PUSH1 0x1 PUSH1 0x1 PUSH1 0x40 SHL SUB DUP2 GT PUSH2 0xA62 JUMPI PUSH2 0x168 SWAP1 CALLDATASIZE SWAP1 PUSH1 0x4 ADD PUSH2 0x1571 JUMP JUMPDEST SWAP1 SWAP4 SWAP1 SWAP3 SWAP1 PUSH1 0xC4 CALLDATALOAD PUSH1 0x1 PUSH1 0x1 PUSH1 0xA0 SHL SUB DUP2 AND SWAP1 SUB PUSH2 0xA62 JUMPI PUSH1 0xE4 CALLDATALOAD ISZERO ISZERO PUSH1 0xE4 CALLDATALOAD SUB PUSH2 0xA62 JUMPI PUSH2 0x104 CALLDATALOAD PUSH1 0x1 PUSH1 0x1 PUSH1 0xA0 SHL SUB DUP2 AND SWAP1 SUB PUSH2 0xA62 JUMPI PUSH1 0x1 PUSH1 0x1 PUSH1 0xA0 SHL SUB DUP11 AND ISZERO PUSH2 0xA25 JUMPI PUSH1 0xC4 CALLDATALOAD PUSH1 0x1 PUSH1 0x1 PUSH1 0xA0 SHL SUB AND ISZERO PUSH2 0x9EB JUMPI DUP11 ISZERO PUSH2 0x9B5 JUMPI DUP7 ISZERO PUSH2 0x97E JUMPI PUSH1 0x1 PUSH1 0x1 PUSH1 0xA0 SHL SUB DUP11 AND PUSH1 0x0 SWAP1 DUP2 MSTORE PUSH1 0x1 PUSH1 0x20 MSTORE PUSH1 0x40 SWAP1 KECCAK256 PUSH1 0xB ADD SLOAD PUSH1 0x8 SHR PUSH1 0xFF AND PUSH2 0x939 JUMPI DUP9 DUP12 DUP12 PUSH1 0xE4 CALLDATALOAD PUSH2 0x8D7 JUMPI JUMPDEST SWAP4 PUSH2 0x26C SWAP8 SWAP7 SWAP6 SWAP4 PUSH2 0x238 PUSH2 0x220 SWAP11 SWAP5 PUSH2 0x254 SWAP5 PUSH2 0x260 SWAP9 PUSH1 0x40 MLOAD SWAP14 DUP15 PUSH2 0x15E1 JUMP JUMPDEST PUSH1 0x1 PUSH1 0x1 PUSH1 0xA0 SHL SUB AND DUP14 MSTORE CALLER PUSH1 0x20 DUP15 ADD MSTORE CALLDATASIZE SWAP2 PUSH2 0x18F3 JUMP JUMPDEST PUSH1 0x40 DUP12 ADD MSTORE PUSH2 0x248 CALLDATASIZE DUP13 DUP15 PUSH2 0x18F3 JUMP JUMPDEST PUSH1 0x60 DUP12 ADD MSTORE CALLDATASIZE SWAP2 PUSH2 0x18F3 JUMP JUMPDEST PUSH1 0x80 DUP9 ADD MSTORE CALLDATASIZE SWAP2 PUSH2 0x18F3 JUMP JUMPDEST PUSH1 0xA0 DUP6 ADD MSTORE CALLDATASIZE SWAP2 PUSH2 0x18F3 JUMP JUMPDEST PUSH1 0xC0 DUP3 ADD MSTORE PUSH1 0x1 PUSH1 0x1 PUSH1 0xA0 SHL SUB PUSH1 0xC4 CALLDATALOAD DUP2 AND PUSH1 0xE0 DUP4 ADD MSTORE PUSH1 0xE4 CALLDATALOAD ISZERO ISZERO PUSH2 0x100 DUP4 ADD MSTORE PUSH2 0x104 CALLDATALOAD DUP2 AND PUSH2 0x120 DUP4 ADD MSTORE PUSH2 0x124 CALLDATALOAD PUSH2 0x140 DUP4 ADD MSTORE TIMESTAMP PUSH2 0x160 DUP4 ADD MSTORE PUSH1 0x1 PUSH2 0x180 DUP4 ADD DUP2 SWAP1 MSTORE PUSH2 0x1A0 DUP4 ADD DUP2 SWAP1 MSTORE DUP7 DUP3 AND PUSH1 0x0 SWAP1 DUP2 MSTORE PUSH1 0x20 DUP3 DUP2 MSTORE PUSH1 0x40 SWAP2 DUP3 SWAP1 KECCAK256 DUP6 MLOAD DUP2 SLOAD SWAP1 DUP7 AND PUSH1 0x1 PUSH1 0x1 PUSH1 0xA0 SHL SUB NOT SWAP2 DUP3 AND OR DUP3 SSTORE SWAP2 DUP7 ADD MLOAD SWAP4 DUP2 ADD DUP1 SLOAD SWAP5 SWAP1 SWAP6 AND SWAP4 SWAP1 SWAP2 AND SWAP3 SWAP1 SWAP3 OR SWAP1 SWAP3 SSTORE SWAP1 DUP3 ADD MLOAD DUP1 MLOAD SWAP1 PUSH1 0x1 PUSH1 0x1 PUSH1 0x40 SHL SUB DUP3 GT PUSH2 0x665 JUMPI PUSH2 0x32D DUP3 PUSH2 0x324 PUSH1 0x2 DUP7 ADD SLOAD PUSH2 0x16FE JUMP JUMPDEST PUSH1 0x2 DUP7 ADD PUSH2 0x1864 JUMP JUMPDEST PUSH1 0x20 SWAP1 PUSH1 0x1F DUP4 GT PUSH1 0x1 EQ PUSH2 0x865 JUMPI PUSH2 0x35E SWAP3 SWAP2 PUSH1 0x0 SWAP2 DUP4 PUSH2 0x691 JUMPI JUMPDEST POP POP DUP2 PUSH1 0x1 SHL SWAP2 PUSH1 0x0 NOT SWAP1 PUSH1 0x3 SHL SHR NOT AND OR SWAP1 JUMP JUMPDEST PUSH1 0x2 DUP3 ADD SSTORE JUMPDEST PUSH1 0x60 DUP3 ADD MLOAD DUP1 MLOAD SWAP1 PUSH1 0x1 PUSH1 0x1 PUSH1 0x40 SHL SUB DUP3 GT PUSH2 0x665 JUMPI PUSH2 0x394 DUP3 PUSH2 0x38B PUSH1 0x3 DUP7 ADD SLOAD PUSH2 0x16FE JUMP JUMPDEST PUSH1 0x3 DUP7 ADD PUSH2 0x1864 JUMP JUMPDEST PUSH1 0x20 SWAP1 PUSH1 0x1F DUP4 GT PUSH1 0x1 EQ PUSH2 0x7F3 JUMPI PUSH2 0x3C4 SWAP3 SWAP2 PUSH1 0x0 SWAP2 DUP4 PUSH2 0x691 JUMPI POP POP DUP2 PUSH1 0x1 SHL SWAP2 PUSH1 0x0 NOT SWAP1 PUSH1 0x3 SHL SHR NOT AND OR SWAP1 JUMP JUMPDEST PUSH1 0x3 DUP3 ADD SSTORE JUMPDEST PUSH1 0x80 DUP3 ADD MLOAD DUP1 MLOAD SWAP1 PUSH1 0x1 PUSH1 0x1 PUSH1 0x40 SHL SUB DUP3 GT PUSH2 0x665 JUMPI PUSH2 0x3FA DUP3 PUSH2 0x3F1 PUSH1 0x4 DUP7 ADD SLOAD PUSH2 0x16FE JUMP JUMPDEST PUSH1 0x4 DUP7 ADD PUSH2 0x1864 JUMP JUMPDEST PUSH1 0x20 SWAP1 PUSH1 0x1F DUP4 GT PUSH1 0x1 EQ PUSH2 0x781 JUMPI PUSH2 0x42A SWAP3 SWAP2 PUSH1 0x0 SWAP2 DUP4 PUSH2 0x691 JUMPI POP POP DUP2 PUSH1 0x1 SHL SWAP2 PUSH1 0x0 NOT SWAP1 PUSH1 0x3 SHL SHR NOT AND OR SWAP1 JUMP JUMPDEST PUSH1 0x4 DUP3 ADD SSTORE JUMPDEST PUSH1 0xA0 DUP3 ADD MLOAD DUP1 MLOAD SWAP1 PUSH1 0x1 PUSH1 0x1 PUSH1 0x40 SHL SUB DUP3 GT PUSH2 0x665 JUMPI PUSH2 0x460 DUP3 PUSH2 0x457 PUSH1 0x5 DUP7 ADD SLOAD PUSH2 0x16FE JUMP JUMPDEST PUSH1 0x5 DUP7 ADD PUSH2 0x1864 JUMP JUMPDEST PUSH1 0x20 SWAP1 PUSH1 0x1F DUP4 GT PUSH1 0x1 EQ PUSH2 0x70F JUMPI PUSH2 0x490 SWAP3 SWAP2 PUSH1 0x0 SWAP2 DUP4 PUSH2 0x691 JUMPI POP POP DUP2 PUSH1 0x1 SHL SWAP2 PUSH1 0x0 NOT SWAP1 PUSH1 0x3 SHL SHR NOT AND OR SWAP1 JUMP JUMPDEST PUSH1 0x5 DUP3 ADD SSTORE JUMPDEST PUSH1 0xC0 DUP3 ADD MLOAD DUP1 MLOAD SWAP1 PUSH1 0x1 PUSH1 0x1 PUSH1 0x40 SHL SUB DUP3 GT PUSH2 0x665 JUMPI PUSH2 0x4C6 DUP3 PUSH2 0x4BD PUSH1 0x6 DUP7 ADD SLOAD PUSH2 0x16FE JUMP JUMPDEST PUSH1 0x6 DUP7 ADD PUSH2 0x1864 JUMP JUMPDEST PUSH1 0x20 SWAP1 PUSH1 0x1F DUP4 GT PUSH1 0x1 EQ PUSH2 0x69C JUMPI SWAP2 DUP1 PUSH2 0x4FA SWAP3 PUSH1 0xB SWAP6 SWAP5 PUSH1 0x0 SWAP3 PUSH2 0x691 JUMPI POP POP DUP2 PUSH1 0x1 SHL SWAP2 PUSH1 0x0 NOT SWAP1 PUSH1 0x3 SHL SHR NOT AND OR SWAP1 JUMP JUMPDEST PUSH1 0x6 DUP3 ADD SSTORE JUMPDEST PUSH1 0xE0 DUP4 ADD MLOAD PUSH1 0x7 DUP3 ADD DUP1 SLOAD PUSH2 0x100 DUP7 ADD MLOAD PUSH1 0x1 PUSH1 0x1 PUSH1 0xA8 SHL SUB NOT SWAP1 SWAP2 AND PUSH1 0x1 PUSH1 0x1 PUSH1 0xA0 SHL SUB SWAP4 DUP5 AND OR SWAP1 ISZERO ISZERO PUSH1 0xA0 SHL PUSH1 0xFF PUSH1 0xA0 SHL AND OR SWAP1 SSTORE PUSH2 0x120 DUP5 ADD MLOAD PUSH1 0x8 DUP4 ADD DUP1 SLOAD PUSH1 0x1 PUSH1 0x1 PUSH1 0xA0 SHL SUB NOT AND SWAP2 SWAP1 SWAP3 AND OR SWAP1 SSTORE PUSH2 0x140 DUP4 ADD MLOAD PUSH1 0x9 DUP3 ADD SSTORE PUSH2 0x160 DUP4 ADD MLOAD PUSH1 0xA DUP3 ADD SSTORE PUSH2 0x180 DUP4 ADD MLOAD SWAP2 ADD SWAP2 PUSH1 0x6 DUP3 LT ISZERO PUSH2 0x67B JUMPI PUSH2 0x58A PUSH2 0x1A0 SWAP3 DUP5 PUSH2 0x18DB JUMP JUMPDEST ADD MLOAD DUP2 SLOAD PUSH2 0xFF00 NOT AND SWAP1 ISZERO ISZERO PUSH1 0x8 SHL PUSH2 0xFF00 AND OR SWAP1 SSTORE PUSH1 0x2 SLOAD PUSH9 0x10000000000000000 DUP2 LT ISZERO PUSH2 0x665 JUMPI PUSH2 0x609 SWAP4 PUSH2 0x5CB DUP3 PUSH1 0x1 PUSH2 0x5FB SWAP5 ADD PUSH1 0x2 SSTORE PUSH2 0x169D JUMP JUMPDEST DUP2 SLOAD PUSH1 0x1 PUSH1 0x1 PUSH1 0xA0 SHL SUB DUP10 DUP2 AND PUSH1 0x3 SWAP4 SWAP1 SWAP4 SHL SWAP3 DUP4 SHL SWAP3 SHL NOT AND OR SWAP1 SSTORE PUSH1 0x40 MLOAD PUSH1 0xA0 DUP1 DUP3 MSTORE SWAP1 SWAP8 SWAP1 DUP9 ADD SWAP2 PUSH2 0x18BA JUMP JUMPDEST SWAP2 DUP6 DUP4 SUB PUSH1 0x20 DUP8 ADD MSTORE PUSH2 0x18BA JUMP JUMPDEST PUSH1 0xE4 CALLDATALOAD ISZERO ISZERO PUSH1 0x40 DUP5 ADD MSTORE PUSH1 0x1 PUSH1 0x1 PUSH1 0xA0 SHL SUB PUSH2 0x104 CALLDATALOAD DUP2 AND PUSH1 0x60 DUP6 ADD MSTORE PUSH2 0x124 CALLDATALOAD PUSH1 0x80 DUP6 ADD MSTORE PUSH1 0xC4 CALLDATALOAD DUP2 AND SWAP4 CALLER SWAP4 SWAP1 SWAP2 AND SWAP2 PUSH32 0xE703057DE4B0FF863354C4BEB4F73278B5870E70753ABDAE8FA12E7BC8A0D5A1 SWAP2 SWAP1 DUP2 SWAP1 SUB SWAP1 LOG4 STOP JUMPDEST PUSH4 0x4E487B71 PUSH1 0xE0 SHL PUSH1 0x0 MSTORE PUSH1 0x41 PUSH1 0x4 MSTORE PUSH1 0x24 PUSH1 0x0 REVERT JUMPDEST PUSH4 0x4E487B71 PUSH1 0xE0 SHL PUSH1 0x0 MSTORE PUSH1 0x21 PUSH1 0x4 MSTORE PUSH1 0x24 PUSH1 0x0 REVERT JUMPDEST ADD MLOAD SWAP1 POP CODESIZE DUP1 PUSH2 0x349 JUMP JUMPDEST SWAP1 PUSH1 0x6 DUP5 ADD PUSH1 0x0 MSTORE PUSH1 0x20 PUSH1 0x0 KECCAK256 SWAP2 PUSH1 0x0 JUMPDEST PUSH1 0x1F NOT DUP6 AND DUP2 LT PUSH2 0x6F7 JUMPI POP SWAP2 DUP4 SWAP2 PUSH1 0x1 SWAP4 PUSH1 0xB SWAP7 SWAP6 PUSH1 0x1F NOT DUP2 AND LT PUSH2 0x6DE JUMPI JUMPDEST POP POP POP DUP2 SHL ADD PUSH1 0x6 DUP3 ADD SSTORE PUSH2 0x500 JUMP JUMPDEST ADD MLOAD PUSH1 0x0 NOT PUSH1 0xF8 DUP5 PUSH1 0x3 SHL AND SHR NOT AND SWAP1 SSTORE CODESIZE DUP1 DUP1 PUSH2 0x6CE JUMP JUMPDEST SWAP2 SWAP3 PUSH1 0x20 PUSH1 0x1 DUP2 SWAP3 DUP7 DUP6 ADD MLOAD DUP2 SSTORE ADD SWAP5 ADD SWAP3 ADD PUSH2 0x6AD JUMP JUMPDEST SWAP2 SWAP1 PUSH1 0x5 DUP5 ADD PUSH1 0x0 MSTORE PUSH1 0x20 PUSH1 0x0 KECCAK256 SWAP1 PUSH1 0x0 SWAP4 JUMPDEST PUSH1 0x1F NOT DUP5 AND DUP6 LT PUSH2 0x766 JUMPI PUSH1 0x1 SWAP5 POP DUP4 PUSH1 0x1F NOT DUP2 AND LT PUSH2 0x74D JUMPI JUMPDEST POP POP POP DUP2 SHL ADD PUSH1 0x5 DUP3 ADD SSTORE PUSH2 0x496 JUMP JUMPDEST ADD MLOAD PUSH1 0x0 NOT PUSH1 0xF8 DUP5 PUSH1 0x3 SHL AND SHR NOT AND SWAP1 SSTORE CODESIZE DUP1 DUP1 PUSH2 0x73D JUMP JUMPDEST DUP2 DUP2 ADD MLOAD DUP4 SSTORE PUSH1 0x20 SWAP5 DUP6 ADD SWAP5 PUSH1 0x1 SWAP1 SWAP4 ADD SWAP3 SWAP1 SWAP2 ADD SWAP1 PUSH2 0x722 JUMP JUMPDEST SWAP2 SWAP1 PUSH1 0x4 DUP5 ADD PUSH1 0x0 MSTORE PUSH1 0x20 PUSH1 0x0 KECCAK256 SWAP1 PUSH1 0x0 SWAP4 JUMPDEST PUSH1 0x1F NOT DUP5 AND DUP6 LT PUSH2 0x7D8 JUMPI PUSH1 0x1 SWAP5 POP DUP4 PUSH1 0x1F NOT DUP2 AND LT PUSH2 0x7BF JUMPI JUMPDEST POP POP POP DUP2 SHL ADD PUSH1 0x4 DUP3 ADD SSTORE PUSH2 0x430 JUMP JUMPDEST ADD MLOAD PUSH1 0x0 NOT PUSH1 0xF8 DUP5 PUSH1 0x3 SHL AND SHR NOT AND SWAP1 SSTORE CODESIZE DUP1 DUP1 PUSH2 0x7AF JUMP JUMPDEST DUP2 DUP2 ADD MLOAD DUP4 SSTORE PUSH1 0x20 SWAP5 DUP6 ADD SWAP5 PUSH1 0x1 SWAP1 SWAP4 ADD SWAP3 SWAP1 SWAP2 ADD SWAP1 PUSH2 0x794 JUMP JUMPDEST SWAP2 SWAP1 PUSH1 0x3 DUP5 ADD PUSH1 0x0 MSTORE PUSH1 0x20 PUSH1 0x0 KECCAK256 SWAP1 PUSH1 0x0 SWAP4 JUMPDEST PUSH1 0x1F NOT DUP5 AND DUP6 LT PUSH2 0x84A JUMPI PUSH1 0x1 SWAP5 POP DUP4 PUSH1 0x1F NOT DUP2 AND LT PUSH2 0x831 JUMPI JUMPDEST POP POP POP DUP2 SHL ADD PUSH1 0x3 DUP3 ADD SSTORE PUSH2 0x3CA JUMP JUMPDEST ADD MLOAD PUSH1 0x0 NOT PUSH1 0xF8 DUP5 PUSH1 0x3 SHL AND SHR NOT AND SWAP1 SSTORE CODESIZE DUP1 DUP1 PUSH2 0x821 JUMP JUMPDEST DUP2 DUP2 ADD MLOAD DUP4 SSTORE PUSH1 0x20 SWAP5 DUP6 ADD SWAP5 PUSH1 0x1 SWAP1 SWAP4 ADD SWAP3 SWAP1 SWAP2 ADD SWAP1 PUSH2 0x806 JUMP JUMPDEST SWAP2 SWAP1 PUSH1 0x2 DUP5 ADD PUSH1 0x0 MSTORE PUSH1 0x20 PUSH1 0x0 KECCAK256 SWAP1 PUSH1 0x0 SWAP4 JUMPDEST PUSH1 0x1F NOT DUP5 AND DUP6 LT PUSH2 0x8BC JUMPI PUSH1 0x1 SWAP5 POP DUP4 PUSH1 0x1F NOT DUP2 AND LT PUSH2 0x8A3 JUMPI JUMPDEST POP POP POP DUP2 SHL ADD PUSH1 0x2 DUP3 ADD SSTORE PUSH2 0x364 JUMP JUMPDEST ADD MLOAD PUSH1 0x0 NOT PUSH1 0xF8 DUP5 PUSH1 0x3 SHL AND SHR NOT AND SWAP1 SSTORE CODESIZE DUP1 DUP1 PUSH2 0x893 JUMP JUMPDEST DUP2 DUP2 ADD MLOAD DUP4 SSTORE PUSH1 0x20 SWAP5 DUP6 ADD SWAP5 PUSH1 0x1 SWAP1 SWAP4 ADD SWAP3 SWAP1 SWAP2 ADD SWAP1 PUSH2 0x878 JUMP JUMPDEST POP SWAP2 SWAP6 SWAP5 SWAP4 SWAP2 POP POP PUSH2 0x104 CALLDATALOAD PUSH1 0x1 PUSH1 0x1 PUSH1 0xA0 SHL SUB AND ISZERO PUSH2 0x8FC JUMPI SWAP2 SWAP3 SWAP4 DUP9 DUP12 DUP12 PUSH2 0x1FE JUMP JUMPDEST PUSH1 0x40 MLOAD PUSH3 0x461BCD PUSH1 0xE5 SHL DUP2 MSTORE PUSH1 0x20 PUSH1 0x4 DUP3 ADD MSTORE PUSH1 0x15 PUSH1 0x24 DUP3 ADD MSTORE PUSH21 0x14995DD85C9908185CDCD95D081C995C5D5A5C9959 PUSH1 0x5A SHL PUSH1 0x44 DUP3 ADD MSTORE PUSH1 0x64 SWAP1 REVERT JUMPDEST PUSH1 0x40 MLOAD PUSH3 0x461BCD PUSH1 0xE5 SHL DUP2 MSTORE PUSH1 0x20 PUSH1 0x4 DUP3 ADD MSTORE PUSH1 0x18 PUSH1 0x24 DUP3 ADD MSTORE PUSH32 0x546F6B656E20616C726561647920726567697374657265640000000000000000 PUSH1 0x44 DUP3 ADD MSTORE PUSH1 0x64 SWAP1 REVERT JUMPDEST PUSH1 0x40 MLOAD PUSH3 0x461BCD PUSH1 0xE5 SHL DUP2 MSTORE PUSH1 0x20 PUSH1 0x4 DUP3 ADD MSTORE PUSH1 0xF PUSH1 0x24 DUP3 ADD MSTORE PUSH15 0x14DE5B589BDB081C995C5D5A5C9959 PUSH1 0x8A SHL PUSH1 0x44 DUP3 ADD MSTORE PUSH1 0x64 SWAP1 REVERT JUMPDEST PUSH1 0x40 MLOAD PUSH3 0x461BCD PUSH1 0xE5 SHL DUP2 MSTORE PUSH1 0x20 PUSH1 0x4 DUP3 ADD MSTORE PUSH1 0xE PUSH1 0x24 DUP3 ADD MSTORE PUSH14 0x151A5D1B19481C995C5D5A5C9959 PUSH1 0x92 SHL PUSH1 0x44 DUP3 ADD MSTORE PUSH1 0x64 SWAP1 REVERT JUMPDEST PUSH1 0x40 MLOAD PUSH3 0x461BCD PUSH1 0xE5 SHL DUP2 MSTORE PUSH1 0x20 PUSH1 0x4 DUP3 ADD MSTORE PUSH1 0x12 PUSH1 0x24 DUP3 ADD MSTORE PUSH18 0x24B73B30B634B2103130B9B2903A37B5B2B7 PUSH1 0x71 SHL PUSH1 0x44 DUP3 ADD MSTORE PUSH1 0x64 SWAP1 REVERT JUMPDEST PUSH1 0x40 MLOAD PUSH3 0x461BCD PUSH1 0xE5 SHL DUP2 MSTORE PUSH1 0x20 PUSH1 0x4 DUP3 ADD MSTORE PUSH1 0x15 PUSH1 0x24 DUP3 ADD MSTORE PUSH21 0x496E76616C696420746F6B656E2061646472657373 PUSH1 0x58 SHL PUSH1 0x44 DUP3 ADD MSTORE PUSH1 0x64 SWAP1 REVERT JUMPDEST PUSH1 0x0 DUP1 REVERT JUMPDEST CALLVALUE PUSH2 0xA62 JUMPI PUSH1 0x20 CALLDATASIZE PUSH1 0x3 NOT ADD SLT PUSH2 0xA62 JUMPI PUSH2 0xA80 PUSH2 0x155B JUMP JUMPDEST PUSH2 0xA88 PUSH2 0x1939 JUMP JUMPDEST PUSH1 0x1 PUSH1 0x1 PUSH1 0xA0 SHL SUB SWAP1 DUP2 AND SWAP1 DUP2 ISZERO PUSH2 0xADC JUMPI PUSH1 0x0 SLOAD DUP3 PUSH12 0xFFFFFFFFFFFFFFFFFFFFFFFF PUSH1 0xA0 SHL DUP3 AND OR PUSH1 0x0 SSTORE AND PUSH32 0x8BE0079C531659141344CD1FD0A4F28419497F9722A3DAAFE3B4186F6B6457E0 PUSH1 0x0 DUP1 LOG3 STOP JUMPDEST PUSH1 0x40 MLOAD PUSH4 0x1E4FBDF7 PUSH1 0xE0 SHL DUP2 MSTORE PUSH1 0x0 PUSH1 0x4 DUP3 ADD MSTORE PUSH1 0x24 SWAP1 REVERT JUMPDEST CALLVALUE PUSH2 0xA62 JUMPI PUSH1 0x0 CALLDATASIZE PUSH1 0x3 NOT ADD SLT PUSH2 0xA62 JUMPI PUSH1 0x40 MLOAD DUP1 PUSH1 0x2 SLOAD DUP1 DUP4 MSTORE PUSH1 0x20 DUP1 SWAP4 ADD DUP1 SWAP2 PUSH1 0x2 PUSH1 0x0 MSTORE PUSH32 0x405787FA12A823E0F2B7631CC41B3BA8828B3321CA811111FA75CD3AA3BB5ACE SWAP1 PUSH1 0x0 JUMPDEST DUP7 DUP3 DUP3 LT PUSH2 0xBA0 JUMPI DUP7 DUP7 PUSH2 0xB57 DUP3 DUP9 SUB DUP4 PUSH2 0x15FD JUMP JUMPDEST PUSH1 0x40 MLOAD SWAP3 DUP4 SWAP3 DUP2 DUP5 ADD SWAP1 DUP3 DUP6 MSTORE MLOAD DUP1 SWAP2 MSTORE PUSH1 0x40 DUP5 ADD SWAP3 SWAP2 PUSH1 0x0 JUMPDEST DUP3 DUP2 LT PUSH2 0xB80 JUMPI POP POP POP POP SUB SWAP1 RETURN JUMPDEST DUP4 MLOAD PUSH1 0x1 PUSH1 0x1 PUSH1 0xA0 SHL SUB AND DUP6 MSTORE DUP7 SWAP6 POP SWAP4 DUP2 ADD SWAP4 SWAP3 DUP2 ADD SWAP3 PUSH1 0x1 ADD PUSH2 0xB71 JUMP JUMPDEST DUP4 SLOAD PUSH1 0x1 PUSH1 0x1 PUSH1 0xA0 SHL SUB AND DUP6 MSTORE SWAP1 SWAP4 ADD SWAP3 PUSH1 0x1 SWAP3 DUP4 ADD SWAP3 ADD PUSH2 0xB41 JUMP JUMPDEST CALLVALUE PUSH2 0xA62 JUMPI PUSH1 0x20 CALLDATASIZE PUSH1 0x3 NOT ADD SLT PUSH2 0xA62 JUMPI PUSH1 0x1 PUSH1 0x1 PUSH1 0xA0 SHL SUB PUSH2 0xBDE PUSH2 0x155B JUMP JUMPDEST AND PUSH1 0x0 MSTORE PUSH1 0x1 PUSH1 0x20 MSTORE PUSH1 0x20 PUSH1 0xFF PUSH1 0xB PUSH1 0x40 PUSH1 0x0 KECCAK256 ADD SLOAD PUSH1 0x8 SHR AND PUSH1 0x40 MLOAD SWAP1 ISZERO ISZERO DUP2 MSTORE RETURN JUMPDEST CALLVALUE PUSH2 0xA62 JUMPI PUSH1 0x0 CALLDATASIZE PUSH1 0x3 NOT ADD SLT PUSH2 0xA62 JUMPI PUSH1 0x0 SLOAD PUSH1 0x40 MLOAD PUSH1 0x1 PUSH1 0x1 PUSH1 0xA0 SHL SUB SWAP1 SWAP2 AND DUP2 MSTORE PUSH1 0x20 SWAP1 RETURN JUMPDEST CALLVALUE PUSH2 0xA62 JUMPI PUSH2 0xC39 CALLDATASIZE PUSH2 0x159E JUMP JUMPDEST SWAP1 SWAP2 PUSH1 0x1 DUP1 PUSH1 0xA0 SHL SUB DUP1 SWAP2 AND SWAP3 DUP4 PUSH1 0x0 MSTORE PUSH1 0x1 PUSH1 0x4 PUSH1 0x20 SWAP4 PUSH1 0x1 DUP6 MSTORE PUSH2 0xC88 PUSH1 0x40 PUSH1 0x0 KECCAK256 SWAP2 PUSH2 0xC71 PUSH1 0xFF PUSH1 0xB DUP6 ADD SLOAD PUSH1 0x8 SHR AND PUSH2 0x17E9 JUMP JUMPDEST DUP1 PUSH1 0x1 DUP5 ADD SLOAD AND CALLER EQ SWAP1 DUP2 ISZERO PUSH2 0xDB7 JUMPI JUMPDEST POP PUSH2 0x1827 JUMP JUMPDEST ADD SWAP1 PUSH1 0x1 PUSH1 0x1 PUSH1 0x40 SHL SUB DUP6 GT PUSH2 0x665 JUMPI PUSH2 0xCAC DUP6 PUSH2 0xCA6 DUP5 SLOAD PUSH2 0x16FE JUMP JUMPDEST DUP5 PUSH2 0x1864 JUMP JUMPDEST PUSH1 0x0 SWAP1 PUSH1 0x1F DUP7 GT PUSH1 0x1 EQ PUSH2 0xD29 JUMPI POP SWAP2 PUSH2 0xD19 SWAP2 PUSH2 0xD05 DUP7 DUP1 PUSH32 0x37CC8C6CED0CBC4D440FCFA810A2F09F40B8F0127C3656103EDF26B3D93E0EC1 SWAP9 SWAP8 SWAP7 PUSH1 0x0 SWAP2 PUSH2 0xD1E JUMPI JUMPDEST POP DUP2 PUSH1 0x1 SHL SWAP2 PUSH1 0x0 NOT SWAP1 PUSH1 0x3 SHL SHR NOT AND OR SWAP1 JUMP JUMPDEST SWAP1 SSTORE JUMPDEST PUSH1 0x40 MLOAD SWAP4 DUP4 DUP6 SWAP5 DUP6 MSTORE DUP5 ADD SWAP2 PUSH2 0x18BA JUMP JUMPDEST SUB SWAP1 LOG2 STOP JUMPDEST SWAP1 POP DUP5 ADD CALLDATALOAD DUP11 PUSH2 0xCF1 JUMP JUMPDEST SWAP1 PUSH1 0x1F NOT DUP7 AND DUP4 PUSH1 0x0 MSTORE DUP6 PUSH1 0x0 KECCAK256 SWAP3 PUSH1 0x0 SWAP1 JUMPDEST DUP3 DUP3 LT PUSH2 0xDA0 JUMPI POP POP SWAP2 PUSH2 0xD19 SWAP4 SWAP2 DUP8 PUSH32 0x37CC8C6CED0CBC4D440FCFA810A2F09F40B8F0127C3656103EDF26B3D93E0EC1 SWAP9 SWAP8 SWAP7 SWAP5 LT PUSH2 0xD86 JUMPI JUMPDEST POP POP PUSH1 0x1 DUP6 DUP2 SHL ADD SWAP1 SSTORE PUSH2 0xD08 JUMP JUMPDEST DUP4 ADD CALLDATALOAD PUSH1 0x0 NOT PUSH1 0x3 DUP9 SWAP1 SHL PUSH1 0xF8 AND SHR NOT AND SWAP1 SSTORE DUP8 DUP1 PUSH2 0xD77 JUMP JUMPDEST DUP7 DUP5 ADD CALLDATALOAD DUP6 SSTORE SWAP4 DUP5 ADD SWAP4 SWAP3 DUP8 ADD SWAP3 SWAP1 DUP8 ADD SWAP1 PUSH2 0xD3C JUMP JUMPDEST SWAP1 POP PUSH1 0x0 SLOAD AND CALLER EQ DUP10 PUSH2 0xC82 JUMP JUMPDEST CALLVALUE PUSH2 0xA62 JUMPI PUSH1 0x0 CALLDATASIZE PUSH1 0x3 NOT ADD SLT PUSH2 0xA62 JUMPI PUSH1 0x20 PUSH1 0x2 SLOAD PUSH1 0x40 MLOAD SWAP1 DUP2 MSTORE RETURN JUMPDEST CALLVALUE PUSH2 0xA62 JUMPI PUSH1 0x0 CALLDATASIZE PUSH1 0x3 NOT ADD SLT PUSH2 0xA62 JUMPI PUSH2 0xDFC PUSH2 0x1939 JUMP JUMPDEST PUSH1 0x0 DUP1 SLOAD PUSH1 0x1 PUSH1 0x1 PUSH1 0xA0 SHL SUB NOT DUP2 AND DUP3 SSTORE PUSH1 0x1 PUSH1 0x1 PUSH1 0xA0 SHL SUB AND PUSH32 0x8BE0079C531659141344CD1FD0A4F28419497F9722A3DAAFE3B4186F6B6457E0 DUP3 DUP1 LOG3 STOP JUMPDEST CALLVALUE PUSH2 0xA62 JUMPI PUSH1 0x40 CALLDATASIZE PUSH1 0x3 NOT ADD SLT PUSH2 0xA62 JUMPI PUSH2 0xE55 PUSH2 0x155B JUMP JUMPDEST PUSH1 0x24 CALLDATALOAD PUSH1 0x1 DUP1 PUSH1 0xA0 SHL SUB DUP1 SWAP3 AND SWAP2 DUP3 PUSH1 0x0 MSTORE PUSH1 0x1 PUSH1 0x20 MSTORE PUSH2 0xE9E PUSH1 0x40 PUSH1 0x0 KECCAK256 SWAP2 PUSH2 0xE88 PUSH1 0xFF PUSH1 0xB DUP6 ADD SLOAD PUSH1 0x8 SHR AND PUSH2 0x17E9 JUMP JUMPDEST DUP1 PUSH1 0x1 DUP5 ADD SLOAD AND CALLER EQ SWAP1 DUP2 ISZERO PUSH2 0xF1A JUMPI POP PUSH2 0x1827 JUMP JUMPDEST PUSH1 0xFF PUSH1 0x7 DUP3 ADD SLOAD PUSH1 0xA0 SHR AND ISZERO PUSH2 0xEE1 JUMPI DUP2 PUSH32 0xD8EF46FA244D0C48B2409630DCD45FA8F002199BCD9795191B52AF70AC0C1D1B SWAP3 PUSH1 0x9 PUSH1 0x20 SWAP4 ADD SSTORE PUSH1 0x40 MLOAD SWAP1 DUP2 MSTORE LOG2 STOP JUMPDEST PUSH1 0x40 MLOAD PUSH3 0x461BCD PUSH1 0xE5 SHL DUP2 MSTORE PUSH1 0x20 PUSH1 0x4 DUP3 ADD MSTORE PUSH1 0x11 PUSH1 0x24 DUP3 ADD MSTORE PUSH17 0x109BDB9D5CC81B9BDD08195B98589B1959 PUSH1 0x7A SHL PUSH1 0x44 DUP3 ADD MSTORE PUSH1 0x64 SWAP1 REVERT JUMPDEST SWAP1 POP PUSH1 0x0 SLOAD AND CALLER EQ DUP6 PUSH2 0xC82 JUMP JUMPDEST CALLVALUE PUSH2 0xA62 JUMPI PUSH1 0x20 DUP1 PUSH1 0x3 NOT CALLDATASIZE ADD SLT PUSH2 0xA62 JUMPI PUSH2 0xF42 PUSH2 0x155B JUMP JUMPDEST SWAP1 PUSH2 0xF4B PUSH2 0x1635 JUMP JUMPDEST POP PUSH1 0x1 PUSH1 0x1 PUSH1 0xA0 SHL SUB SWAP2 DUP3 AND PUSH1 0x0 DUP2 DUP2 MSTORE PUSH1 0x1 DUP4 MSTORE PUSH1 0x40 SWAP1 KECCAK256 PUSH1 0xB ADD SLOAD PUSH2 0xF77 SWAP1 PUSH1 0x8 SHR PUSH1 0xFF AND PUSH2 0x17E9 JUMP JUMPDEST PUSH1 0x0 MSTORE PUSH1 0x1 DUP2 MSTORE PUSH1 0xFF PUSH1 0xB PUSH1 0x40 PUSH1 0x0 KECCAK256 PUSH1 0x40 MLOAD SWAP5 PUSH2 0xF94 DUP7 PUSH2 0x15E1 JUMP JUMPDEST DUP1 DUP3 SLOAD AND DUP7 MSTORE DUP1 PUSH1 0x1 DUP4 ADD SLOAD AND DUP6 DUP8 ADD MSTORE PUSH2 0xFB1 PUSH1 0x2 DUP4 ADD PUSH2 0x1738 JUMP JUMPDEST PUSH1 0x40 DUP8 ADD MSTORE PUSH2 0xFC2 PUSH1 0x3 DUP4 ADD PUSH2 0x1738 JUMP JUMPDEST PUSH1 0x60 DUP8 ADD MSTORE PUSH2 0xFD3 PUSH1 0x4 DUP4 ADD PUSH2 0x1738 JUMP JUMPDEST PUSH1 0x80 DUP8 ADD MSTORE PUSH2 0xFE4 PUSH1 0x5 DUP4 ADD PUSH2 0x1738 JUMP JUMPDEST PUSH1 0xA0 DUP8 ADD MSTORE PUSH2 0xFF5 PUSH1 0x6 DUP4 ADD PUSH2 0x1738 JUMP JUMPDEST PUSH1 0xC0 DUP8 ADD MSTORE DUP4 PUSH1 0x7 DUP4 ADD SLOAD DUP3 DUP2 AND PUSH1 0xE0 DUP10 ADD MSTORE PUSH1 0xA0 SHR AND ISZERO ISZERO PUSH2 0x100 DUP8 ADD MSTORE PUSH1 0x8 DUP3 ADD SLOAD AND PUSH2 0x120 DUP7 ADD MSTORE PUSH1 0x9 DUP2 ADD SLOAD PUSH2 0x140 DUP7 ADD MSTORE PUSH1 0xA DUP2 ADD SLOAD PUSH2 0x160 DUP7 ADD MSTORE ADD SLOAD PUSH2 0x1048 DUP3 DUP3 AND PUSH2 0x180 DUP7 ADD PUSH2 0x17DD JUMP JUMPDEST PUSH1 0x8 SHR AND ISZERO ISZERO PUSH2 0x1A0 DUP4 ADD MSTORE PUSH2 0x1068 PUSH1 0x40 MLOAD SWAP3 DUP3 DUP5 SWAP4 DUP5 MSTORE DUP4 ADD SWAP1 PUSH2 0x1472 JUMP JUMPDEST SUB SWAP1 RETURN JUMPDEST CALLVALUE PUSH2 0xA62 JUMPI PUSH1 0x40 CALLDATASIZE PUSH1 0x3 NOT ADD SLT PUSH2 0xA62 JUMPI PUSH2 0x1085 PUSH2 0x155B JUMP JUMPDEST PUSH1 0x24 CALLDATALOAD PUSH1 0x6 DUP2 LT ISZERO PUSH2 0xA62 JUMPI PUSH1 0x20 DUP2 PUSH2 0x1104 PUSH32 0x8287B6779F9278A99C229571605874E0846F1540E272AE4C7DD16C8FA93AEF07 SWAP4 PUSH1 0x1 DUP1 PUSH1 0xA0 SHL SUB DUP1 SWAP7 AND SWAP6 DUP7 PUSH1 0x0 MSTORE PUSH1 0x1 DUP6 MSTORE PUSH2 0x10FF PUSH1 0x40 PUSH1 0x0 KECCAK256 SWAP2 DUP1 PUSH1 0x1 PUSH1 0xB DUP6 ADD SWAP5 PUSH2 0x10ED PUSH1 0xFF DUP8 SLOAD PUSH1 0x8 SHR AND PUSH2 0x17E9 JUMP JUMPDEST ADD SLOAD AND CALLER EQ SWAP1 DUP2 ISZERO PUSH2 0xDB7 JUMPI POP PUSH2 0x1827 JUMP JUMPDEST PUSH2 0x18DB JUMP JUMPDEST PUSH2 0x1111 PUSH1 0x40 MLOAD DUP1 SWAP3 PUSH2 0x1465 JUMP JUMPDEST LOG2 STOP JUMPDEST CALLVALUE PUSH2 0xA62 JUMPI PUSH2 0x1122 CALLDATASIZE PUSH2 0x159E JUMP JUMPDEST SWAP1 SWAP2 PUSH1 0x1 DUP1 PUSH1 0xA0 SHL SUB DUP1 SWAP2 AND SWAP3 DUP4 PUSH1 0x0 MSTORE PUSH1 0x1 PUSH1 0x6 PUSH1 0x20 SWAP4 PUSH1 0x1 DUP6 MSTORE PUSH2 0x115A PUSH1 0x40 PUSH1 0x0 KECCAK256 SWAP2 PUSH2 0xC71 PUSH1 0xFF PUSH1 0xB DUP6 ADD SLOAD PUSH1 0x8 SHR AND PUSH2 0x17E9 JUMP JUMPDEST ADD SWAP1 PUSH1 0x1 PUSH1 0x1 PUSH1 0x40 SHL SUB DUP6 GT PUSH2 0x665 JUMPI PUSH2 0x1178 DUP6 PUSH2 0xCA6 DUP5 SLOAD PUSH2 0x16FE JUMP JUMPDEST PUSH1 0x0 SWAP1 PUSH1 0x1F DUP7 GT PUSH1 0x1 EQ PUSH2 0x11D0 JUMPI POP SWAP2 PUSH2 0xD19 SWAP2 PUSH2 0xD05 DUP7 DUP1 PUSH32 0x8FF1F86B995433493D3085A56C19DE185E427577A205E6F1626FC92C4C33CBBF SWAP9 SWAP8 SWAP7 PUSH1 0x0 SWAP2 PUSH2 0xD1E JUMPI POP DUP2 PUSH1 0x1 SHL SWAP2 PUSH1 0x0 NOT SWAP1 PUSH1 0x3 SHL SHR NOT AND OR SWAP1 JUMP JUMPDEST SWAP1 PUSH1 0x1F NOT DUP7 AND DUP4 PUSH1 0x0 MSTORE DUP6 PUSH1 0x0 KECCAK256 SWAP3 PUSH1 0x0 SWAP1 JUMPDEST DUP3 DUP3 LT PUSH2 0x122C JUMPI POP POP SWAP2 PUSH2 0xD19 SWAP4 SWAP2 DUP8 PUSH32 0x8FF1F86B995433493D3085A56C19DE185E427577A205E6F1626FC92C4C33CBBF SWAP9 SWAP8 SWAP7 SWAP5 LT PUSH2 0xD86 JUMPI POP POP PUSH1 0x1 DUP6 DUP2 SHL ADD SWAP1 SSTORE PUSH2 0xD08 JUMP JUMPDEST DUP7 DUP5 ADD CALLDATALOAD DUP6 SSTORE SWAP4 DUP5 ADD SWAP4 SWAP3 DUP8 ADD SWAP3 SWAP1 DUP8 ADD SWAP1 PUSH2 0x11E3 JUMP JUMPDEST CALLVALUE PUSH2 0xA62 JUMPI PUSH1 0x0 CALLDATASIZE PUSH1 0x3 NOT ADD SLT PUSH2 0xA62 JUMPI PUSH1 0x2 DUP1 SLOAD PUSH2 0x1261 DUP2 PUSH2 0x161E JUMP JUMPDEST SWAP2 PUSH2 0x126F PUSH1 0x40 MLOAD SWAP4 DUP5 PUSH2 0x15FD JUMP JUMPDEST DUP2 DUP4 MSTORE PUSH2 0x127B DUP3 PUSH2 0x161E JUMP JUMPDEST PUSH1 0x20 SWAP5 SWAP1 PUSH1 0x1F NOT ADD DUP6 PUSH1 0x0 JUMPDEST DUP3 DUP2 LT PUSH2 0x140F JUMPI POP POP POP PUSH1 0x0 JUMPDEST DUP4 DUP2 LT PUSH2 0x12F9 JUMPI PUSH1 0x40 DUP1 MLOAD DUP8 DUP2 MSTORE DUP7 MLOAD DUP2 DUP10 ADD DUP2 SWAP1 MSTORE PUSH1 0x0 SWAP3 PUSH1 0x5 DUP3 SWAP1 SHL DUP4 ADD DUP2 ADD SWAP2 DUP10 DUP12 ADD SWAP2 DUP12 SWAP1 DUP6 ADD JUMPDEST DUP3 DUP8 LT PUSH2 0x12CD JUMPI DUP6 DUP6 SUB DUP7 RETURN JUMPDEST SWAP1 SWAP2 SWAP3 SWAP4 DUP3 DUP1 PUSH2 0x12E9 PUSH1 0x1 SWAP4 PUSH1 0x3F NOT DUP11 DUP3 SUB ADD DUP7 MSTORE DUP9 MLOAD PUSH2 0x1472 JUMP JUMPDEST SWAP7 ADD SWAP3 ADD SWAP7 ADD SWAP6 SWAP3 SWAP2 SWAP1 SWAP3 PUSH2 0x12C0 JUMP JUMPDEST DUP1 PUSH2 0x1305 PUSH1 0x1 SWAP3 PUSH2 0x169D JUMP JUMPDEST DUP4 DUP1 PUSH1 0xA0 SHL SUB DUP1 SWAP3 SLOAD PUSH1 0x3 SWAP3 DUP4 SHL SHR AND PUSH1 0x0 MSTORE DUP4 SWAP2 DUP3 DUP11 MSTORE PUSH2 0x1359 PUSH1 0x40 PUSH1 0x0 KECCAK256 SWAP3 DUP3 PUSH1 0x40 MLOAD SWAP6 PUSH2 0x1334 DUP8 PUSH2 0x15E1 JUMP JUMPDEST DUP2 DUP7 SLOAD AND DUP8 MSTORE DUP6 ADD SLOAD AND DUP13 DUP7 ADD MSTORE PUSH2 0x134D DUP10 DUP6 ADD PUSH2 0x1738 JUMP JUMPDEST PUSH1 0x40 DUP7 ADD MSTORE DUP4 ADD PUSH2 0x1738 JUMP JUMPDEST PUSH1 0x60 DUP5 ADD MSTORE PUSH2 0x136A PUSH1 0x4 DUP4 ADD PUSH2 0x1738 JUMP JUMPDEST PUSH1 0x80 DUP5 ADD MSTORE PUSH1 0xB PUSH2 0x137D PUSH1 0x5 DUP5 ADD PUSH2 0x1738 JUMP JUMPDEST SWAP3 PUSH1 0xA0 SWAP4 DUP5 DUP7 ADD MSTORE PUSH2 0x1391 PUSH1 0x6 DUP3 ADD PUSH2 0x1738 JUMP JUMPDEST PUSH1 0xC0 DUP7 ADD MSTORE PUSH1 0x7 DUP2 ADD SLOAD SWAP4 DUP4 DUP6 AND DUP10 DUP8 ADD MSTORE PUSH1 0xFF SWAP5 DUP6 SWAP2 SHR AND ISZERO ISZERO PUSH2 0x100 DUP7 ADD MSTORE PUSH1 0x8 SWAP3 DUP4 DUP3 ADD SLOAD AND PUSH2 0x120 DUP7 ADD MSTORE PUSH1 0x9 DUP2 ADD SLOAD PUSH2 0x140 DUP7 ADD MSTORE PUSH1 0xA DUP2 ADD SLOAD PUSH2 0x160 DUP7 ADD MSTORE ADD SLOAD SWAP1 PUSH2 0x13E9 DUP4 DUP4 AND PUSH2 0x180 DUP7 ADD PUSH2 0x17DD JUMP JUMPDEST SHR AND ISZERO ISZERO PUSH2 0x1A0 DUP3 ADD MSTORE PUSH2 0x13FD DUP3 DUP9 PUSH2 0x16EA JUMP JUMPDEST MSTORE PUSH2 0x1408 DUP2 DUP8 PUSH2 0x16EA JUMP JUMPDEST POP ADD PUSH2 0x1294 JUMP JUMPDEST PUSH2 0x1417 PUSH2 0x1635 JUMP JUMPDEST DUP3 DUP3 DUP10 ADD ADD MSTORE ADD DUP7 SWAP1 PUSH2 0x1287 JUMP JUMPDEST SWAP2 SWAP1 DUP3 MLOAD SWAP3 DUP4 DUP3 MSTORE PUSH1 0x0 JUMPDEST DUP5 DUP2 LT PUSH2 0x1451 JUMPI POP POP DUP3 PUSH1 0x0 PUSH1 0x20 DUP1 SWAP5 SWAP6 DUP5 ADD ADD MSTORE PUSH1 0x1F DUP1 NOT SWAP2 ADD AND ADD ADD SWAP1 JUMP JUMPDEST PUSH1 0x20 DUP2 DUP4 ADD DUP2 ADD MLOAD DUP5 DUP4 ADD DUP3 ADD MSTORE ADD PUSH2 0x1430 JUMP JUMPDEST SWAP1 PUSH1 0x6 DUP3 LT ISZERO PUSH2 0x67B JUMPI MSTORE JUMP JUMPDEST SWAP1 PUSH2 0x1C0 SWAP2 PUSH2 0x14FC PUSH2 0x14EA PUSH2 0x14D8 PUSH2 0x14C6 PUSH2 0x14B4 PUSH1 0x1 DUP1 PUSH1 0xA0 SHL SUB SWAP8 DUP9 DUP8 MLOAD AND DUP9 MSTORE DUP9 PUSH1 0x20 DUP9 ADD MLOAD AND PUSH1 0x20 DUP10 ADD MSTORE PUSH1 0x40 DUP8 ADD MLOAD SWAP1 DUP1 PUSH1 0x40 DUP11 ADD MSTORE DUP9 ADD SWAP1 PUSH2 0x1425 JUMP JUMPDEST PUSH1 0x60 DUP7 ADD MLOAD DUP8 DUP3 SUB PUSH1 0x60 DUP10 ADD MSTORE PUSH2 0x1425 JUMP JUMPDEST PUSH1 0x80 DUP6 ADD MLOAD DUP7 DUP3 SUB PUSH1 0x80 DUP9 ADD MSTORE PUSH2 0x1425 JUMP JUMPDEST PUSH1 0xA0 DUP5 ADD MLOAD DUP6 DUP3 SUB PUSH1 0xA0 DUP8 ADD MSTORE PUSH2 0x1425 JUMP JUMPDEST PUSH1 0xC0 DUP4 ADD MLOAD DUP5 DUP3 SUB PUSH1 0xC0 DUP7 ADD MSTORE PUSH2 0x1425 JUMP JUMPDEST SWAP3 DUP1 PUSH1 0xE0 DUP4 ADD MLOAD AND PUSH1 0xE0 DUP5 ADD MSTORE PUSH2 0x100 DUP1 DUP4 ADD MLOAD ISZERO ISZERO SWAP1 DUP5 ADD MSTORE PUSH2 0x120 SWAP1 DUP2 DUP4 ADD MLOAD AND SWAP1 DUP4 ADD MSTORE PUSH2 0x140 DUP1 DUP3 ADD MLOAD SWAP1 DUP4 ADD MSTORE PUSH2 0x160 DUP1 DUP3 ADD MLOAD SWAP1 DUP4 ADD MSTORE PUSH2 0x154C PUSH2 0x180 DUP1 DUP4 ADD MLOAD SWAP1 DUP5 ADD SWAP1 PUSH2 0x1465 JUMP JUMPDEST PUSH2 0x1A0 DUP1 SWAP2 ADD MLOAD ISZERO ISZERO SWAP2 ADD MSTORE SWAP1 JUMP JUMPDEST PUSH1 0x4 CALLDATALOAD SWAP1 PUSH1 0x1 PUSH1 0x1 PUSH1 0xA0 SHL SUB DUP3 AND DUP3 SUB PUSH2 0xA62 JUMPI JUMP JUMPDEST SWAP2 DUP2 PUSH1 0x1F DUP5 ADD SLT ISZERO PUSH2 0xA62 JUMPI DUP3 CALLDATALOAD SWAP2 PUSH1 0x1 PUSH1 0x1 PUSH1 0x40 SHL SUB DUP4 GT PUSH2 0xA62 JUMPI PUSH1 0x20 DUP4 DUP2 DUP7 ADD SWAP6 ADD ADD GT PUSH2 0xA62 JUMPI JUMP JUMPDEST SWAP1 PUSH1 0x40 PUSH1 0x3 NOT DUP4 ADD SLT PUSH2 0xA62 JUMPI PUSH1 0x4 CALLDATALOAD PUSH1 0x1 PUSH1 0x1 PUSH1 0xA0 SHL SUB DUP2 AND DUP2 SUB PUSH2 0xA62 JUMPI SWAP2 PUSH1 0x24 CALLDATALOAD SWAP1 PUSH1 0x1 PUSH1 0x1 PUSH1 0x40 SHL SUB DUP3 GT PUSH2 0xA62 JUMPI PUSH2 0x15DD SWAP2 PUSH1 0x4 ADD PUSH2 0x1571 JUMP JUMPDEST SWAP1 SWAP2 JUMP JUMPDEST PUSH2 0x1C0 DUP2 ADD SWAP1 DUP2 LT PUSH1 0x1 PUSH1 0x1 PUSH1 0x40 SHL SUB DUP3 GT OR PUSH2 0x665 JUMPI PUSH1 0x40 MSTORE JUMP JUMPDEST SWAP1 PUSH1 0x1F DUP1 NOT SWAP2 ADD AND DUP2 ADD SWAP1 DUP2 LT PUSH1 0x1 PUSH1 0x1 PUSH1 0x40 SHL SUB DUP3 GT OR PUSH2 0x665 JUMPI PUSH1 0x40 MSTORE JUMP JUMPDEST PUSH1 0x1 PUSH1 0x1 PUSH1 0x40 SHL SUB DUP2 GT PUSH2 0x665 JUMPI PUSH1 0x5 SHL PUSH1 0x20 ADD SWAP1 JUMP JUMPDEST PUSH1 0x40 MLOAD SWAP1 PUSH2 0x1642 DUP3 PUSH2 0x15E1 JUMP JUMPDEST DUP2 PUSH2 0x1A0 PUSH1 0x0 SWAP2 DUP3 DUP2 MSTORE DUP3 PUSH1 0x20 DUP3 ADD MSTORE PUSH1 0x60 DUP1 PUSH1 0x40 DUP4 ADD MSTORE DUP1 DUP1 DUP4 ADD MSTORE DUP1 PUSH1 0x80 DUP4 ADD MSTORE DUP1 PUSH1 0xA0 DUP4 ADD MSTORE PUSH1 0xC0 DUP3 ADD MSTORE DUP3 PUSH1 0xE0 DUP3 ADD MSTORE DUP3 PUSH2 0x100 DUP3 ADD MSTORE DUP3 PUSH2 0x120 DUP3 ADD MSTORE DUP3 PUSH2 0x140 DUP3 ADD MSTORE DUP3 PUSH2 0x160 DUP3 ADD MSTORE DUP3 PUSH2 0x180 DUP3 ADD MSTORE ADD MSTORE JUMP JUMPDEST PUSH1 0x2 SLOAD DUP2 LT ISZERO PUSH2 0x16D4 JUMPI PUSH1 0x2 PUSH1 0x0 MSTORE PUSH32 0x405787FA12A823E0F2B7631CC41B3BA8828B3321CA811111FA75CD3AA3BB5ACE ADD SWAP1 PUSH1 0x0 SWAP1 JUMP JUMPDEST PUSH4 0x4E487B71 PUSH1 0xE0 SHL PUSH1 0x0 MSTORE PUSH1 0x32 PUSH1 0x4 MSTORE PUSH1 0x24 PUSH1 0x0 REVERT JUMPDEST DUP1 MLOAD DUP3 LT ISZERO PUSH2 0x16D4 JUMPI PUSH1 0x20 SWAP2 PUSH1 0x5 SHL ADD ADD SWAP1 JUMP JUMPDEST SWAP1 PUSH1 0x1 DUP3 DUP2 SHR SWAP3 AND DUP1 ISZERO PUSH2 0x172E JUMPI JUMPDEST PUSH1 0x20 DUP4 LT EQ PUSH2 0x1718 JUMPI JUMP JUMPDEST PUSH4 0x4E487B71 PUSH1 0xE0 SHL PUSH1 0x0 MSTORE PUSH1 0x22 PUSH1 0x4 MSTORE PUSH1 0x24 PUSH1 0x0 REVERT JUMPDEST SWAP2 PUSH1 0x7F AND SWAP2 PUSH2 0x170D JUMP JUMPDEST SWAP1 PUSH1 0x40 MLOAD SWAP2 DUP3 PUSH1 0x0 DUP3 SLOAD PUSH2 0x174B DUP2 PUSH2 0x16FE JUMP JUMPDEST SWAP1 DUP2 DUP5 MSTORE PUSH1 0x20 SWAP5 PUSH1 0x1 SWAP2 PUSH1 0x1 DUP2 AND SWAP1 DUP2 PUSH1 0x0 EQ PUSH2 0x17BB JUMPI POP PUSH1 0x1 EQ PUSH2 0x177C JUMPI JUMPDEST POP POP POP PUSH2 0x177A SWAP3 POP SUB DUP4 PUSH2 0x15FD JUMP JUMPDEST JUMP JUMPDEST PUSH1 0x0 SWAP1 DUP2 MSTORE DUP6 DUP2 KECCAK256 SWAP6 SWAP4 POP SWAP2 SWAP1 JUMPDEST DUP2 DUP4 LT PUSH2 0x17A3 JUMPI POP POP PUSH2 0x177A SWAP4 POP DUP3 ADD ADD CODESIZE DUP1 DUP1 PUSH2 0x176B JUMP JUMPDEST DUP6 SLOAD DUP9 DUP5 ADD DUP6 ADD MSTORE SWAP5 DUP6 ADD SWAP5 DUP8 SWAP5 POP SWAP2 DUP4 ADD SWAP2 PUSH2 0x178A JUMP JUMPDEST SWAP3 POP POP POP PUSH2 0x177A SWAP5 SWAP3 POP PUSH1 0xFF NOT AND DUP3 DUP5 ADD MSTORE ISZERO ISZERO PUSH1 0x5 SHL DUP3 ADD ADD CODESIZE DUP1 DUP1 PUSH2 0x176B JUMP JUMPDEST PUSH1 0x6 DUP3 LT ISZERO PUSH2 0x67B JUMPI MSTORE JUMP JUMPDEST ISZERO PUSH2 0x17F0 JUMPI JUMP JUMPDEST PUSH1 0x40 MLOAD PUSH3 0x461BCD PUSH1 0xE5 SHL DUP2 MSTORE PUSH1 0x20 PUSH1 0x4 DUP3 ADD MSTORE PUSH1 0xF PUSH1 0x24 DUP3 ADD MSTORE PUSH15 0x151BDAD95B881B9BDD08199BDD5B99 PUSH1 0x8A SHL PUSH1 0x44 DUP3 ADD MSTORE PUSH1 0x64 SWAP1 REVERT JUMPDEST ISZERO PUSH2 0x182E JUMPI JUMP JUMPDEST PUSH1 0x40 MLOAD PUSH3 0x461BCD PUSH1 0xE5 SHL DUP2 MSTORE PUSH1 0x20 PUSH1 0x4 DUP3 ADD MSTORE PUSH1 0xE PUSH1 0x24 DUP3 ADD MSTORE PUSH14 0x139BDD08185D5D1A1BDC9A5E9959 PUSH1 0x92 SHL PUSH1 0x44 DUP3 ADD MSTORE PUSH1 0x64 SWAP1 REVERT JUMPDEST SWAP1 PUSH1 0x1F DUP2 GT PUSH2 0x1872 JUMPI POP POP POP JUMP JUMPDEST PUSH1 0x0 SWAP2 PUSH1 0x0 MSTORE PUSH1 0x20 PUSH1 0x0 KECCAK256 SWAP1 PUSH1 0x20 PUSH1 0x1F DUP6 ADD PUSH1 0x5 SHR DUP4 ADD SWAP5 LT PUSH2 0x18B0 JUMPI JUMPDEST PUSH1 0x1F ADD PUSH1 0x5 SHR ADD SWAP2 JUMPDEST DUP3 DUP2 LT PUSH2 0x18A5 JUMPI POP POP POP JUMP JUMPDEST DUP2 DUP2 SSTORE PUSH1 0x1 ADD PUSH2 0x1899 JUMP JUMPDEST SWAP1 SWAP3 POP DUP3 SWAP1 PUSH2 0x1890 JUMP JUMPDEST SWAP1 DUP1 PUSH1 0x20 SWAP4 SWAP3 DUP2 DUP5 MSTORE DUP5 DUP5 ADD CALLDATACOPY PUSH1 0x0 DUP3 DUP3 ADD DUP5 ADD MSTORE PUSH1 0x1F ADD PUSH1 0x1F NOT AND ADD ADD SWAP1 JUMP JUMPDEST SWAP1 PUSH1 0x6 DUP2 LT ISZERO PUSH2 0x67B JUMPI PUSH1 0xFF DUP1 NOT DUP4 SLOAD AND SWAP2 AND OR SWAP1 SSTORE JUMP JUMPDEST SWAP3 SWAP2 SWAP3 PUSH1 0x1 PUSH1 0x1 PUSH1 0x40 SHL SUB DUP3 GT PUSH2 0x665 JUMPI PUSH1 0x40 MLOAD SWAP2 PUSH2 0x191C PUSH1 0x1F DUP3 ADD PUSH1 0x1F NOT AND PUSH1 0x20 ADD DUP5 PUSH2 0x15FD JUMP JUMPDEST DUP3 SWAP5 DUP2 DUP5 MSTORE DUP2 DUP4 ADD GT PUSH2 0xA62 JUMPI DUP3 DUP2 PUSH1 0x20 SWAP4 DUP5 PUSH1 0x0 SWAP7 ADD CALLDATACOPY ADD ADD MSTORE JUMP JUMPDEST PUSH1 0x0 SLOAD PUSH1 0x1 PUSH1 0x1 PUSH1 0xA0 SHL SUB AND CALLER SUB PUSH2 0x194D JUMPI JUMP JUMPDEST PUSH1 0x40 MLOAD PUSH4 0x118CDAA7 PUSH1 0xE0 SHL DUP2 MSTORE CALLER PUSH1 0x4 DUP3 ADD MSTORE PUSH1 0x24 SWAP1 REVERT INVALID LOG2 PUSH5 0x6970667358 0x22 SLT KECCAK256 0x4A 0xCD 0xAC LT 0xE4 PUSH7 0xA619AE2D2ADBC8 GASPRICE DUP3 0x2D DUP12 CODECOPY 0xB5 0xBC 0xBF ADDMOD CODECOPY 0xE 0x49 PUSH4 0xF2342E26 0xD5 NOT PUSH5 0x736F6C6343 STOP ADDMOD OR STOP CALLER "},"methodIdentifiers":{"getAllTokens()":"2a5c792a","getToken(address)":"59770438","getTokenAddresses()":"ee8c24b8","isRegistered(address)":"c3c5a547","owner()":"8da5cb5b","registerToken(address,string,string,string,string,string,address,bool,address,uint256)":"fdc8ac67","renounceOwnership()":"715018a6","totalTokens()":"7e1c0c09","transferOwnership(address)":"f2fde38b","updateBonusReserve(address,uint256)":"714207e8","updateDescription(address,string)":"8bbb2cf2","updateLogo(address,string)":"33497b63","updateStatus(address,uint8)":"44c5bbf8"}}}}}