{"src/BonusReserveManager.sol":{"BonusReserveManager":{"abi":[{"inputs":[{"internalType":"address","name":"initialOwner","type":"address"}],"stateMutability":"nonpayable","type":"constructor"},{"inputs":[{"internalType":"address","name":"owner","type":"address"}],"name":"OwnableInvalidOwner","type":"error"},{"inputs":[{"internalType":"address","name":"account","type":"address"}],"name":"OwnableUnauthorizedAccount","type":"error"},{"anonymous":false,"inputs":[{"indexed":true,"internalType":"address","name":"token","type":"address"},{"indexed":false,"internalType":"uint256","name":"amountPaid","type":"uint256"},{"indexed":false,"internalType":"uint256","name":"newTotalPaid","type":"uint256"}],"name":"BonusPaid","type":"event"},{"anonymous":false,"inputs":[{"indexed":true,"internalType":"address","name":"token","type":"address"},{"indexed":false,"internalType":"uint256","name":"amountAdded","type":"uint256"},{"indexed":false,"internalType":"uint256","name":"newTotalReserved","type":"uint256"}],"name":"BonusReserveIncreased","type":"event"},{"anonymous":false,"inputs":[{"indexed":true,"internalType":"address","name":"token","type":"address"},{"indexed":false,"internalType":"uint256","name":"totalReserved","type":"uint256"}],"name":"BonusReserveSet","type":"event"},{"anonymous":false,"inputs":[{"indexed":true,"internalType":"address","name":"previousOwner","type":"address"},{"indexed":true,"internalType":"address","name":"newOwner","type":"address"}],"name":"OwnershipTransferred","type":"event"},{"inputs":[],"name":"getAllReserves","outputs":[{"components":[{"internalType":"address","name":"token","type":"address"},{"internalType":"uint256","name":"totalReserved","type":"uint256"},{"internalType":"uint256","name":"totalPaid","type":"uint256"},{"internalType":"bool","name":"exists","type":"bool"}],"internalType":"struct BonusReserveManager.BonusReserve[]","name":"","type":"tuple[]"}],"stateMutability":"view","type":"function"},{"inputs":[{"internalType":"address","name":"token","type":"address"}],"name":"getRemainingReserve","outputs":[{"internalType":"uint256","name":"","type":"uint256"}],"stateMutability":"view","type":"function"},{"inputs":[{"internalType":"address","name":"token","type":"address"}],"name":"getReserve","outputs":[{"components":[{"internalType":"address","name":"token","type":"address"},{"internalType":"uint256","name":"totalReserved","type":"uint256"},{"internalType":"uint256","name":"totalPaid","type":"uint256"},{"internalType":"bool","name":"exists","type":"bool"}],"internalType":"struct BonusReserveManager.BonusReserve","name":"","type":"tuple"}],"stateMutability":"view","type":"function"},{"inputs":[{"internalType":"address","name":"token","type":"address"}],"name":"hasReserve","outputs":[{"internalType":"bool","name":"","type":"bool"}],"stateMutability":"view","type":"function"},{"inputs":[{"internalType":"address","name":"token","type":"address"},{"internalType":"uint256","name":"amount","type":"uint256"}],"name":"increaseReserve","outputs":[],"stateMutability":"nonpayable","type":"function"},{"inputs":[],"name":"owner","outputs":[{"internalType":"address","name":"","type":"address"}],"stateMutability":"view","type":"function"},{"inputs":[{"internalType":"address","name":"token","type":"address"},{"internalType":"uint256","name":"amount","type":"uint256"}],"name":"payBonus","outputs":[{"internalType":"uint256","name":"paidAmount","type":"uint256"}],"stateMutability":"nonpayable","type":"function"},{"inputs":[],"name":"renounceOwnership","outputs":[],"stateMutability":"nonpayable","type":"function"},{"inputs":[{"internalType":"address","name":"token","type":"address"},{"internalType":"uint256","name":"amount","type":"uint256"}],"name":"setReserve","outputs":[],"stateMutability":"nonpayable","type":"function"},{"inputs":[],"name":"totalReserveTokens","outputs":[{"internalType":"uint256","name":"","type":"uint256"}],"stateMutability":"view","type":"function"},{"inputs":[{"internalType":"address","name":"newOwner","type":"address"}],"name":"transferOwnership","outputs":[],"stateMutability":"nonpayable","type":"function"}],"evm":{"bytecode":{"linkReferences":{},"object":"6080346100bb57601f610acb38819003918201601f19168301916001600160401b038311848410176100c0578084926020946040528339810103126100bb57516001600160a01b0390818116908190036100bb5780156100a257600080546001600160a01b03198116831782556040519316907f8be0079c531659141344cd1fd0a4f28419497f9722a3daafe3b4186f6b6457e09080a36109f490816100d78239f35b604051631e4fbdf760e01b815260006004820152602490fd5b600080fd5b634e487b7160e01b600052604160045260246000fdfe604060808152600436101561001357600080fd5b600090813560e01c80631b302fc4146106905780633762e31b1461064f5780636aa701bf146104c6578063715018a61461046957806378250b631461030357806381405526146102d75780638da5cb5b146102b0578063c9a396e9146101f7578063cd06700b146101d9578063d14499d1146101205763f2fde38b1461009857600080fd5b3461011c57602036600319011261011c576100b1610763565b6100b9610992565b6001600160a01b03908116918215610105575082546001600160a01b0319811683178455167f8be0079c531659141344cd1fd0a4f28419497f9722a3daafe3b4186f6b6457e08380a380f35b51631e4fbdf760e01b815260048101849052602490fd5b5080fd5b503461011c578060031936011261011c577f9db2b92e54570a94b585933dcc2df5f5b2acd4376691a13e8549a222471f8a0061015a610763565b9160243592610167610992565b6001600160a01b03169261017c84151561077e565b6101878115156107ba565b83855260016020526101a160ff60038488200154166107fb565b83855260016020526001828620016101ba82825461083b565b905583855260016020526001828620015482519182526020820152a280f35b503461011c578160031936011261011c576020906002549051908152f35b503461011c57602036600319011261011c57906102ae8260ff600360809561021d610763565b956102266108ac565b506001600160a01b03968716808252600160205282822084015461024b9086166107fb565b815260016020522061025b61085e565b95815416865260018101546020870152600281015484870152015416151560608401525180926060809160018060a01b038151168452602081015160208501526040810151604085015201511515910152565bf35b503461011c578160031936011261011c57905490516001600160a01b039091168152602090f35b503461011c57602036600319011261011c576020906102fc6102f7610763565b610931565b9051908152f35b503461011c578060031936011261011c5761031c610763565b9060243590610329610992565b6001600160a01b039283169261034084151561077e565b83855260018060205282862060ff6003820154161560001461043a575061036561085e565b858152600360208201918683528581018981526060820193858552898b528560205286888c209351166bffffffffffffffffffffffff60a01b8454161783555185830155516002820155019051151560ff801983541691161790556002549068010000000000000000821015610426579161040a827f655b2dd6968df529922f0fbcc9b71c026eb845d3d501879a30c48ee2bd191850969460209694016002556108d0565b819291549060031b9188831b921b19161790555b51908152a280f35b634e487b7160e01b87526041600452602487fd5b01839055507f655b2dd6968df529922f0fbcc9b71c026eb845d3d501879a30c48ee2bd1918509160209161041e565b82346104c357806003193601126104c357610482610992565b80546001600160a01b03198116825581906001600160a01b03167f8be0079c531659141344cd1fd0a4f28419497f9722a3daafe3b4186f6b6457e08280a380f35b80fd5b5090346104c357806003193601126104c357600291601f6002546104e981610894565b9483519583199384910116860186811067ffffffffffffffff82111761063b5784939596945281845261051b82610894565b60209501865b81811061061c575050855b8281106105a4575050508051928080850192818652845180945285019301945b8281106105595784840385f35b909192826080826105956001948a516060809160018060a01b038151168452602081015160208501526040810151604085015201511515910152565b0196019101949291909461054c565b8060ff6105b760019399989697996108d0565b848060a09493941b03809354600392831b1c168a5284808952898b20906105dc61085e565b94825416855281015489850152868101548a85015201541615156060820152610605828a61091d565b52610610818961091d565b5001959392949561052c565b95809495979661062a6108ac565b82828b010152019694939596610521565b634e487b7160e01b86526041600452602486fd5b503461011c57602036600319011261011c5760209160ff9060039083906001600160a01b0361067c610763565b168152600186522001541690519015158152f35b503461011c578060031936011261011c57906020916106ad610763565b7f5c3f6e98f212f4c64ffd7bb715de204a3c246ee0169b69424a0295aa72304e2c826002816024356106dd610992565b6001600160a01b0386169561071b906106f788151561077e565b6107028315156107ba565b878a5260018b526102f760ff6003868d200154166107fb565b908181111561075b5750965b85815260018952828282200161073e89825461083b565b90558581526001895220015481519086825287820152a251908152f35b905096610727565b600435906001600160a01b038216820361077957565b600080fd5b1561078557565b60405162461bcd60e51b815260206004820152600d60248201526c24b73b30b634b2103a37b5b2b760991b6044820152606490fd5b156107c157565b60405162461bcd60e51b81526020600482015260126024820152710416d6f756e74206d757374206265203e20360741b6044820152606490fd5b1561080257565b60405162461bcd60e51b815260206004820152601160248201527014995cd95c9d99481b9bdd08199bdd5b99607a1b6044820152606490fd5b9190820180921161084857565b634e487b7160e01b600052601160045260246000fd5b604051906080820182811067ffffffffffffffff82111761087e57604052565b634e487b7160e01b600052604160045260246000fd5b67ffffffffffffffff811161087e5760051b60200190565b6108b461085e565b9060008252600060208301526000604083015260006060830152565b6002548110156109075760026000527f405787fa12a823e0f2b7631cc41b3ba8828b3321ca811111fa75cd3aa3bb5ace0190600090565b634e487b7160e01b600052603260045260246000fd5b80518210156109075760209160051b010190565b6001600160a01b031660008181526001602052604081206003015490919061095b9060ff166107fb565b81526001602052604081209060026001830154920154820391821161097e575090565b634e487b7160e01b81526011600452602490fd5b6000546001600160a01b031633036109a657565b60405163118cdaa760e01b8152336004820152602490fdfea2646970667358221220265a9ee6d1cc81e58fde8a147e1a39bf273573ef0dced7fa0aebfaf634e681d264736f6c63430008170033","opcodes":"PUSH1 0x80 CALLVALUE PUSH2 0xBB JUMPI PUSH1 0x1F PUSH2 0xACB CODESIZE DUP2 SWAP1 SUB SWAP2 DUP3 ADD PUSH1 0x1F NOT AND DUP4 ADD SWAP2 PUSH1 0x1 PUSH1 0x1 PUSH1 0x40 SHL SUB DUP4 GT DUP5 DUP5 LT OR PUSH2 0xC0 JUMPI DUP1 DUP5 SWAP3 PUSH1 0x20 SWAP5 PUSH1 0x40 MSTORE DUP4 CODECOPY DUP2 ADD SUB SLT PUSH2 0xBB JUMPI MLOAD PUSH1 0x1 PUSH1 0x1 PUSH1 0xA0 SHL SUB SWAP1 DUP2 DUP2 AND SWAP1 DUP2 SWAP1 SUB PUSH2 0xBB JUMPI DUP1 ISZERO PUSH2 0xA2 JUMPI PUSH1 0x0 DUP1 SLOAD PUSH1 0x1 PUSH1 0x1 PUSH1 0xA0 SHL SUB NOT DUP2 AND DUP4 OR DUP3 SSTORE PUSH1 0x40 MLOAD SWAP4 AND SWAP1 PUSH32 0x8BE0079C531659141344CD1FD0A4F28419497F9722A3DAAFE3B4186F6B6457E0 SWAP1 DUP1 LOG3 PUSH2 0x9F4 SWAP1 DUP2 PUSH2 0xD7 DUP3 CODECOPY RETURN JUMPDEST PUSH1 0x40 MLOAD PUSH4 0x1E4FBDF7 PUSH1 0xE0 SHL DUP2 MSTORE PUSH1 0x0 PUSH1 0x4 DUP3 ADD MSTORE PUSH1 0x24 SWAP1 REVERT JUMPDEST PUSH1 0x0 DUP1 REVERT JUMPDEST PUSH4 0x4E487B71 PUSH1 0xE0 SHL PUSH1 0x0 MSTORE PUSH1 0x41 PUSH1 0x4 MSTORE PUSH1 0x24 PUSH1 0x0 REVERT INVALID PUSH1 0x40 PUSH1 0x80 DUP2 MSTORE PUSH1 0x4 CALLDATASIZE LT ISZERO PUSH2 0x13 JUMPI PUSH1 0x0 DUP1 REVERT JUMPDEST PUSH1 0x0 SWAP1 DUP2 CALLDATALOAD PUSH1 0xE0 SHR DUP1 PUSH4 0x1B302FC4 EQ PUSH2 0x690 JUMPI DUP1 PUSH4 0x3762E31B EQ PUSH2 0x64F JUMPI DUP1 PUSH4 0x6AA701BF EQ PUSH2 0x4C6 JUMPI DUP1 PUSH4 0x715018A6 EQ PUSH2 0x469 JUMPI DUP1 PUSH4 0x78250B63 EQ PUSH2 0x303 JUMPI DUP1 PUSH4 0x81405526 EQ PUSH2 0x2D7 JUMPI DUP1 PUSH4 0x8DA5CB5B EQ PUSH2 0x2B0 JUMPI DUP1 PUSH4 0xC9A396E9 EQ PUSH2 0x1F7 JUMPI DUP1 PUSH4 0xCD06700B EQ PUSH2 0x1D9 JUMPI DUP1 PUSH4 0xD14499D1 EQ PUSH2 0x120 JUMPI PUSH4 0xF2FDE38B EQ PUSH2 0x98 JUMPI PUSH1 0x0 DUP1 REVERT JUMPDEST CALLVALUE PUSH2 0x11C JUMPI PUSH1 0x20 CALLDATASIZE PUSH1 0x3 NOT ADD SLT PUSH2 0x11C JUMPI PUSH2 0xB1 PUSH2 0x763 JUMP JUMPDEST PUSH2 0xB9 PUSH2 0x992 JUMP JUMPDEST PUSH1 0x1 PUSH1 0x1 PUSH1 0xA0 SHL SUB SWAP1 DUP2 AND SWAP2 DUP3 ISZERO PUSH2 0x105 JUMPI POP DUP3 SLOAD PUSH1 0x1 PUSH1 0x1 PUSH1 0xA0 SHL SUB NOT DUP2 AND DUP4 OR DUP5 SSTORE AND PUSH32 0x8BE0079C531659141344CD1FD0A4F28419497F9722A3DAAFE3B4186F6B6457E0 DUP4 DUP1 LOG3 DUP1 RETURN JUMPDEST MLOAD PUSH4 0x1E4FBDF7 PUSH1 0xE0 SHL DUP2 MSTORE PUSH1 0x4 DUP2 ADD DUP5 SWAP1 MSTORE PUSH1 0x24 SWAP1 REVERT JUMPDEST POP DUP1 REVERT JUMPDEST POP CALLVALUE PUSH2 0x11C JUMPI DUP1 PUSH1 0x3 NOT CALLDATASIZE ADD SLT PUSH2 0x11C JUMPI PUSH32 0x9DB2B92E54570A94B585933DCC2DF5F5B2ACD4376691A13E8549A222471F8A00 PUSH2 0x15A PUSH2 0x763 JUMP JUMPDEST SWAP2 PUSH1 0x24 CALLDATALOAD SWAP3 PUSH2 0x167 PUSH2 0x992 JUMP JUMPDEST PUSH1 0x1 PUSH1 0x1 PUSH1 0xA0 SHL SUB AND SWAP3 PUSH2 0x17C DUP5 ISZERO ISZERO PUSH2 0x77E JUMP JUMPDEST PUSH2 0x187 DUP2 ISZERO ISZERO PUSH2 0x7BA JUMP JUMPDEST DUP4 DUP6 MSTORE PUSH1 0x1 PUSH1 0x20 MSTORE PUSH2 0x1A1 PUSH1 0xFF PUSH1 0x3 DUP5 DUP9 KECCAK256 ADD SLOAD AND PUSH2 0x7FB JUMP JUMPDEST DUP4 DUP6 MSTORE PUSH1 0x1 PUSH1 0x20 MSTORE PUSH1 0x1 DUP3 DUP7 KECCAK256 ADD PUSH2 0x1BA DUP3 DUP3 SLOAD PUSH2 0x83B JUMP JUMPDEST SWAP1 SSTORE DUP4 DUP6 MSTORE PUSH1 0x1 PUSH1 0x20 MSTORE PUSH1 0x1 DUP3 DUP7 KECCAK256 ADD SLOAD DUP3 MLOAD SWAP2 DUP3 MSTORE PUSH1 0x20 DUP3 ADD MSTORE LOG2 DUP1 RETURN JUMPDEST POP CALLVALUE PUSH2 0x11C JUMPI DUP2 PUSH1 0x3 NOT CALLDATASIZE ADD SLT PUSH2 0x11C JUMPI PUSH1 0x20 SWAP1 PUSH1 0x2 SLOAD SWAP1 MLOAD SWAP1 DUP2 MSTORE RETURN JUMPDEST POP CALLVALUE PUSH2 0x11C JUMPI PUSH1 0x20 CALLDATASIZE PUSH1 0x3 NOT ADD SLT PUSH2 0x11C JUMPI SWAP1 PUSH2 0x2AE DUP3 PUSH1 0xFF PUSH1 0x3 PUSH1 0x80 SWAP6 PUSH2 0x21D PUSH2 0x763 JUMP JUMPDEST SWAP6 PUSH2 0x226 PUSH2 0x8AC JUMP JUMPDEST POP PUSH1 0x1 PUSH1 0x1 PUSH1 0xA0 SHL SUB SWAP7 DUP8 AND DUP1 DUP3 MSTORE PUSH1 0x1 PUSH1 0x20 MSTORE DUP3 DUP3 KECCAK256 DUP5 ADD SLOAD PUSH2 0x24B SWAP1 DUP7 AND PUSH2 0x7FB JUMP JUMPDEST DUP2 MSTORE PUSH1 0x1 PUSH1 0x20 MSTORE KECCAK256 PUSH2 0x25B PUSH2 0x85E JUMP JUMPDEST SWAP6 DUP2 SLOAD AND DUP7 MSTORE PUSH1 0x1 DUP2 ADD SLOAD PUSH1 0x20 DUP8 ADD MSTORE PUSH1 0x2 DUP2 ADD SLOAD DUP5 DUP8 ADD MSTORE ADD SLOAD AND ISZERO ISZERO PUSH1 0x60 DUP5 ADD MSTORE MLOAD DUP1 SWAP3 PUSH1 0x60 DUP1 SWAP2 PUSH1 0x1 DUP1 PUSH1 0xA0 SHL SUB DUP2 MLOAD AND DUP5 MSTORE PUSH1 0x20 DUP2 ADD MLOAD PUSH1 0x20 DUP6 ADD MSTORE PUSH1 0x40 DUP2 ADD MLOAD PUSH1 0x40 DUP6 ADD MSTORE ADD MLOAD ISZERO ISZERO SWAP2 ADD MSTORE JUMP JUMPDEST RETURN JUMPDEST POP CALLVALUE PUSH2 0x11C JUMPI DUP2 PUSH1 0x3 NOT CALLDATASIZE ADD SLT PUSH2 0x11C JUMPI SWAP1 SLOAD SWAP1 MLOAD PUSH1 0x1 PUSH1 0x1 PUSH1 0xA0 SHL SUB SWAP1 SWAP2 AND DUP2 MSTORE PUSH1 0x20 SWAP1 RETURN JUMPDEST POP CALLVALUE PUSH2 0x11C JUMPI PUSH1 0x20 CALLDATASIZE PUSH1 0x3 NOT ADD SLT PUSH2 0x11C JUMPI PUSH1 0x20 SWAP1 PUSH2 0x2FC PUSH2 0x2F7 PUSH2 0x763 JUMP JUMPDEST PUSH2 0x931 JUMP JUMPDEST SWAP1 MLOAD SWAP1 DUP2 MSTORE RETURN JUMPDEST POP CALLVALUE PUSH2 0x11C JUMPI DUP1 PUSH1 0x3 NOT CALLDATASIZE ADD SLT PUSH2 0x11C JUMPI PUSH2 0x31C PUSH2 0x763 JUMP JUMPDEST SWAP1 PUSH1 0x24 CALLDATALOAD SWAP1 PUSH2 0x329 PUSH2 0x992 JUMP JUMPDEST PUSH1 0x1 PUSH1 0x1 PUSH1 0xA0 SHL SUB SWAP3 DUP4 AND SWAP3 PUSH2 0x340 DUP5 ISZERO ISZERO PUSH2 0x77E JUMP JUMPDEST DUP4 DUP6 MSTORE PUSH1 0x1 DUP1 PUSH1 0x20 MSTORE DUP3 DUP7 KECCAK256 PUSH1 0xFF PUSH1 0x3 DUP3 ADD SLOAD AND ISZERO PUSH1 0x0 EQ PUSH2 0x43A JUMPI POP PUSH2 0x365 PUSH2 0x85E JUMP JUMPDEST DUP6 DUP2 MSTORE PUSH1 0x3 PUSH1 0x20 DUP3 ADD SWAP2 DUP7 DUP4 MSTORE DUP6 DUP2 ADD DUP10 DUP2 MSTORE PUSH1 0x60 DUP3 ADD SWAP4 DUP6 DUP6 MSTORE DUP10 DUP12 MSTORE DUP6 PUSH1 0x20 MSTORE DUP7 DUP9 DUP13 KECCAK256 SWAP4 MLOAD AND PUSH12 0xFFFFFFFFFFFFFFFFFFFFFFFF PUSH1 0xA0 SHL DUP5 SLOAD AND OR DUP4 SSTORE MLOAD DUP6 DUP4 ADD SSTORE MLOAD PUSH1 0x2 DUP3 ADD SSTORE ADD SWAP1 MLOAD ISZERO ISZERO PUSH1 0xFF DUP1 NOT DUP4 SLOAD AND SWAP2 AND OR SWAP1 SSTORE PUSH1 0x2 SLOAD SWAP1 PUSH9 0x10000000000000000 DUP3 LT ISZERO PUSH2 0x426 JUMPI SWAP2 PUSH2 0x40A DUP3 PUSH32 0x655B2DD6968DF529922F0FBCC9B71C026EB845D3D501879A30C48EE2BD191850 SWAP7 SWAP5 PUSH1 0x20 SWAP7 SWAP5 ADD PUSH1 0x2 SSTORE PUSH2 0x8D0 JUMP JUMPDEST DUP2 SWAP3 SWAP2 SLOAD SWAP1 PUSH1 0x3 SHL SWAP2 DUP9 DUP4 SHL SWAP3 SHL NOT AND OR SWAP1 SSTORE JUMPDEST MLOAD SWAP1 DUP2 MSTORE LOG2 DUP1 RETURN JUMPDEST PUSH4 0x4E487B71 PUSH1 0xE0 SHL DUP8 MSTORE PUSH1 0x41 PUSH1 0x4 MSTORE PUSH1 0x24 DUP8 REVERT JUMPDEST ADD DUP4 SWAP1 SSTORE POP PUSH32 0x655B2DD6968DF529922F0FBCC9B71C026EB845D3D501879A30C48EE2BD191850 SWAP2 PUSH1 0x20 SWAP2 PUSH2 0x41E JUMP JUMPDEST DUP3 CALLVALUE PUSH2 0x4C3 JUMPI DUP1 PUSH1 0x3 NOT CALLDATASIZE ADD SLT PUSH2 0x4C3 JUMPI PUSH2 0x482 PUSH2 0x992 JUMP JUMPDEST DUP1 SLOAD PUSH1 0x1 PUSH1 0x1 PUSH1 0xA0 SHL SUB NOT DUP2 AND DUP3 SSTORE DUP2 SWAP1 PUSH1 0x1 PUSH1 0x1 PUSH1 0xA0 SHL SUB AND PUSH32 0x8BE0079C531659141344CD1FD0A4F28419497F9722A3DAAFE3B4186F6B6457E0 DUP3 DUP1 LOG3 DUP1 RETURN JUMPDEST DUP1 REVERT JUMPDEST POP SWAP1 CALLVALUE PUSH2 0x4C3 JUMPI DUP1 PUSH1 0x3 NOT CALLDATASIZE ADD SLT PUSH2 0x4C3 JUMPI PUSH1 0x2 SWAP2 PUSH1 0x1F PUSH1 0x2 SLOAD PUSH2 0x4E9 DUP2 PUSH2 0x894 JUMP JUMPDEST SWAP5 DUP4 MLOAD SWAP6 DUP4 NOT SWAP4 DUP5 SWAP2 ADD AND DUP7 ADD DUP7 DUP2 LT PUSH8 0xFFFFFFFFFFFFFFFF DUP3 GT OR PUSH2 0x63B JUMPI DUP5 SWAP4 SWAP6 SWAP7 SWAP5 MSTORE DUP2 DUP5 MSTORE PUSH2 0x51B DUP3 PUSH2 0x894 JUMP JUMPDEST PUSH1 0x20 SWAP6 ADD DUP7 JUMPDEST DUP2 DUP2 LT PUSH2 0x61C JUMPI POP POP DUP6 JUMPDEST DUP3 DUP2 LT PUSH2 0x5A4 JUMPI POP POP POP DUP1 MLOAD SWAP3 DUP1 DUP1 DUP6 ADD SWAP3 DUP2 DUP7 MSTORE DUP5 MLOAD DUP1 SWAP5 MSTORE DUP6 ADD SWAP4 ADD SWAP5 JUMPDEST DUP3 DUP2 LT PUSH2 0x559 JUMPI DUP5 DUP5 SUB DUP6 RETURN JUMPDEST SWAP1 SWAP2 SWAP3 DUP3 PUSH1 0x80 DUP3 PUSH2 0x595 PUSH1 0x1 SWAP5 DUP11 MLOAD PUSH1 0x60 DUP1 SWAP2 PUSH1 0x1 DUP1 PUSH1 0xA0 SHL SUB DUP2 MLOAD AND DUP5 MSTORE PUSH1 0x20 DUP2 ADD MLOAD PUSH1 0x20 DUP6 ADD MSTORE PUSH1 0x40 DUP2 ADD MLOAD PUSH1 0x40 DUP6 ADD MSTORE ADD MLOAD ISZERO ISZERO SWAP2 ADD MSTORE JUMP JUMPDEST ADD SWAP7 ADD SWAP2 ADD SWAP5 SWAP3 SWAP2 SWAP1 SWAP5 PUSH2 0x54C JUMP JUMPDEST DUP1 PUSH1 0xFF PUSH2 0x5B7 PUSH1 0x1 SWAP4 SWAP10 SWAP9 SWAP7 SWAP8 SWAP10 PUSH2 0x8D0 JUMP JUMPDEST DUP5 DUP1 PUSH1 0xA0 SWAP5 SWAP4 SWAP5 SHL SUB DUP1 SWAP4 SLOAD PUSH1 0x3 SWAP3 DUP4 SHL SHR AND DUP11 MSTORE DUP5 DUP1 DUP10 MSTORE DUP10 DUP12 KECCAK256 SWAP1 PUSH2 0x5DC PUSH2 0x85E JUMP JUMPDEST SWAP5 DUP3 SLOAD AND DUP6 MSTORE DUP2 ADD SLOAD DUP10 DUP6 ADD MSTORE DUP7 DUP2 ADD SLOAD DUP11 DUP6 ADD MSTORE ADD SLOAD AND ISZERO ISZERO PUSH1 0x60 DUP3 ADD MSTORE PUSH2 0x605 DUP3 DUP11 PUSH2 0x91D JUMP JUMPDEST MSTORE PUSH2 0x610 DUP2 DUP10 PUSH2 0x91D JUMP JUMPDEST POP ADD SWAP6 SWAP4 SWAP3 SWAP5 SWAP6 PUSH2 0x52C JUMP JUMPDEST SWAP6 DUP1 SWAP5 SWAP6 SWAP8 SWAP7 PUSH2 0x62A PUSH2 0x8AC JUMP JUMPDEST DUP3 DUP3 DUP12 ADD ADD MSTORE ADD SWAP7 SWAP5 SWAP4 SWAP6 SWAP7 PUSH2 0x521 JUMP JUMPDEST PUSH4 0x4E487B71 PUSH1 0xE0 SHL DUP7 MSTORE PUSH1 0x41 PUSH1 0x4 MSTORE PUSH1 0x24 DUP7 REVERT JUMPDEST POP CALLVALUE PUSH2 0x11C JUMPI PUSH1 0x20 CALLDATASIZE PUSH1 0x3 NOT ADD SLT PUSH2 0x11C JUMPI PUSH1 0x20 SWAP2 PUSH1 0xFF SWAP1 PUSH1 0x3 SWAP1 DUP4 SWAP1 PUSH1 0x1 PUSH1 0x1 PUSH1 0xA0 SHL SUB PUSH2 0x67C PUSH2 0x763 JUMP JUMPDEST AND DUP2 MSTORE PUSH1 0x1 DUP7 MSTORE KECCAK256 ADD SLOAD AND SWAP1 MLOAD SWAP1 ISZERO ISZERO DUP2 MSTORE RETURN JUMPDEST POP CALLVALUE PUSH2 0x11C JUMPI DUP1 PUSH1 0x3 NOT CALLDATASIZE ADD SLT PUSH2 0x11C JUMPI SWAP1 PUSH1 0x20 SWAP2 PUSH2 0x6AD PUSH2 0x763 JUMP JUMPDEST PUSH32 0x5C3F6E98F212F4C64FFD7BB715DE204A3C246EE0169B69424A0295AA72304E2C DUP3 PUSH1 0x2 DUP2 PUSH1 0x24 CALLDATALOAD PUSH2 0x6DD PUSH2 0x992 JUMP JUMPDEST PUSH1 0x1 PUSH1 0x1 PUSH1 0xA0 SHL SUB DUP7 AND SWAP6 PUSH2 0x71B SWAP1 PUSH2 0x6F7 DUP9 ISZERO ISZERO PUSH2 0x77E JUMP JUMPDEST PUSH2 0x702 DUP4 ISZERO ISZERO PUSH2 0x7BA JUMP JUMPDEST DUP8 DUP11 MSTORE PUSH1 0x1 DUP12 MSTORE PUSH2 0x2F7 PUSH1 0xFF PUSH1 0x3 DUP7 DUP14 KECCAK256 ADD SLOAD AND PUSH2 0x7FB JUMP JUMPDEST SWAP1 DUP2 DUP2 GT ISZERO PUSH2 0x75B JUMPI POP SWAP7 JUMPDEST DUP6 DUP2 MSTORE PUSH1 0x1 DUP10 MSTORE DUP3 DUP3 DUP3 KECCAK256 ADD PUSH2 0x73E DUP10 DUP3 SLOAD PUSH2 0x83B JUMP JUMPDEST SWAP1 SSTORE DUP6 DUP2 MSTORE PUSH1 0x1 DUP10 MSTORE KECCAK256 ADD SLOAD DUP2 MLOAD SWAP1 DUP7 DUP3 MSTORE DUP8 DUP3 ADD MSTORE LOG2 MLOAD SWAP1 DUP2 MSTORE RETURN JUMPDEST SWAP1 POP SWAP7 PUSH2 0x727 JUMP JUMPDEST PUSH1 0x4 CALLDATALOAD SWAP1 PUSH1 0x1 PUSH1 0x1 PUSH1 0xA0 SHL SUB DUP3 AND DUP3 SUB PUSH2 0x779 JUMPI JUMP JUMPDEST PUSH1 0x0 DUP1 REVERT JUMPDEST ISZERO PUSH2 0x785 JUMPI JUMP JUMPDEST PUSH1 0x40 MLOAD PUSH3 0x461BCD PUSH1 0xE5 SHL DUP2 MSTORE PUSH1 0x20 PUSH1 0x4 DUP3 ADD MSTORE PUSH1 0xD PUSH1 0x24 DUP3 ADD MSTORE PUSH13 0x24B73B30B634B2103A37B5B2B7 PUSH1 0x99 SHL PUSH1 0x44 DUP3 ADD MSTORE PUSH1 0x64 SWAP1 REVERT JUMPDEST ISZERO PUSH2 0x7C1 JUMPI JUMP JUMPDEST PUSH1 0x40 MLOAD PUSH3 0x461BCD PUSH1 0xE5 SHL DUP2 MSTORE PUSH1 0x20 PUSH1 0x4 DUP3 ADD MSTORE PUSH1 0x12 PUSH1 0x24 DUP3 ADD MSTORE PUSH18 0x416D6F756E74206D757374206265203E203 PUSH1 0x74 SHL PUSH1 0x44 DUP3 ADD MSTORE PUSH1 0x64 SWAP1 REVERT JUMPDEST ISZERO PUSH2 0x802 JUMPI JUMP JUMPDEST PUSH1 0x40 MLOAD PUSH3 0x461BCD PUSH1 0xE5 SHL DUP2 MSTORE PUSH1 0x20 PUSH1 0x4 DUP3 ADD MSTORE PUSH1 0x11 PUSH1 0x24 DUP3 ADD MSTORE PUSH17 0x14995CD95C9D99481B9BDD08199BDD5B99 PUSH1 0x7A SHL PUSH1 0x44 DUP3 ADD MSTORE PUSH1 0x64 SWAP1 REVERT JUMPDEST SWAP2 SWAP1 DUP3 ADD DUP1 SWAP3 GT PUSH2 0x848 JUMPI JUMP JUMPDEST PUSH4 0x4E487B71 PUSH1 0xE0 SHL PUSH1 0x0 MSTORE PUSH1 0x11 PUSH1 0x4 MSTORE PUSH1 0x24 PUSH1 0x0 REVERT JUMPDEST PUSH1 0x40 MLOAD SWAP1 PUSH1 0x80 DUP3 ADD DUP3 DUP2 LT PUSH8 0xFFFFFFFFFFFFFFFF DUP3 GT OR PUSH2 0x87E JUMPI PUSH1 0x40 MSTORE JUMP JUMPDEST PUSH4 0x4E487B71 PUSH1 0xE0 SHL PUSH1 0x0 MSTORE PUSH1 0x41 PUSH1 0x4 MSTORE PUSH1 0x24 PUSH1 0x0 REVERT JUMPDEST PUSH8 0xFFFFFFFFFFFFFFFF DUP2 GT PUSH2 0x87E JUMPI PUSH1 0x5 SHL PUSH1 0x20 ADD SWAP1 JUMP JUMPDEST PUSH2 0x8B4 PUSH2 0x85E JUMP JUMPDEST SWAP1 PUSH1 0x0 DUP3 MSTORE PUSH1 0x0 PUSH1 0x20 DUP4 ADD MSTORE PUSH1 0x0 PUSH1 0x40 DUP4 ADD MSTORE PUSH1 0x0 PUSH1 0x60 DUP4 ADD MSTORE JUMP JUMPDEST PUSH1 0x2 SLOAD DUP2 LT ISZERO PUSH2 0x907 JUMPI PUSH1 0x2 PUSH1 0x0 MSTORE PUSH32 0x405787FA12A823E0F2B7631CC41B3BA8828B3321CA811111FA75CD3AA3BB5ACE ADD SWAP1 PUSH1 0x0 SWAP1 JUMP JUMPDEST PUSH4 0x4E487B71 PUSH1 0xE0 SHL PUSH1 0x0 MSTORE PUSH1 0x32 PUSH1 0x4 MSTORE PUSH1 0x24 PUSH1 0x0 REVERT JUMPDEST DUP1 MLOAD DUP3 LT ISZERO PUSH2 0x907 JUMPI PUSH1 0x20 SWAP2 PUSH1 0x5 SHL ADD ADD SWAP1 JUMP JUMPDEST PUSH1 0x1 PUSH1 0x1 PUSH1 0xA0 SHL SUB AND PUSH1 0x0 DUP2 DUP2 MSTORE PUSH1 0x1 PUSH1 0x20 MSTORE PUSH1 0x40 DUP2 KECCAK256 PUSH1 0x3 ADD SLOAD SWAP1 SWAP2 SWAP1 PUSH2 0x95B SWAP1 PUSH1 0xFF AND PUSH2 0x7FB JUMP JUMPDEST DUP2 MSTORE PUSH1 0x1 PUSH1 0x20 MSTORE PUSH1 0x40 DUP2 KECCAK256 SWAP1 PUSH1 0x2 PUSH1 0x1 DUP4 ADD SLOAD SWAP3 ADD SLOAD DUP3 SUB SWAP2 DUP3 GT PUSH2 0x97E JUMPI POP SWAP1 JUMP JUMPDEST PUSH4 0x4E487B71 PUSH1 0xE0 SHL DUP2 MSTORE PUSH1 0x11 PUSH1 0x4 MSTORE PUSH1 0x24 SWAP1 REVERT JUMPDEST PUSH1 0x0 SLOAD PUSH1 0x1 PUSH1 0x1 PUSH1 0xA0 SHL SUB AND CALLER SUB PUSH2 0x9A6 JUMPI JUMP JUMPDEST PUSH1 0x40 MLOAD PUSH4 0x118CDAA7 PUSH1 0xE0 SHL DUP2 MSTORE CALLER PUSH1 0x4 DUP3 ADD MSTORE PUSH1 0x24 SWAP1 REVERT INVALID LOG2 PUSH5 0x6970667358 0x22 SLT KECCAK256 0x26 GAS SWAP15 0xE6 0xD1 0xCC DUP2 0xE5 DUP16 0xDE DUP11 EQ PUSH31 0x1A39BF273573EF0DCED7FA0AEBFAF634E681D264736F6C6343000817003300 "},"methodIdentifiers":{"getAllReserves()":"6aa701bf","getRemainingReserve(address)":"81405526","getReserve(address)":"c9a396e9","hasReserve(address)":"3762e31b","increaseReserve(address,uint256)":"d14499d1","owner()":"8da5cb5b","payBonus(address,uint256)":"1b302fc4","renounceOwnership()":"715018a6","setReserve(address,uint256)":"78250b63","totalReserveTokens()":"cd06700b","transferOwnership(address)":"f2fde38b"}}}}}