{
  "_format": "hh-sol-artifact-1",
  "contractName": "ReceiptVault",
  "sourceName": "src/ReceiptVault.sol",
  "abi": [
    {
      "inputs": [
        {
          "internalType": "address",
          "name": "initialOwner",
          "type": "address"
        },
        {
          "internalType": "address",
          "name": "receiptTokenAddress",
          "type": "address"
        },
        {
          "internalType": "address",
          "name": "bonusReserveManagerAddress",
          "type": "address"
        }
      ],
      "stateMutability": "nonpayable",
      "type": "constructor"
    },
    {
      "inputs": [
        {
          "internalType": "address",
          "name": "owner",
          "type": "address"
        }
      ],
      "name": "OwnableInvalidOwner",
      "type": "error"
    },
    {
      "inputs": [
        {
          "internalType": "address",
          "name": "account",
          "type": "address"
        }
      ],
      "name": "OwnableUnauthorizedAccount",
      "type": "error"
    },
    {
      "anonymous": false,
      "inputs": [
        {
          "indexed": true,
          "internalType": "address",
          "name": "previousOwner",
          "type": "address"
        },
        {
          "indexed": true,
          "internalType": "address",
          "name": "newOwner",
          "type": "address"
        }
      ],
      "name": "OwnershipTransferred",
      "type": "event"
    },
    {
      "anonymous": false,
      "inputs": [
        {
          "indexed": true,
          "internalType": "uint256",
          "name": "positionId",
          "type": "uint256"
        },
        {
          "indexed": true,
          "internalType": "address",
          "name": "owner",
          "type": "address"
        },
        {
          "indexed": true,
          "internalType": "address",
          "name": "lpToken",
          "type": "address"
        },
        {
          "indexed": false,
          "internalType": "uint256",
          "name": "lpAmount",
          "type": "uint256"
        },
        {
          "indexed": false,
          "internalType": "uint256",
          "name": "receiptAmount",
          "type": "uint256"
        },
        {
          "indexed": false,
          "internalType": "uint256",
          "name": "unlockAt",
          "type": "uint256"
        }
      ],
      "name": "PositionCreated",
      "type": "event"
    },
    {
      "anonymous": false,
      "inputs": [
        {
          "indexed": true,
          "internalType": "uint256",
          "name": "positionId",
          "type": "uint256"
        },
        {
          "indexed": true,
          "internalType": "address",
          "name": "owner",
          "type": "address"
        },
        {
          "indexed": true,
          "internalType": "address",
          "name": "lpToken",
          "type": "address"
        },
        {
          "indexed": false,
          "internalType": "uint256",
          "name": "lpReturned",
          "type": "uint256"
        },
        {
          "indexed": false,
          "internalType": "uint256",
          "name": "bonusPaid",
          "type": "uint256"
        }
      ],
      "name": "PositionRedeemed",
      "type": "event"
    },
    {
      "inputs": [],
      "name": "LOCK_PERIOD",
      "outputs": [
        {
          "internalType": "uint256",
          "name": "",
          "type": "uint256"
        }
      ],
      "stateMutability": "view",
      "type": "function"
    },
    {
      "inputs": [],
      "name": "bonusReserveManager",
      "outputs": [
        {
          "internalType": "address",
          "name": "",
          "type": "address"
        }
      ],
      "stateMutability": "view",
      "type": "function"
    },
    {
      "inputs": [
        {
          "internalType": "address",
          "name": "lpToken",
          "type": "address"
        },
        {
          "internalType": "uint256",
          "name": "lpAmount",
          "type": "uint256"
        },
        {
          "internalType": "uint256",
          "name": "receiptAmount",
          "type": "uint256"
        }
      ],
      "name": "depositLP",
      "outputs": [
        {
          "internalType": "uint256",
          "name": "positionId",
          "type": "uint256"
        }
      ],
      "stateMutability": "nonpayable",
      "type": "function"
    },
    {
      "inputs": [
        {
          "internalType": "uint256",
          "name": "positionId",
          "type": "uint256"
        }
      ],
      "name": "getPosition",
      "outputs": [
        {
          "components": [
            {
              "internalType": "uint256",
              "name": "id",
              "type": "uint256"
            },
            {
              "internalType": "address",
              "name": "owner",
              "type": "address"
            },
            {
              "internalType": "address",
              "name": "lpToken",
              "type": "address"
            },
            {
              "internalType": "uint256",
              "name": "lpAmount",
              "type": "uint256"
            },
            {
              "internalType": "uint256",
              "name": "receiptAmount",
              "type": "uint256"
            },
            {
              "internalType": "uint256",
              "name": "lockedAt",
              "type": "uint256"
            },
            {
              "internalType": "uint256",
              "name": "unlockAt",
              "type": "uint256"
            },
            {
              "internalType": "bool",
              "name": "redeemed",
              "type": "bool"
            },
            {
              "internalType": "bool",
              "name": "exists",
              "type": "bool"
            }
          ],
          "internalType": "struct ReceiptVault.VaultPosition",
          "name": "",
          "type": "tuple"
        }
      ],
      "stateMutability": "view",
      "type": "function"
    },
    {
      "inputs": [
        {
          "internalType": "address",
          "name": "user",
          "type": "address"
        }
      ],
      "name": "getUserPositionIds",
      "outputs": [
        {
          "internalType": "uint256[]",
          "name": "",
          "type": "uint256[]"
        }
      ],
      "stateMutability": "view",
      "type": "function"
    },
    {
      "inputs": [
        {
          "internalType": "address",
          "name": "user",
          "type": "address"
        }
      ],
      "name": "getUserPositions",
      "outputs": [
        {
          "components": [
            {
              "internalType": "uint256",
              "name": "id",
              "type": "uint256"
            },
            {
              "internalType": "address",
              "name": "owner",
              "type": "address"
            },
            {
              "internalType": "address",
              "name": "lpToken",
              "type": "address"
            },
            {
              "internalType": "uint256",
              "name": "lpAmount",
              "type": "uint256"
            },
            {
              "internalType": "uint256",
              "name": "receiptAmount",
              "type": "uint256"
            },
            {
              "internalType": "uint256",
              "name": "lockedAt",
              "type": "uint256"
            },
            {
              "internalType": "uint256",
              "name": "unlockAt",
              "type": "uint256"
            },
            {
              "internalType": "bool",
              "name": "redeemed",
              "type": "bool"
            },
            {
              "internalType": "bool",
              "name": "exists",
              "type": "bool"
            }
          ],
          "internalType": "struct ReceiptVault.VaultPosition[]",
          "name": "",
          "type": "tuple[]"
        }
      ],
      "stateMutability": "view",
      "type": "function"
    },
    {
      "inputs": [
        {
          "internalType": "uint256",
          "name": "positionId",
          "type": "uint256"
        }
      ],
      "name": "isRedeemable",
      "outputs": [
        {
          "internalType": "bool",
          "name": "",
          "type": "bool"
        }
      ],
      "stateMutability": "view",
      "type": "function"
    },
    {
      "inputs": [],
      "name": "nextPositionId",
      "outputs": [
        {
          "internalType": "uint256",
          "name": "",
          "type": "uint256"
        }
      ],
      "stateMutability": "view",
      "type": "function"
    },
    {
      "inputs": [],
      "name": "owner",
      "outputs": [
        {
          "internalType": "address",
          "name": "",
          "type": "address"
        }
      ],
      "stateMutability": "view",
      "type": "function"
    },
    {
      "inputs": [],
      "name": "receiptToken",
      "outputs": [
        {
          "internalType": "address",
          "name": "",
          "type": "address"
        }
      ],
      "stateMutability": "view",
      "type": "function"
    },
    {
      "inputs": [
        {
          "internalType": "uint256",
          "name": "positionId",
          "type": "uint256"
        }
      ],
      "name": "redeemPosition",
      "outputs": [
        {
          "internalType": "uint256",
          "name": "bonusPaid",
          "type": "uint256"
        }
      ],
      "stateMutability": "nonpayable",
      "type": "function"
    },
    {
      "inputs": [],
      "name": "renounceOwnership",
      "outputs": [],
      "stateMutability": "nonpayable",
      "type": "function"
    },
    {
      "inputs": [
        {
          "internalType": "address",
          "name": "newOwner",
          "type": "address"
        }
      ],
      "name": "transferOwnership",
      "outputs": [],
      "stateMutability": "nonpayable",
      "type": "function"
    }
  ],
  "bytecode": "0x60c0346101a057601f6110d938819003918201601f191683019291906001600160401b038411838510176101a55781606092849260409687528339810103126101a05761004b816101bb565b906100638361005c602084016101bb565b92016101bb565b916001600160a01b03908116801561018857600080546001600160a01b031981168317825586519291908416907f8be0079c531659141344cd1fd0a4f28419497f9722a3daafe3b4186f6b6457e09080a3600180558183161561014657508216156101025760805260a05251610f0990816101d082396080518181816102cf015281816105430152610872015260a0518181816107cc01526108d30152f35b825162461bcd60e51b815260206004820152601d60248201527f496e76616c696420626f6e75732072657365727665206d616e616765720000006044820152606490fd5b62461bcd60e51b815260206004820152601560248201527f496e76616c6964207265636569707420746f6b656e00000000000000000000006044820152606490fd5b8451631e4fbdf760e01b815260006004820152602490fd5b600080fd5b634e487b7160e01b600052604160045260246000fd5b51906001600160a01b03821682036101a05756fe608080604052600436101561001357600080fd5b60009060e0823560e01c9182631820cabb14610cd9575081632a6bc2dd14610b23575080632fefd77f146107fb5780634baefee9146107b6578063715018a61461075c578063899346c71461073e5780638da5cb5b146107175780639126314d146103c9578063eb02c301146102fe578063ec78e832146102b9578063eddf757014610207578063f2fde38b146101775763f48cc326146100b357600080fd5b34610174576020366003190112610174576040602091600435815260028352206040516100df81610d76565b8154815260018060a01b03806001840154168483015260028301541660408201526003820154606082015260048201546080820152600582015460a0820152610154610100600760068501549460c0850195865201549260ff60e08201948181161515865260081c1615159182910152610e66565b51159081610168575b506040519015158152f35b9050514210153861015d565b80fd5b503461017457602036600319011261017457610191610cf6565b610199610ea7565b6001600160a01b039081169081156101ee57600054826bffffffffffffffffffffffff60a01b821617600055167f8be0079c531659141344cd1fd0a4f28419497f9722a3daafe3b4186f6b6457e0600080a380f35b604051631e4fbdf760e01b815260048101849052602490fd5b5034610174576020806003193601126102b5576001600160a01b0361022a610cf6565b168252600381526040822060405192838383549182815201908193835284832090835b8181106102a15750505084610263910385610dbd565b60405193838594850191818652518092526040850193925b82811061028a57505050500390f35b83518552869550938101939281019260010161027b565b82548452928601926001928301920161024d565b5080fd5b50346101745780600319360112610174576040517f00000000000000000000000000000000000000000000000000000000000000006001600160a01b03168152602090f35b503461017457602036600319011261017457604061012091600435610321610df7565b50808252600260205261033f60ff6007858520015460081c16610e66565b815260026020522060ff60076040519261035884610d76565b8054845260018060a01b0380600183015416602086015260028201541660408501526003810154606085015260048101546080850152600581015460a0850152600681015460c08501520154818116151560e084015260081c1615156101008201526103c76040518092610d11565bf35b5034610174576060366003190112610174576103e3610cf6565b6044356001600160a01b038216156106df57602435156106a257801561065d57600154916000198314610649576001830160015562278d0042014211610649578383600760405161043381610d76565b828152602081013381526040820160018060a01b0387168152606083016024358152608084019089825260a085019242845260c086019462278d0042018652604060e088019a808c5261010089019a60018c52815260026020522096518755600187019060018060a01b03905116906bffffffffffffffffffffffff60a01b9182825416179055600287019160018060a01b039051169082541617905551600385015551600484015551600583015551600682015501915115159060ff61ff0084549251151560081b1692169061ffff19161717905533845260036020526040842080549068010000000000000000821015610635576001820180825582101561062157855260208520018390557f00000000000000000000000000000000000000000000000000000000000000006001600160a01b0316803b1561061d576040516340c10f1960e01b8152336004820152602481018490529085908290604490829084905af18015610612576105fa575b50602093506040519160243583528483015262278d004201604083015260018060a01b031690827fff1fe5c3df343b3cf49ae44ff3f1e994389f4eea96f957f0eebf192190c8ac8f60603393a4604051908152f35b6106048591610da9565b61060e57836105a5565b8380fd5b6040513d87823e3d90fd5b8480fd5b634e487b7160e01b86526032600452602486fd5b634e487b7160e01b86526041600452602486fd5b634e487b7160e01b84526011600452602484fd5b60405162461bcd60e51b815260206004820152601a60248201527f5265636569707420616d6f756e74206d757374206265203e20300000000000006044820152606490fd5b60405162461bcd60e51b815260206004820152601560248201527404c5020616d6f756e74206d757374206265203e203605c1b6044820152606490fd5b60405162461bcd60e51b815260206004820152601060248201526f24b73b30b634b2102628103a37b5b2b760811b6044820152606490fd5b5034610174578060031936011261017457546040516001600160a01b039091168152602090f35b50346101745780600319360112610174576020600154604051908152f35b5034610174578060031936011261017457610775610ea7565b600080546001600160a01b0319811682556001600160a01b03167f8be0079c531659141344cd1fd0a4f28419497f9722a3daafe3b4186f6b6457e08280a380f35b50346101745780600319360112610174576040517f00000000000000000000000000000000000000000000000000000000000000006001600160a01b03168152602090f35b5034610174576020908160031936011261017457600435908091808252600284526040822091600783019081549161083860ff8460081c16610e66565b60018501546001600160a01b03939084163303610ae95760ff8116610ab15760068601544210610a745760ff1916600117905560048401547f0000000000000000000000000000000000000000000000000000000000000000831690813b15610a7057604051632770a7eb60e21b815233600482015260248101919091529082908290604490829084905af18015610a6557610a56575b50817f0000000000000000000000000000000000000000000000000000000000000000169060028501918383541690604051633762e31b60e01b81528260048201528981602481855afa908115610a4b57908a9392918591610a0f575b50610979575b505050509060039154169201549060405191825283858301527f94e2fe61e4d6ddf34ce06d7db9f2b0b814ea9400cbbb5b8542bc03d0b9b69a1760403393a4604051908152f35b60038801546040516306cc0bf160e21b81526001600160a01b0393909316600484015260649004602483015293975091928290604490829086905af1918215610a035780926109d2575b50909490506003863880610932565b9091508682813d83116109fc575b6109ea8183610dbd565b810103126101745750516003386109c3565b503d6109e0565b604051903d90823e3d90fd5b848193949592503d8311610a44575b610a288183610dbd565b8101031261060e5751801515810361060e57908992913861092c565b503d610a1e565b6040513d86823e3d90fd5b610a5f90610da9565b386108cf565b6040513d84823e3d90fd5b8280fd5b60405162461bcd60e51b8152600481018990526015602482015274141bdcda5d1a5bdb881cdd1a5b1b081b1bd8dad959605a1b6044820152606490fd5b60405162461bcd60e51b815260048101899052601060248201526f105b1c9958591e481c995919595b595960821b6044820152606490fd5b60405162461bcd60e51b81526004810189905260126024820152712737ba103837b9b4ba34b7b71037bbb732b960711b6044820152606490fd5b8234610174576020806003193601126102b5576001600160a01b039283610b48610cf6565b168352600392600383526040812093604051808686829854938481520190855286852092855b88828210610cc357505050610b8592500386610dbd565b845195610baa610b9488610ddf565b97610ba2604051998a610dbd565b808952610ddf565b601f190185845b828110610cad57505050825b8651811015610c635780610bd360019289610e3c565b51855260028088526007604087208560405193610bef85610d76565b825485528187840154168c86015282015416604084015286810154606084015260048101546080840152600581015460a0840152600681015460c0840152015460ff9081811615158984015260081c161515610100820152610c51828b610e3c565b52610c5c818a610e3c565b5001610bbd565b6040805187815289518189018190528a89019282019089885b828110610c895784840385f35b9091928261012082610c9e6001948a51610d11565b01960191019492919094610c7c565b610cb5610df7565b82828c010152018690610bb1565b855484526001958601958b955093019201610b6e565b8390346102b557816003193601126102b5578062278d0060209252f35b600435906001600160a01b0382168203610d0c57565b600080fd5b80518252602081015160018060a01b0380911660208401526040820151166040830152606081015160608301526080810151608083015260a081015160a083015260c081015160c083015260e0810151151560e0830152610100809101511515910152565b610120810190811067ffffffffffffffff821117610d9357604052565b634e487b7160e01b600052604160045260246000fd5b67ffffffffffffffff8111610d9357604052565b90601f8019910116810190811067ffffffffffffffff821117610d9357604052565b67ffffffffffffffff8111610d935760051b60200190565b60405190610e0482610d76565b816101006000918281528260208201528260408201528260608201528260808201528260a08201528260c08201528260e08201520152565b8051821015610e505760209160051b010190565b634e487b7160e01b600052603260045260246000fd5b15610e6d57565b60405162461bcd60e51b8152602060048201526012602482015271141bdcda5d1a5bdb881b9bdd08199bdd5b9960721b6044820152606490fd5b6000546001600160a01b03163303610ebb57565b60405163118cdaa760e01b8152336004820152602490fdfea2646970667358221220b3e83fe3b4d18dddab1085903f452482959a5e35f702f2cfe6d17f6328415d5464736f6c63430008170033",
  "linkReferences": {},
  "deployedLinkReferences": {}
}